{
  "_format": "hh-sol-artifact-1",
  "contractName": "StableCoin",
  "sourceName": "contracts/stablecoin.sol",
  "abi": [
    {
      "anonymous": false,
      "inputs": [
        {
          "indexed": true,
          "internalType": "address",
          "name": "to",
          "type": "address"
        },
        {
          "indexed": false,
          "internalType": "uint256",
          "name": "value",
          "type": "uint256"
        }
      ],
      "name": "CBDCIssued",
      "type": "event"
    },
    {
      "anonymous": false,
      "inputs": [
        {
          "indexed": true,
          "internalType": "address",
          "name": "to",
          "type": "address"
        },
        {
          "indexed": false,
          "internalType": "uint256",
          "name": "value",
          "type": "uint256"
        }
      ],
      "name": "Mint",
      "type": "event"
    },
    {
      "inputs": [
        {
          "internalType": "string",
          "name": "_name",
          "type": "string"
        },
        {
          "internalType": "string",
          "name": "_symbol",
          "type": "string"
        },
        {
          "internalType": "string",
          "name": "country",
          "type": "string"
        },
        {
          "internalType": "address",
          "name": "contractAddress",
          "type": "address"
        }
      ],
      "name": "addCentralBank",
      "outputs": [],
      "stateMutability": "nonpayable",
      "type": "function"
    },
    {
      "inputs": [
        {
          "internalType": "address",
          "name": "",
          "type": "address"
        }
      ],
      "name": "balanceOf",
      "outputs": [
        {
          "internalType": "uint256",
          "name": "",
          "type": "uint256"
        }
      ],
      "stateMutability": "view",
      "type": "function"
    },
    {
      "inputs": [
        {
          "internalType": "string",
          "name": "",
          "type": "string"
        }
      ],
      "name": "cbdcinstance",
      "outputs": [
        {
          "internalType": "contract CBDCCoin",
          "name": "",
          "type": "address"
        }
      ],
      "stateMutability": "view",
      "type": "function"
    },
    {
      "inputs": [
        {
          "internalType": "string",
          "name": "",
          "type": "string"
        }
      ],
      "name": "centralBanksByCountry",
      "outputs": [
        {
          "internalType": "address",
          "name": "centralBankContractAddress",
          "type": "address"
        },
        {
          "internalType": "string",
          "name": "name",
          "type": "string"
        },
        {
          "internalType": "string",
          "name": "symbol",
          "type": "string"
        }
      ],
      "stateMutability": "view",
      "type": "function"
    },
    {
      "inputs": [],
      "name": "creator",
      "outputs": [
        {
          "internalType": "address",
          "name": "",
          "type": "address"
        }
      ],
      "stateMutability": "view",
      "type": "function"
    },
    {
      "inputs": [],
      "name": "decimals",
      "outputs": [
        {
          "internalType": "uint8",
          "name": "",
          "type": "uint8"
        }
      ],
      "stateMutability": "view",
      "type": "function"
    },
    {
      "inputs": [
        {
          "internalType": "uint256",
          "name": "_value",
          "type": "uint256"
        },
        {
          "internalType": "string",
          "name": "country",
          "type": "string"
        }
      ],
      "name": "mint",
      "outputs": [],
      "stateMutability": "nonpayable",
      "type": "function"
    },
    {
      "inputs": [],
      "name": "name",
      "outputs": [
        {
          "internalType": "string",
          "name": "",
          "type": "string"
        }
      ],
      "stateMutability": "view",
      "type": "function"
    },
    {
      "inputs": [],
      "name": "symbol",
      "outputs": [
        {
          "internalType": "string",
          "name": "",
          "type": "string"
        }
      ],
      "stateMutability": "view",
      "type": "function"
    },
    {
      "inputs": [],
      "name": "totalSupply",
      "outputs": [
        {
          "internalType": "uint256",
          "name": "",
          "type": "uint256"
        }
      ],
      "stateMutability": "view",
      "type": "function"
    }
  ],
  "bytecode": "0x608060405234801561001057600080fd5b50610b17806100206000396000f3fe608060405234801561001057600080fd5b506004361061009e5760003560e01c8063397f787b11610066578063397f787b1461014057806370a082311461017457806377097fc81461019457806395d89b41146101a9578063debd0c87146101b157600080fd5b806302d05d3f146100a357806306fdde03146100d3578063160d5c36146100e857806318160ddd1461010a578063313ce56714610121575b600080fd5b6004546100b6906001600160a01b031681565b6040516001600160a01b0390911681526020015b60405180910390f35b6100db6101c4565b6040516100ca91906106e8565b6100fb6100f63660046107a5565b610252565b6040516100ca939291906107e2565b61011360035481565b6040519081526020016100ca565b60025461012e9060ff1681565b60405160ff90911681526020016100ca565b6100b661014e3660046107a5565b80516020818301810180516005825292820191909301209152546001600160a01b031681565b61011361018236600461083e565b60066020526000908152604090205481565b6101a76101a2366004610859565b61039a565b005b6100db610536565b6101a76101bf3660046108a0565b610543565b600080546101d190610939565b80601f01602080910402602001604051908101604052809291908181526020018280546101fd90610939565b801561024a5780601f1061021f5761010080835404028352916020019161024a565b820191906000526020600020905b81548152906001019060200180831161022d57829003601f168201915b505050505081565b8051602081830181018051600782529282019190930120915280546001820180546001600160a01b03909216929161028990610939565b80601f01602080910402602001604051908101604052809291908181526020018280546102b590610939565b80156103025780601f106102d757610100808354040283529160200191610302565b820191906000526020600020905b8154815290600101906020018083116102e557829003601f168201915b50505050509080600201805461031790610939565b80601f016020809104026020016040519081016040528092919081815260200182805461034390610939565b80156103905780601f1061036557610100808354040283529160200191610390565b820191906000526020600020905b81548152906001019060200180831161037357829003601f168201915b5050505050905083565b600082116103f95760405162461bcd60e51b815260206004820152602160248201527f4d696e742076616c7565206d7573742062652067726561746572207468616e206044820152600360fc1b60648201526084015b60405180910390fd5b60035482906104089082610630565b600355336000908152600660205260409020546104259084610630565b33600090815260066020526040908190209190915551600590610449908490610973565b90815260405190819003602001812054632bd0855960e21b8252336004830152602482018590526001600160a01b03169063af421564906044016020604051808303816000875af11580156104a2573d6000803e3d6000fd5b505050506040513d601f19601f820116820180604052508101906104c6919061098f565b5060405183815233907f0f6798a560793a54c3bcfe86a93cde1e73087d944c0ea20544137d41213968859060200160405180910390a260405181815233907f6b573e58388d5f0a8c519c0b25a23d7bc6012ac7b37e9c1266a52c9375ecbd0f9060200160405180910390a2505050565b600180546101d190610939565b600061054f8582610a00565b50600161055c8482610a00565b50600480546001600160a01b031916331790556040518190600590610582908590610973565b908152604080516020928190038301812080546001600160a01b0319166001600160a01b039586161790556060810182529284168352908201869052818101859052516007906105d3908590610973565b90815260405160209181900382019020825181546001600160a01b0319166001600160a01b039091161781559082015160018201906106129082610a00565b50604082015160028201906106279082610a00565b50505050505050565b60008061063d8385610ac0565b90508381101561068f5760405162461bcd60e51b815260206004820152601b60248201527f536166654d6174683a206164646974696f6e206f766572666c6f77000000000060448201526064016103f0565b90505b92915050565b60005b838110156106b357818101518382015260200161069b565b50506000910152565b600081518084526106d4816020860160208601610698565b601f01601f19169290920160200192915050565b6020815260006106fb60208301846106bc565b9392505050565b634e487b7160e01b600052604160045260246000fd5b600082601f83011261072957600080fd5b813567ffffffffffffffff8082111561074457610744610702565b604051601f8301601f19908116603f0116810190828211818310171561076c5761076c610702565b8160405283815286602085880101111561078557600080fd5b836020870160208301376000602085830101528094505050505092915050565b6000602082840312156107b757600080fd5b813567ffffffffffffffff8111156107ce57600080fd5b6107da84828501610718565b949350505050565b6001600160a01b0384168152606060208201819052600090610806908301856106bc565b828103604084015261081881856106bc565b9695505050505050565b80356001600160a01b038116811461083957600080fd5b919050565b60006020828403121561085057600080fd5b6106fb82610822565b6000806040838503121561086c57600080fd5b82359150602083013567ffffffffffffffff81111561088a57600080fd5b61089685828601610718565b9150509250929050565b600080600080608085870312156108b657600080fd5b843567ffffffffffffffff808211156108ce57600080fd5b6108da88838901610718565b955060208701359150808211156108f057600080fd5b6108fc88838901610718565b9450604087013591508082111561091257600080fd5b5061091f87828801610718565b92505061092e60608601610822565b905092959194509250565b600181811c9082168061094d57607f821691505b60208210810361096d57634e487b7160e01b600052602260045260246000fd5b50919050565b60008251610985818460208701610698565b9190910192915050565b6000602082840312156109a157600080fd5b8151801515811461068f57600080fd5b601f8211156109fb57600081815260208120601f850160051c810160208610156109d85750805b601f850160051c820191505b818110156109f7578281556001016109e4565b5050505b505050565b815167ffffffffffffffff811115610a1a57610a1a610702565b610a2e81610a288454610939565b846109b1565b602080601f831160018114610a635760008415610a4b5750858301515b600019600386901b1c1916600185901b1785556109f7565b600085815260208120601f198616915b82811015610a9257888601518255948401946001909101908401610a73565b5085821015610ab05787850151600019600388901b60f8161c191681555b5050505050600190811b01905550565b8082018082111561069257634e487b7160e01b600052601160045260246000fdfea264697066735822122024a88b4a24e741013fa5d82a8bcdda3b04740164ef565b24f9a2930e2bed6cd764736f6c63430008140033",
  "linkReferences": {},
  "deployedLinkReferences": {}
}