{
  "_format": "hh-sol-artifact-1",
  "contractName": "CBDCCoin",
  "sourceName": "contracts/cbdccoin.sol",
  "abi": [
    {
      "inputs": [],
      "stateMutability": "nonpayable",
      "type": "constructor"
    },
    {
      "anonymous": false,
      "inputs": [
        {
          "indexed": true,
          "internalType": "address",
          "name": "_owner",
          "type": "address"
        },
        {
          "indexed": true,
          "internalType": "address",
          "name": "_spender",
          "type": "address"
        },
        {
          "indexed": false,
          "internalType": "uint256",
          "name": "_value",
          "type": "uint256"
        }
      ],
      "name": "Approval",
      "type": "event"
    },
    {
      "anonymous": false,
      "inputs": [
        {
          "indexed": true,
          "internalType": "address",
          "name": "_from",
          "type": "address"
        },
        {
          "indexed": true,
          "internalType": "address",
          "name": "_to",
          "type": "address"
        },
        {
          "indexed": false,
          "internalType": "uint256",
          "name": "_value",
          "type": "uint256"
        }
      ],
      "name": "Transfer",
      "type": "event"
    },
    {
      "anonymous": false,
      "inputs": [
        {
          "indexed": true,
          "internalType": "address",
          "name": "_userAddress",
          "type": "address"
        },
        {
          "indexed": true,
          "internalType": "address",
          "name": "_creatorAddress",
          "type": "address"
        },
        {
          "indexed": false,
          "internalType": "string",
          "name": "_name",
          "type": "string"
        },
        {
          "indexed": false,
          "internalType": "string",
          "name": "_iddata",
          "type": "string"
        },
        {
          "indexed": false,
          "internalType": "uint256",
          "name": "_idnum",
          "type": "uint256"
        }
      ],
      "name": "UserAccountCreated",
      "type": "event"
    },
    {
      "inputs": [
        {
          "internalType": "address",
          "name": "",
          "type": "address"
        }
      ],
      "name": "accountDetailsByAddr",
      "outputs": [
        {
          "internalType": "address",
          "name": "userAddress",
          "type": "address"
        },
        {
          "internalType": "address",
          "name": "creatorAddress",
          "type": "address"
        },
        {
          "internalType": "string",
          "name": "name",
          "type": "string"
        },
        {
          "internalType": "string",
          "name": "iddata",
          "type": "string"
        },
        {
          "internalType": "uint256",
          "name": "idnum",
          "type": "uint256"
        }
      ],
      "stateMutability": "view",
      "type": "function"
    },
    {
      "inputs": [
        {
          "internalType": "address",
          "name": "",
          "type": "address"
        },
        {
          "internalType": "uint256",
          "name": "",
          "type": "uint256"
        }
      ],
      "name": "accountDetailsByBankId",
      "outputs": [
        {
          "internalType": "address",
          "name": "userAddress",
          "type": "address"
        },
        {
          "internalType": "address",
          "name": "creatorAddress",
          "type": "address"
        },
        {
          "internalType": "string",
          "name": "name",
          "type": "string"
        },
        {
          "internalType": "string",
          "name": "iddata",
          "type": "string"
        },
        {
          "internalType": "uint256",
          "name": "idnum",
          "type": "uint256"
        }
      ],
      "stateMutability": "view",
      "type": "function"
    },
    {
      "inputs": [
        {
          "internalType": "uint256",
          "name": "",
          "type": "uint256"
        }
      ],
      "name": "accountDetailsById",
      "outputs": [
        {
          "internalType": "address",
          "name": "userAddress",
          "type": "address"
        },
        {
          "internalType": "address",
          "name": "creatorAddress",
          "type": "address"
        },
        {
          "internalType": "string",
          "name": "name",
          "type": "string"
        },
        {
          "internalType": "string",
          "name": "iddata",
          "type": "string"
        },
        {
          "internalType": "uint256",
          "name": "idnum",
          "type": "uint256"
        }
      ],
      "stateMutability": "view",
      "type": "function"
    },
    {
      "inputs": [
        {
          "internalType": "address",
          "name": "_bankAddr",
          "type": "address"
        },
        {
          "components": [
            {
              "internalType": "uint256",
              "name": "bank_id",
              "type": "uint256"
            },
            {
              "internalType": "string",
              "name": "name",
              "type": "string"
            },
            {
              "internalType": "string",
              "name": "extension",
              "type": "string"
            },
            {
              "internalType": "string",
              "name": "bank_address",
              "type": "string"
            }
          ],
          "internalType": "struct CBDCCoin.BankDetails",
          "name": "details",
          "type": "tuple"
        }
      ],
      "name": "addBank",
      "outputs": [
        {
          "internalType": "bool",
          "name": "success",
          "type": "bool"
        }
      ],
      "stateMutability": "nonpayable",
      "type": "function"
    },
    {
      "inputs": [
        {
          "internalType": "uint256",
          "name": "_quantity",
          "type": "uint256"
        }
      ],
      "name": "addTokens",
      "outputs": [
        {
          "internalType": "bool",
          "name": "success",
          "type": "bool"
        }
      ],
      "stateMutability": "nonpayable",
      "type": "function"
    },
    {
      "inputs": [
        {
          "internalType": "address",
          "name": "_userAddress",
          "type": "address"
        },
        {
          "internalType": "address",
          "name": "_bankAddress",
          "type": "address"
        },
        {
          "internalType": "string",
          "name": "_name",
          "type": "string"
        },
        {
          "internalType": "string",
          "name": "_iddata",
          "type": "string"
        }
      ],
      "name": "addUserAddressInfo",
      "outputs": [
        {
          "internalType": "bool",
          "name": "success",
          "type": "bool"
        }
      ],
      "stateMutability": "nonpayable",
      "type": "function"
    },
    {
      "inputs": [
        {
          "internalType": "uint256",
          "name": "",
          "type": "uint256"
        }
      ],
      "name": "allBanks",
      "outputs": [
        {
          "internalType": "uint256",
          "name": "bank_id",
          "type": "uint256"
        },
        {
          "internalType": "string",
          "name": "name",
          "type": "string"
        },
        {
          "internalType": "string",
          "name": "extension",
          "type": "string"
        },
        {
          "internalType": "string",
          "name": "bank_address",
          "type": "string"
        }
      ],
      "stateMutability": "view",
      "type": "function"
    },
    {
      "inputs": [
        {
          "internalType": "address",
          "name": "",
          "type": "address"
        },
        {
          "internalType": "address",
          "name": "",
          "type": "address"
        }
      ],
      "name": "allowance",
      "outputs": [
        {
          "internalType": "uint256",
          "name": "",
          "type": "uint256"
        }
      ],
      "stateMutability": "view",
      "type": "function"
    },
    {
      "inputs": [
        {
          "internalType": "address",
          "name": "_spender",
          "type": "address"
        },
        {
          "internalType": "uint256",
          "name": "_value",
          "type": "uint256"
        }
      ],
      "name": "approve",
      "outputs": [
        {
          "internalType": "bool",
          "name": "success",
          "type": "bool"
        }
      ],
      "stateMutability": "nonpayable",
      "type": "function"
    },
    {
      "inputs": [
        {
          "internalType": "address",
          "name": "",
          "type": "address"
        }
      ],
      "name": "balanceOf",
      "outputs": [
        {
          "internalType": "uint256",
          "name": "",
          "type": "uint256"
        }
      ],
      "stateMutability": "view",
      "type": "function"
    },
    {
      "inputs": [],
      "name": "bankNum",
      "outputs": [
        {
          "internalType": "uint256",
          "name": "",
          "type": "uint256"
        }
      ],
      "stateMutability": "view",
      "type": "function"
    },
    {
      "inputs": [
        {
          "internalType": "uint256",
          "name": "",
          "type": "uint256"
        }
      ],
      "name": "banks",
      "outputs": [
        {
          "internalType": "address",
          "name": "",
          "type": "address"
        }
      ],
      "stateMutability": "view",
      "type": "function"
    },
    {
      "inputs": [
        {
          "internalType": "uint256",
          "name": "_quantity",
          "type": "uint256"
        }
      ],
      "name": "burnTokens",
      "outputs": [
        {
          "internalType": "bool",
          "name": "success",
          "type": "bool"
        }
      ],
      "stateMutability": "nonpayable",
      "type": "function"
    },
    {
      "inputs": [],
      "name": "burner",
      "outputs": [
        {
          "internalType": "address",
          "name": "",
          "type": "address"
        }
      ],
      "stateMutability": "view",
      "type": "function"
    },
    {
      "inputs": [
        {
          "internalType": "string",
          "name": "_name",
          "type": "string"
        },
        {
          "internalType": "string",
          "name": "_symbol",
          "type": "string"
        },
        {
          "internalType": "uint256",
          "name": "_initialSupply",
          "type": "uint256"
        }
      ],
      "name": "createToken",
      "outputs": [
        {
          "internalType": "bool",
          "name": "success",
          "type": "bool"
        }
      ],
      "stateMutability": "nonpayable",
      "type": "function"
    },
    {
      "inputs": [],
      "name": "creator",
      "outputs": [
        {
          "internalType": "address",
          "name": "",
          "type": "address"
        }
      ],
      "stateMutability": "view",
      "type": "function"
    },
    {
      "inputs": [],
      "name": "depositCount",
      "outputs": [
        {
          "internalType": "uint256",
          "name": "",
          "type": "uint256"
        }
      ],
      "stateMutability": "view",
      "type": "function"
    },
    {
      "inputs": [
        {
          "internalType": "uint256",
          "name": "",
          "type": "uint256"
        }
      ],
      "name": "deposits",
      "outputs": [
        {
          "internalType": "uint256",
          "name": "id",
          "type": "uint256"
        },
        {
          "internalType": "address payable",
          "name": "depositor",
          "type": "address"
        },
        {
          "internalType": "address payable",
          "name": "provider",
          "type": "address"
        },
        {
          "internalType": "uint256",
          "name": "rate",
          "type": "uint256"
        },
        {
          "internalType": "uint256",
          "name": "timeperiod",
          "type": "uint256"
        },
        {
          "internalType": "uint256",
          "name": "principal",
          "type": "uint256"
        },
        {
          "internalType": "uint256",
          "name": "maxDepositAmt",
          "type": "uint256"
        },
        {
          "internalType": "uint256",
          "name": "endtime",
          "type": "uint256"
        },
        {
          "internalType": "uint256",
          "name": "starttime",
          "type": "uint256"
        },
        {
          "internalType": "uint256",
          "name": "interest",
          "type": "uint256"
        },
        {
          "internalType": "uint256",
          "name": "amt",
          "type": "uint256"
        },
        {
          "internalType": "bool",
          "name": "isAvailable",
          "type": "bool"
        },
        {
          "internalType": "bool",
          "name": "notRedeemed",
          "type": "bool"
        }
      ],
      "stateMutability": "view",
      "type": "function"
    },
    {
      "inputs": [],
      "name": "getAllBanks",
      "outputs": [
        {
          "components": [
            {
              "internalType": "uint256",
              "name": "bank_id",
              "type": "uint256"
            },
            {
              "internalType": "string",
              "name": "name",
              "type": "string"
            },
            {
              "internalType": "string",
              "name": "extension",
              "type": "string"
            },
            {
              "internalType": "string",
              "name": "bank_address",
              "type": "string"
            }
          ],
          "internalType": "struct CBDCCoin.BankDetails[]",
          "name": "bankList",
          "type": "tuple[]"
        }
      ],
      "stateMutability": "view",
      "type": "function"
    },
    {
      "inputs": [],
      "name": "getAllToken",
      "outputs": [
        {
          "components": [
            {
              "internalType": "uint256",
              "name": "token_id",
              "type": "uint256"
            },
            {
              "internalType": "string",
              "name": "name",
              "type": "string"
            },
            {
              "internalType": "string",
              "name": "symbol",
              "type": "string"
            },
            {
              "internalType": "uint256",
              "name": "supply",
              "type": "uint256"
            }
          ],
          "internalType": "struct CBDCCoin.Tokens[]",
          "name": "allTokens",
          "type": "tuple[]"
        }
      ],
      "stateMutability": "view",
      "type": "function"
    },
    {
      "inputs": [
        {
          "internalType": "address",
          "name": "bankAddress",
          "type": "address"
        }
      ],
      "name": "getAllUserFromBankAddress",
      "outputs": [
        {
          "components": [
            {
              "internalType": "address",
              "name": "userAddress",
              "type": "address"
            },
            {
              "internalType": "address",
              "name": "creatorAddress",
              "type": "address"
            },
            {
              "internalType": "string",
              "name": "name",
              "type": "string"
            },
            {
              "internalType": "string",
              "name": "iddata",
              "type": "string"
            },
            {
              "internalType": "uint256",
              "name": "idnum",
              "type": "uint256"
            }
          ],
          "internalType": "struct CBDCCoin.AccountInfo[]",
          "name": "info",
          "type": "tuple[]"
        }
      ],
      "stateMutability": "view",
      "type": "function"
    },
    {
      "inputs": [
        {
          "internalType": "address",
          "name": "_bankAddr",
          "type": "address"
        }
      ],
      "name": "invalidateBankAddress",
      "outputs": [
        {
          "internalType": "bool",
          "name": "success",
          "type": "bool"
        }
      ],
      "stateMutability": "nonpayable",
      "type": "function"
    },
    {
      "inputs": [
        {
          "internalType": "address",
          "name": "_addr",
          "type": "address"
        }
      ],
      "name": "invalidateUserAddress",
      "outputs": [
        {
          "internalType": "bool",
          "name": "success",
          "type": "bool"
        }
      ],
      "stateMutability": "nonpayable",
      "type": "function"
    },
    {
      "inputs": [
        {
          "internalType": "uint256",
          "name": "_id",
          "type": "uint256"
        },
        {
          "internalType": "uint256",
          "name": "_principal",
          "type": "uint256"
        }
      ],
      "name": "makeDeposit",
      "outputs": [
        {
          "internalType": "bool",
          "name": "success",
          "type": "bool"
        }
      ],
      "stateMutability": "payable",
      "type": "function"
    },
    {
      "inputs": [],
      "name": "name",
      "outputs": [
        {
          "internalType": "string",
          "name": "",
          "type": "string"
        }
      ],
      "stateMutability": "view",
      "type": "function"
    },
    {
      "inputs": [
        {
          "internalType": "uint256",
          "name": "_rate",
          "type": "uint256"
        },
        {
          "internalType": "uint256",
          "name": "_timeperiod",
          "type": "uint256"
        },
        {
          "internalType": "uint256",
          "name": "_maxDepositAmt",
          "type": "uint256"
        }
      ],
      "name": "offerDeposit",
      "outputs": [
        {
          "internalType": "bool",
          "name": "success",
          "type": "bool"
        }
      ],
      "stateMutability": "nonpayable",
      "type": "function"
    },
    {
      "inputs": [
        {
          "internalType": "uint256",
          "name": "_id",
          "type": "uint256"
        }
      ],
      "name": "receiveBack",
      "outputs": [
        {
          "internalType": "bool",
          "name": "success",
          "type": "bool"
        }
      ],
      "stateMutability": "payable",
      "type": "function"
    },
    {
      "inputs": [
        {
          "internalType": "address",
          "name": "_addr",
          "type": "address"
        }
      ],
      "name": "setValidAddress",
      "outputs": [
        {
          "internalType": "bool",
          "name": "success",
          "type": "bool"
        }
      ],
      "stateMutability": "nonpayable",
      "type": "function"
    },
    {
      "inputs": [],
      "name": "standard",
      "outputs": [
        {
          "internalType": "string",
          "name": "",
          "type": "string"
        }
      ],
      "stateMutability": "view",
      "type": "function"
    },
    {
      "inputs": [],
      "name": "symbol",
      "outputs": [
        {
          "internalType": "string",
          "name": "",
          "type": "string"
        }
      ],
      "stateMutability": "view",
      "type": "function"
    },
    {
      "inputs": [
        {
          "internalType": "uint256",
          "name": "",
          "type": "uint256"
        }
      ],
      "name": "tokens",
      "outputs": [
        {
          "internalType": "uint256",
          "name": "token_id",
          "type": "uint256"
        },
        {
          "internalType": "string",
          "name": "name",
          "type": "string"
        },
        {
          "internalType": "string",
          "name": "symbol",
          "type": "string"
        },
        {
          "internalType": "uint256",
          "name": "supply",
          "type": "uint256"
        }
      ],
      "stateMutability": "view",
      "type": "function"
    },
    {
      "inputs": [],
      "name": "totalSupply",
      "outputs": [
        {
          "internalType": "uint256",
          "name": "",
          "type": "uint256"
        }
      ],
      "stateMutability": "view",
      "type": "function"
    },
    {
      "inputs": [
        {
          "internalType": "address",
          "name": "_to",
          "type": "address"
        },
        {
          "internalType": "uint256",
          "name": "_value",
          "type": "uint256"
        }
      ],
      "name": "transfer",
      "outputs": [
        {
          "internalType": "bool",
          "name": "success",
          "type": "bool"
        }
      ],
      "stateMutability": "nonpayable",
      "type": "function"
    },
    {
      "inputs": [
        {
          "internalType": "address",
          "name": "_from",
          "type": "address"
        },
        {
          "internalType": "address",
          "name": "_to",
          "type": "address"
        },
        {
          "internalType": "uint256",
          "name": "_value",
          "type": "uint256"
        }
      ],
      "name": "transferFrom",
      "outputs": [
        {
          "internalType": "bool",
          "name": "success",
          "type": "bool"
        }
      ],
      "stateMutability": "nonpayable",
      "type": "function"
    },
    {
      "inputs": [],
      "name": "userAccountsNum",
      "outputs": [
        {
          "internalType": "uint256",
          "name": "",
          "type": "uint256"
        }
      ],
      "stateMutability": "view",
      "type": "function"
    },
    {
      "inputs": [
        {
          "internalType": "address",
          "name": "",
          "type": "address"
        }
      ],
      "name": "validAddresses",
      "outputs": [
        {
          "internalType": "bool",
          "name": "",
          "type": "bool"
        }
      ],
      "stateMutability": "view",
      "type": "function"
    },
    {
      "inputs": [
        {
          "internalType": "address",
          "name": "",
          "type": "address"
        }
      ],
      "name": "validBankAddresses",
      "outputs": [
        {
          "internalType": "bool",
          "name": "",
          "type": "bool"
        }
      ],
      "stateMutability": "view",
      "type": "function"
    }
  ],
  "bytecode": "0x60c0604052600860809081526721a12221a1b7b4b760c11b60a052600090620000299082620001be565b506040805180820190915260048152634342444360e01b6020820152600190620000549082620001be565b50604080518082019091526005815264045524332360dc1b6020820152600290620000809082620001be565b506000600555600060065560006007556000600855348015620000a257600080fd5b5060048054336001600160a01b031991821681178355600380549092169091556000908152601060205260409020805460ff191660011790555462000112906001600160a01b03166001600160a01b03166000908152600f60205260409020805460ff1916600190811790915590565b506200028a565b634e487b7160e01b600052604160045260246000fd5b600181811c908216806200014457607f821691505b6020821081036200016557634e487b7160e01b600052602260045260246000fd5b50919050565b601f821115620001b957600081815260208120601f850160051c81016020861015620001945750805b601f850160051c820191505b81811015620001b557828155600101620001a0565b5050505b505050565b81516001600160401b03811115620001da57620001da62000119565b620001f281620001eb84546200012f565b846200016b565b602080601f8311600181146200022a5760008415620002115750858301515b600019600386901b1c1916600185901b178555620001b5565b600085815260208120601f198616915b828110156200025b578886015182559484019460019091019084016200023a565b50858210156200027a5787850151600019600388901b60f8161c191681555b5050505050600190811b01905550565b613095806200029a6000396000f3fe6080604052600436106102195760003560e01c8063819bb29311610123578063b8661a3c116100ab578063dd62ed3e1161006f578063dd62ed3e14610754578063dd6f3c701461078c578063de8f641f146107bc578063df4dd219146107cf578063f3821da3146107ef57600080fd5b8063b8661a3c14610694578063b881ab5d146106b4578063b91e4087146106d4578063c6ed899014610704578063d90403801461072457600080fd5b8063a5ccd404116100f2578063a5ccd4041461050f578063a9059cbb1461052f578063a9f825b61461054f578063b02c43d01461056f578063b68f530d1461067457600080fd5b8063819bb2931461049657806385e3c1d4146104b6578063951c8a07146104d857806395d89b41146104fa57600080fd5b80632dfdf0b5116101a65780635b060530116101755780635b060530146103e25780636d1b229d1461040257806370a0823114610422578063736908621461044f5780637e24d1eb1461048057600080fd5b80632dfdf0b5146103745780633f0f40761461038a5780634f64b2be1461039d5780635a3b7e42146103cd57600080fd5b806318160ddd116101ed57806318160ddd146102cd57806323b872dd146102f157806327810b6e1461031157806328262f801461033157806329397d9e1461035e57600080fd5b806285ae2b1461021e57806302d05d3f1461025b57806306fdde031461027b578063095ea7b31461029d575b600080fd5b34801561022a57600080fd5b5061023e610239366004612730565b61080f565b6040516001600160a01b0390911681526020015b60405180910390f35b34801561026757600080fd5b5060045461023e906001600160a01b031681565b34801561028757600080fd5b50610290610839565b604051610252919061278f565b3480156102a957600080fd5b506102bd6102b83660046127b9565b6108c7565b6040519015158152602001610252565b3480156102d957600080fd5b506102e360055481565b604051908152602001610252565b3480156102fd57600080fd5b506102bd61030c3660046127e3565b610934565b34801561031d57600080fd5b5060035461023e906001600160a01b031681565b34801561033d57600080fd5b5061035161034c36600461281f565b610a74565b604051610252919061283a565b34801561036a57600080fd5b506102e360065481565b34801561038057600080fd5b506102e360085481565b6102bd6103983660046128ef565b610c3a565b3480156103a957600080fd5b506103bd6103b8366004612730565b610f82565b6040516102529493929190612911565b3480156103d957600080fd5b506102906110ce565b3480156103ee57600080fd5b506102bd6103fd366004612a1a565b6110db565b34801561040e57600080fd5b506102bd61041d366004612730565b6111c8565b34801561042e57600080fd5b506102e361043d36600461281f565b60126020526000908152604090205481565b34801561045b57600080fd5b5061046f61046a366004612730565b611201565b604051610252959493929190612a87565b34801561048c57600080fd5b506102e360075481565b3480156104a257600080fd5b506102bd6104b1366004612ad8565b61134d565b3480156104c257600080fd5b506104cb6114ac565b6040516102529190612baa565b3480156104e457600080fd5b506104ed611643565b6040516102529190612c38565b34801561050657600080fd5b50610290611859565b34801561051b57600080fd5b506102bd61052a36600461281f565b611866565b34801561053b57600080fd5b506102bd61054a3660046127b9565b611904565b34801561055b57600080fd5b5061046f61056a3660046127b9565b611a79565b34801561057b57600080fd5b5061060261058a366004612730565b601160205260009081526040902080546001820154600283015460038401546004850154600586015460068701546007880154600889015460098a0154600a8b0154600b909b0154999a6001600160a01b03998a169a9890991698969795969495939492939192909160ff808216916101009004168d565b604080519d8e526001600160a01b039c8d1660208f01529a909b16998c019990995260608b019790975260808a019590955260a089019390935260c088019190915260e0870152610100860152610120850152610140840152151561016083015215156101808201526101a001610252565b34801561068057600080fd5b506102bd61068f366004612cd6565b611ace565b3480156106a057600080fd5b506102bd6106af36600461281f565b611d17565b3480156106c057600080fd5b5061046f6106cf36600461281f565b611d3f565b3480156106e057600080fd5b506102bd6106ef36600461281f565b600f6020526000908152604090205460ff1681565b34801561071057600080fd5b506102bd61071f366004612730565b611d74565b34801561073057600080fd5b506102bd61073f36600461281f565b60106020526000908152604090205460ff1681565b34801561076057600080fd5b506102e361076f366004612d5b565b601360209081526000928352604080842090915290825290205481565b34801561079857600080fd5b506107ac6107a7366004612730565b611de7565b6040516102529493929190612d8e565b6102bd6107ca366004612730565b611fbb565b3480156107db57600080fd5b506102bd6107ea36600461281f565b6121ad565b3480156107fb57600080fd5b506102bd61080a366004612dd8565b61225c565b6009818154811061081f57600080fd5b6000918252602090912001546001600160a01b0316905081565b6000805461084690612e04565b80601f016020809104026020016040519081016040528092919081815260200182805461087290612e04565b80156108bf5780601f10610894576101008083540402835291602001916108bf565b820191906000526020600020905b8154815290600101906020018083116108a257829003601f168201915b505050505081565b3360008181526013602090815260408083206001600160a01b038716808552925280832085905551919290917f8c5be1e5ebec7d5bd14f71427d1e84f3dd0314c0f7b2291e5b200ac8c7c3b925906109229086815260200190565b60405180910390a35060015b92915050565b6001600160a01b03831660009081526012602052604081205482111561095957600080fd5b6001600160a01b038416600090815260136020908152604080832033845290915290205482111561098957600080fd5b6001600160a01b038416600090815260126020526040812080548492906109b1908490612e54565b90915550506001600160a01b038316600090815260126020526040812080548492906109de908490612e67565b90915550506001600160a01b038416600090815260136020908152604080832033845290915281208054849290610a16908490612e54565b92505081905550826001600160a01b0316846001600160a01b03167fddf252ad1be2c89b69c2b068fc378daa952ba7f163c4a11628f55a4df523b3ef84604051610a6291815260200190565b60405180910390a35060019392505050565b6001600160a01b0381166000908152600e60209081526040808320805482518185028101850190935280835260609492939192909184015b82821015610c2f5760008481526020908190206040805160a0810182526005860290920180546001600160a01b0390811684526001820154169383019390935260028301805492939291840191610b0290612e04565b80601f0160208091040260200160405190810160405280929190818152602001828054610b2e90612e04565b8015610b7b5780601f10610b5057610100808354040283529160200191610b7b565b820191906000526020600020905b815481529060010190602001808311610b5e57829003601f168201915b50505050508152602001600382018054610b9490612e04565b80601f0160208091040260200160405190810160405280929190818152602001828054610bc090612e04565b8015610c0d5780601f10610be257610100808354040283529160200191610c0d565b820191906000526020600020905b815481529060010190602001808311610bf057829003601f168201915b5050505050815260200160048201548152505081526020019060010190610aac565b505050509050919050565b336000908152600f602052604081205460ff161515600114610cb25760405162461bcd60e51b815260206004820152602660248201527f4465706f7369746f722061646472657373206973206e6f74207965742076616c6044820152651a59185d195960d21b60648201526084015b60405180910390fd5b33600090815260126020526040902054821115610d305760405162461bcd60e51b815260206004820152603660248201527f4465706f7369746f72206d75737420686176652073756666696369656e7420746044820152756f6b656e7320746f206d616b65206465706f7369747360501b6064820152608401610ca9565b600083815260116020526040902060060154821115610dac5760405162461bcd60e51b815260206004820152603260248201527f43616e6e6f74206d616b65206465706f73697420666f722076616c756520677260448201527119585d195c881d1a185b881bd999995c995960721b6064820152608401610ca9565b6000838152601160205260409020600b015460ff161515600114610e265760405162461bcd60e51b815260206004820152602b60248201527f43616e6e6f74206d616b65206465706f73697420746f20616e20756e6176616960448201526a6c61626c6520737461746560a81b6064820152608401610ca9565b60008381526011602052604090206001810180546001600160a01b031916331790556005810183905542600882015560040154610e6490603c612e7a565b600084815260116020526040902060080154610e809190612e67565b60008481526011602090815260408083206007810194909455600b8401805461ffff1916610100179055600290930154338352601290915291812080546001600160a01b0390931692859290610ed7908490612e54565b90915550506001600160a01b03811660009081526012602052604081208054859290610f04908490612e67565b909155505060008481526011602052604081206003810154600490910154610f3681610f3088856125cf565b906125cf565b9250610f43836064612658565b6000888152601160205260409020600901819055610f6290879061269a565b6000888152601160205260409020600a0155506001935050505092915050565b600a8181548110610f9257600080fd5b60009182526020909120600490910201805460018201805491935090610fb790612e04565b80601f0160208091040260200160405190810160405280929190818152602001828054610fe390612e04565b80156110305780601f1061100557610100808354040283529160200191611030565b820191906000526020600020905b81548152906001019060200180831161101357829003601f168201915b50505050509080600201805461104590612e04565b80601f016020809104026020016040519081016040528092919081815260200182805461107190612e04565b80156110be5780601f10611093576101008083540402835291602001916110be565b820191906000526020600020905b8154815290600101906020018083116110a157829003601f168201915b5050505050908060030154905084565b6002805461084690612e04565b6004546000906001600160a01b031633146111085760405162461bcd60e51b8152600401610ca990612e91565b604080516080810182524281526020810186815291810185905260608101849052600a8054600181018255600091909152815160049091027fc65a7bb8d6351c1cf70c95a316cc6a92839c986682d98bc35f958f4883f9d2a881019182559251919290917fc65a7bb8d6351c1cf70c95a316cc6a92839c986682d98bc35f958f4883f9d2a99091019061119b9082612f2e565b50604082015160028201906111b09082612f2e565b50606082015181600301555050600190509392505050565b6003546000906111e1906001600160a01b031683611904565b5081600560008282546111f49190612e54565b9091555060019392505050565b600c602052600090815260409020805460018201546002830180546001600160a01b0393841694929093169261123690612e04565b80601f016020809104026020016040519081016040528092919081815260200182805461126290612e04565b80156112af5780601f10611284576101008083540402835291602001916112af565b820191906000526020600020905b81548152906001019060200180831161129257829003601f168201915b5050505050908060030180546112c490612e04565b80601f01602080910402602001604051908101604052809291908181526020018280546112f090612e04565b801561133d5780601f106113125761010080835404028352916020019161133d565b820191906000526020600020905b81548152906001019060200180831161132057829003601f168201915b5050505050908060040154905085565b6004546000906001600160a01b0316331461137a5760405162461bcd60e51b8152600401610ca990612e91565b6009805460018101825560009182527f6e1540171b6c0c960b71a7020d9f60077f6af931a8bbf590da0223dacf75c7af0180546001600160a01b0319166001600160a01b03861617905560078054916113d283612fee565b90915550506001600160a01b0383166000908152601060205260409020805460ff1916600117905561140383611d17565b50600b8054600181018255600091909152825160049091027f0175b7a638427703f0dbe7bb9bbf987a2551717b34e79f33b5b1008d1fa01db9810191825560208401518492917f0175b7a638427703f0dbe7bb9bbf987a2551717b34e79f33b5b1008d1fa01dba01906114769082612f2e565b506040820151600282019061148b9082612f2e565b50606082015160038201906114a09082612f2e565b50600195945050505050565b6060600a805480602002602001604051908101604052809291908181526020016000905b8282101561163a57838290600052602060002090600402016040518060800160405290816000820154815260200160018201805461150d90612e04565b80601f016020809104026020016040519081016040528092919081815260200182805461153990612e04565b80156115865780601f1061155b57610100808354040283529160200191611586565b820191906000526020600020905b81548152906001019060200180831161156957829003601f168201915b5050505050815260200160028201805461159f90612e04565b80601f01602080910402602001604051908101604052809291908181526020018280546115cb90612e04565b80156116185780601f106115ed57610100808354040283529160200191611618565b820191906000526020600020905b8154815290600101906020018083116115fb57829003601f168201915b50505050508152602001600382015481525050815260200190600101906114d0565b50505050905090565b6060600b805480602002602001604051908101604052809291908181526020016000905b8282101561163a5783829060005260206000209060040201604051806080016040529081600082015481526020016001820180546116a490612e04565b80601f01602080910402602001604051908101604052809291908181526020018280546116d090612e04565b801561171d5780601f106116f25761010080835404028352916020019161171d565b820191906000526020600020905b81548152906001019060200180831161170057829003601f168201915b5050505050815260200160028201805461173690612e04565b80601f016020809104026020016040519081016040528092919081815260200182805461176290612e04565b80156117af5780601f10611784576101008083540402835291602001916117af565b820191906000526020600020905b81548152906001019060200180831161179257829003601f168201915b505050505081526020016003820180546117c890612e04565b80601f01602080910402602001604051908101604052809291908181526020018280546117f490612e04565b80156118415780601f1061181657610100808354040283529160200191611841565b820191906000526020600020905b81548152906001019060200180831161182457829003601f168201915b50505050508152505081526020019060010190611667565b6001805461084690612e04565b6004546000906001600160a01b031633146118df5760405162461bcd60e51b815260206004820152603360248201527f4f6e6c79207468652063656e7472616c2062616e6b2063616e20696e76616c69604482015272646174652062616e6b2061646472657373657360681b6064820152608401610ca9565b506001600160a01b03166000908152601060205260409020805460ff19169055600190565b336000908152601260205260408120548211156119725760405162461bcd60e51b815260206004820152602660248201527f53656e64657220646f65736e277420686176652073756666696369656e742062604482015265616c616e636560d01b6064820152608401610ca9565b6001600160a01b0383166000908152600f602052604090205460ff1615156001146119eb5760405162461bcd60e51b815260206004820152602360248201527f546f2061646472657373206973206e6f742076616c696461746564206164647260448201526265737360e81b6064820152608401610ca9565b3360009081526012602052604081208054849290611a0a908490612e54565b90915550506001600160a01b03831660009081526012602052604081208054849290611a37908490612e67565b90915550506040518281526001600160a01b0384169033907fddf252ad1be2c89b69c2b068fc378daa952ba7f163c4a11628f55a4df523b3ef90602001610922565b600e6020528160005260406000208181548110611a9557600080fd5b60009182526020909120600590910201805460018201546002830180546001600160a01b03938416965091909216935061123690612e04565b3360009081526010602052604081205460ff161515600114611b4d5760405162461bcd60e51b815260206004820152603260248201527f4f6e6c7920612076616c69642062616e6b20616464726573732063616e206372604482015271656174652075736572206163636f756e747360701b6064820152608401610ca9565b60068054906000611b5d83612fee565b90915550506040805160a0810182526001600160a01b03808816825233602080840191825283850188815260608501889052600654608086018190526000908152600c909252949020835181549084166001600160a01b031991821617825591516001820180549190941692169190911790915591519091906002820190611be59082612f2e565b5060608201516003820190611bfa9082612f2e565b506080918201516004909101556001600160a01b038086166000908152600e60209081526040808320815160a0810183528b86168152338185019081529281018a8152606082018a90526006549782019790975281546001818101845592865293909420845160059094020180549386166001600160a01b0319948516178155915190820180549190951692169190911790925591516002820190611c9f9082612f2e565b5060608201516003820190611cb49082612f2e565b50608082015181600401555050336001600160a01b0316856001600160a01b03167f95da2ee7bf5870679d6aec59b7360b2cd943ea903b9024a9a2162c07a42685af8585600654604051611d0a93929190613007565b60405180910390a36114a0855b6001600160a01b03166000908152600f60205260409020805460ff1916600190811790915590565b600d602052600090815260409020805460018201546002830180546001600160a01b0393841694929093169261123690612e04565b6004546000906001600160a01b03163314611da15760405162461bcd60e51b8152600401610ca990612e91565b8160056000828254611db39190612e67565b90915550506004546001600160a01b0316600090815260126020526040812080548492906111f4908490612e67565b919050565b600b8181548110611df757600080fd5b60009182526020909120600490910201805460018201805491935090611e1c90612e04565b80601f0160208091040260200160405190810160405280929190818152602001828054611e4890612e04565b8015611e955780601f10611e6a57610100808354040283529160200191611e95565b820191906000526020600020905b815481529060010190602001808311611e7857829003601f168201915b505050505090806002018054611eaa90612e04565b80601f0160208091040260200160405190810160405280929190818152602001828054611ed690612e04565b8015611f235780601f10611ef857610100808354040283529160200191611f23565b820191906000526020600020905b815481529060010190602001808311611f0657829003601f168201915b505050505090806003018054611f3890612e04565b80601f0160208091040260200160405190810160405280929190818152602001828054611f6490612e04565b8015611fb15780601f10611f8657610100808354040283529160200191611fb1565b820191906000526020600020905b815481529060010190602001808311611f9457829003601f168201915b5050505050905084565b60008181526011602052604081206007015442101561201c5760405162461bcd60e51b815260206004820181905260248201527f526564656d7074696f6e2074696d6520686173206e6f7420726561636865642e6044820152606401610ca9565b6000828152601160205260409020600101546001600160a01b031633146120975760405162461bcd60e51b815260206004820152602960248201527f43616c6c206261636b206973206f6e6c7920616c6c6f7765642066726f6d206460448201526832b837b9b4ba37b91760b91b6064820152608401610ca9565b6000828152601160205260409020600b015460ff6101009091041615156001146121155760405162461bcd60e51b815260206004820152602960248201527f526564656d7074696f6e2073686f756c64206e6f742068617665206265656e2060448201526836b0b232903cb2ba1760b91b6064820152608401610ca9565b6000828152601160209081526040808320600a8101546002909101543385526012909352908320805491936001600160a01b03909316928492612159908490612e67565b90915550506001600160a01b03811660009081526012602052604081208054849290612186908490612e54565b90915550505060009283525050601160205260409020600b01805461ff0019169055600190565b3360009081526010602052604081205460ff1615156001146122375760405162461bcd60e51b815260206004820152603760248201527f4f6e6c7920612062616e6b206f722063656e7472616c2062616e6b2063616e2060448201527f696e76616c6964617465207573657220616464726573730000000000000000006064820152608401610ca9565b506001600160a01b03166000908152600f60205260409020805460ff19169055600190565b336000908152600f602052604081205460ff1615156001146122d15760405162461bcd60e51b815260206004820152602860248201527f536572766963652070726f7669646572206d75737420626520612076616c6964604482015267206164647265737360c01b6064820152608401610ca9565b3360009081526012602052604090205482111561233e5760405162461bcd60e51b815260206004820152602560248201527f50726f766964657220646f65736e27742068617665206d696e696d756d2062616044820152646c616e636560d81b6064820152608401610ca9565b6008805490600061234e83612fee565b9190505550604051806101a00160405280600854815260200160006001600160a01b0316815260200160006001600160a01b031681526020016000815260200160008152602001600081526020016000815260200160008152602001600081526020016000815260200160008152602001600015158152602001600015158152506011600060085481526020019081526020016000206000820151816000015560208201518160010160006101000a8154816001600160a01b0302191690836001600160a01b0316021790555060408201518160020160006101000a8154816001600160a01b0302191690836001600160a01b03160217905550606082015181600301556080820151816004015560a0820151816005015560c0820151816006015560e082015181600701556101008201518160080155610120820151816009015561014082015181600a015561016082015181600b0160006101000a81548160ff02191690831515021790555061018082015181600b0160016101000a81548160ff021916908315150217905550905050600854601160006008548152602001908152602001600020600001819055503360116000600854815260200190815260200160002060020160006101000a8154816001600160a01b0302191690836001600160a01b031602179055508360116000600854815260200190815260200160002060030181905550826011600060085481526020019081526020016000206004018190555081601160006008548152602001908152602001600020600601819055506001601160006008548152602001908152602001600020600b0160006101000a81548160ff021916908315150217905550600190509392505050565b6000826000036125e15750600061092e565b60006125ed8385612e7a565b9050826125fa858361303d565b146126515760405162461bcd60e51b815260206004820152602160248201527f536166654d6174683a206d756c7469706c69636174696f6e206f766572666c6f6044820152607760f81b6064820152608401610ca9565b9392505050565b600061265183836040518060400160405280601a81526020017f536166654d6174683a206469766973696f6e206279207a65726f0000000000008152506126f9565b6000806126a78385612e67565b9050838110156126515760405162461bcd60e51b815260206004820152601b60248201527f536166654d6174683a206164646974696f6e206f766572666c6f7700000000006044820152606401610ca9565b6000818361271a5760405162461bcd60e51b8152600401610ca9919061278f565b506000612727848661303d565b95945050505050565b60006020828403121561274257600080fd5b5035919050565b6000815180845260005b8181101561276f57602081850181015186830182015201612753565b506000602082860101526020601f19601f83011685010191505092915050565b6020815260006126516020830184612749565b80356001600160a01b0381168114611de257600080fd5b600080604083850312156127cc57600080fd5b6127d5836127a2565b946020939093013593505050565b6000806000606084860312156127f857600080fd5b612801846127a2565b925061280f602085016127a2565b9150604084013590509250925092565b60006020828403121561283157600080fd5b612651826127a2565b60006020808301818452808551808352604092508286019150828160051b87010184880160005b838110156128e157888303603f19018552815180516001600160a01b0390811685528882015116888501528681015160a0888601819052906128a582870182612749565b915050606080830151868303828801526128bf8382612749565b6080948501519790940196909652505094870194925090860190600101612861565b509098975050505050505050565b6000806040838503121561290257600080fd5b50508035926020909101359150565b84815260806020820152600061292a6080830186612749565b828103604084015261293c8186612749565b91505082606083015295945050505050565b634e487b7160e01b600052604160045260246000fd5b6040516080810167ffffffffffffffff811182821017156129875761298761294e565b60405290565b600082601f83011261299e57600080fd5b813567ffffffffffffffff808211156129b9576129b961294e565b604051601f8301601f19908116603f011681019082821181831017156129e1576129e161294e565b816040528381528660208588010111156129fa57600080fd5b836020870160208301376000602085830101528094505050505092915050565b600080600060608486031215612a2f57600080fd5b833567ffffffffffffffff80821115612a4757600080fd5b612a538783880161298d565b94506020860135915080821115612a6957600080fd5b50612a768682870161298d565b925050604084013590509250925092565b6001600160a01b0386811682528516602082015260a060408201819052600090612ab390830186612749565b8281036060840152612ac58186612749565b9150508260808301529695505050505050565b60008060408385031215612aeb57600080fd5b612af4836127a2565b9150602083013567ffffffffffffffff80821115612b1157600080fd5b9084019060808287031215612b2557600080fd5b612b2d612964565b82358152602083013582811115612b4357600080fd5b612b4f8882860161298d565b602083015250604083013582811115612b6757600080fd5b612b738882860161298d565b604083015250606083013582811115612b8b57600080fd5b612b978882860161298d565b6060830152508093505050509250929050565b60006020808301818452808551808352604092508286019150828160051b87010184880160005b838110156128e157603f19898403018552815160808151855288820151818a870152612bff82870182612749565b9150508782015185820389870152612c178282612749565b60609384015196909301959095525094870194925090860190600101612bd1565b60006020808301818452808551808352604092508286019150828160051b87010184880160005b838110156128e157603f19898403018552815160808151855288820151818a870152612c8d82870182612749565b9150508782015185820389870152612ca58282612749565b91505060608083015192508582038187015250612cc28183612749565b968901969450505090860190600101612c5f565b60008060008060808587031215612cec57600080fd5b612cf5856127a2565b9350612d03602086016127a2565b9250604085013567ffffffffffffffff80821115612d2057600080fd5b612d2c8883890161298d565b93506060870135915080821115612d4257600080fd5b50612d4f8782880161298d565b91505092959194509250565b60008060408385031215612d6e57600080fd5b612d77836127a2565b9150612d85602084016127a2565b90509250929050565b848152608060208201526000612da76080830186612749565b8281036040840152612db98186612749565b90508281036060840152612dcd8185612749565b979650505050505050565b600080600060608486031215612ded57600080fd5b505081359360208301359350604090920135919050565b600181811c90821680612e1857607f821691505b602082108103612e3857634e487b7160e01b600052602260045260246000fd5b50919050565b634e487b7160e01b600052601160045260246000fd5b8181038181111561092e5761092e612e3e565b8082018082111561092e5761092e612e3e565b808202811582820484141761092e5761092e612e3e565b6020808252602e908201527f4f6e6c792063726561746f722f696e766f6b657220697320616c6c6f7765642060408201526d37b3103a3434b99030b1ba34b7b760911b606082015260800190565b601f821115612f2957600081815260208120601f850160051c81016020861015612f065750805b601f850160051c820191505b81811015612f2557828155600101612f12565b5050505b505050565b815167ffffffffffffffff811115612f4857612f4861294e565b612f5c81612f568454612e04565b84612edf565b602080601f831160018114612f915760008415612f795750858301515b600019600386901b1c1916600185901b178555612f25565b600085815260208120601f198616915b82811015612fc057888601518255948401946001909101908401612fa1565b5085821015612fde5787850151600019600388901b60f8161c191681555b5050505050600190811b01905550565b60006001820161300057613000612e3e565b5060010190565b60608152600061301a6060830186612749565b828103602084015261302c8186612749565b915050826040830152949350505050565b60008261305a57634e487b7160e01b600052601260045260246000fd5b50049056fea2646970667358221220dbc2115512c12a470b20b147bf03fa4eb2a9ff8abf3be34cd34a2329b5fb45ae64736f6c63430008140033",
  "linkReferences": {},
  "deployedLinkReferences": {}
}