{
  "_format": "hh-sol-artifact-1",
  "contractName": "CBDCCoin",
  "sourceName": "contracts/cbdccoin.sol",
  "abi": [
    {
      "inputs": [],
      "stateMutability": "nonpayable",
      "type": "constructor"
    },
    {
      "anonymous": false,
      "inputs": [
        {
          "indexed": true,
          "internalType": "address",
          "name": "_owner",
          "type": "address"
        },
        {
          "indexed": true,
          "internalType": "address",
          "name": "_spender",
          "type": "address"
        },
        {
          "indexed": false,
          "internalType": "uint256",
          "name": "_value",
          "type": "uint256"
        }
      ],
      "name": "Approval",
      "type": "event"
    },
    {
      "anonymous": false,
      "inputs": [
        {
          "indexed": true,
          "internalType": "address",
          "name": "requester",
          "type": "address"
        },
        {
          "indexed": false,
          "internalType": "uint256",
          "name": "tokens",
          "type": "uint256"
        }
      ],
      "name": "TokensIssued",
      "type": "event"
    },
    {
      "anonymous": false,
      "inputs": [
        {
          "indexed": true,
          "internalType": "address",
          "name": "requester",
          "type": "address"
        },
        {
          "indexed": false,
          "internalType": "uint256",
          "name": "tokens",
          "type": "uint256"
        }
      ],
      "name": "TokensRequested",
      "type": "event"
    },
    {
      "anonymous": false,
      "inputs": [
        {
          "indexed": true,
          "internalType": "address",
          "name": "_from",
          "type": "address"
        },
        {
          "indexed": true,
          "internalType": "address",
          "name": "_to",
          "type": "address"
        },
        {
          "indexed": false,
          "internalType": "uint256",
          "name": "_value",
          "type": "uint256"
        }
      ],
      "name": "Transfer",
      "type": "event"
    },
    {
      "anonymous": false,
      "inputs": [
        {
          "indexed": true,
          "internalType": "address",
          "name": "_userAddress",
          "type": "address"
        },
        {
          "indexed": true,
          "internalType": "address",
          "name": "_creatorAddress",
          "type": "address"
        },
        {
          "indexed": false,
          "internalType": "string",
          "name": "_name",
          "type": "string"
        },
        {
          "indexed": false,
          "internalType": "string",
          "name": "_iddata",
          "type": "string"
        },
        {
          "indexed": false,
          "internalType": "uint256",
          "name": "_idnum",
          "type": "uint256"
        }
      ],
      "name": "UserAccountCreated",
      "type": "event"
    },
    {
      "inputs": [
        {
          "internalType": "address",
          "name": "",
          "type": "address"
        }
      ],
      "name": "accountDetailsByAddr",
      "outputs": [
        {
          "internalType": "address",
          "name": "userAddress",
          "type": "address"
        },
        {
          "internalType": "address",
          "name": "creatorAddress",
          "type": "address"
        },
        {
          "internalType": "string",
          "name": "name",
          "type": "string"
        },
        {
          "internalType": "string",
          "name": "iddata",
          "type": "string"
        },
        {
          "internalType": "uint256",
          "name": "idnum",
          "type": "uint256"
        }
      ],
      "stateMutability": "view",
      "type": "function"
    },
    {
      "inputs": [
        {
          "internalType": "address",
          "name": "",
          "type": "address"
        },
        {
          "internalType": "uint256",
          "name": "",
          "type": "uint256"
        }
      ],
      "name": "accountDetailsByBankId",
      "outputs": [
        {
          "internalType": "address",
          "name": "userAddress",
          "type": "address"
        },
        {
          "internalType": "address",
          "name": "creatorAddress",
          "type": "address"
        },
        {
          "internalType": "string",
          "name": "name",
          "type": "string"
        },
        {
          "internalType": "string",
          "name": "iddata",
          "type": "string"
        },
        {
          "internalType": "uint256",
          "name": "idnum",
          "type": "uint256"
        }
      ],
      "stateMutability": "view",
      "type": "function"
    },
    {
      "inputs": [
        {
          "internalType": "uint256",
          "name": "",
          "type": "uint256"
        }
      ],
      "name": "accountDetailsById",
      "outputs": [
        {
          "internalType": "address",
          "name": "userAddress",
          "type": "address"
        },
        {
          "internalType": "address",
          "name": "creatorAddress",
          "type": "address"
        },
        {
          "internalType": "string",
          "name": "name",
          "type": "string"
        },
        {
          "internalType": "string",
          "name": "iddata",
          "type": "string"
        },
        {
          "internalType": "uint256",
          "name": "idnum",
          "type": "uint256"
        }
      ],
      "stateMutability": "view",
      "type": "function"
    },
    {
      "inputs": [
        {
          "internalType": "address",
          "name": "_bankAddr",
          "type": "address"
        },
        {
          "components": [
            {
              "internalType": "uint256",
              "name": "bank_id",
              "type": "uint256"
            },
            {
              "internalType": "string",
              "name": "name",
              "type": "string"
            },
            {
              "internalType": "string",
              "name": "extension",
              "type": "string"
            },
            {
              "internalType": "string",
              "name": "bank_address",
              "type": "string"
            }
          ],
          "internalType": "struct CBDCCoin.BankDetails",
          "name": "details",
          "type": "tuple"
        }
      ],
      "name": "addBank",
      "outputs": [
        {
          "internalType": "bool",
          "name": "success",
          "type": "bool"
        }
      ],
      "stateMutability": "nonpayable",
      "type": "function"
    },
    {
      "inputs": [
        {
          "internalType": "uint256",
          "name": "_quantity",
          "type": "uint256"
        }
      ],
      "name": "addTokens",
      "outputs": [
        {
          "internalType": "bool",
          "name": "success",
          "type": "bool"
        }
      ],
      "stateMutability": "nonpayable",
      "type": "function"
    },
    {
      "inputs": [
        {
          "internalType": "address",
          "name": "_userAddress",
          "type": "address"
        },
        {
          "internalType": "address",
          "name": "_bankAddress",
          "type": "address"
        },
        {
          "internalType": "string",
          "name": "_name",
          "type": "string"
        },
        {
          "internalType": "string",
          "name": "_iddata",
          "type": "string"
        }
      ],
      "name": "addUserAddressInfo",
      "outputs": [
        {
          "internalType": "bool",
          "name": "success",
          "type": "bool"
        }
      ],
      "stateMutability": "nonpayable",
      "type": "function"
    },
    {
      "inputs": [
        {
          "internalType": "address",
          "name": "",
          "type": "address"
        },
        {
          "internalType": "uint256",
          "name": "",
          "type": "uint256"
        }
      ],
      "name": "addressBankList",
      "outputs": [
        {
          "internalType": "uint256",
          "name": "bank_id",
          "type": "uint256"
        },
        {
          "internalType": "string",
          "name": "name",
          "type": "string"
        },
        {
          "internalType": "string",
          "name": "extension",
          "type": "string"
        },
        {
          "internalType": "string",
          "name": "bank_address",
          "type": "string"
        }
      ],
      "stateMutability": "view",
      "type": "function"
    },
    {
      "inputs": [
        {
          "internalType": "address",
          "name": "",
          "type": "address"
        }
      ],
      "name": "addressTokens",
      "outputs": [
        {
          "internalType": "uint256",
          "name": "token_id",
          "type": "uint256"
        },
        {
          "internalType": "string",
          "name": "name",
          "type": "string"
        },
        {
          "internalType": "string",
          "name": "symbol",
          "type": "string"
        },
        {
          "internalType": "uint256",
          "name": "supply",
          "type": "uint256"
        }
      ],
      "stateMutability": "view",
      "type": "function"
    },
    {
      "inputs": [
        {
          "internalType": "address",
          "name": "",
          "type": "address"
        },
        {
          "internalType": "address",
          "name": "",
          "type": "address"
        }
      ],
      "name": "allowance",
      "outputs": [
        {
          "internalType": "uint256",
          "name": "",
          "type": "uint256"
        }
      ],
      "stateMutability": "view",
      "type": "function"
    },
    {
      "inputs": [
        {
          "internalType": "address",
          "name": "_spender",
          "type": "address"
        },
        {
          "internalType": "uint256",
          "name": "_value",
          "type": "uint256"
        }
      ],
      "name": "approve",
      "outputs": [
        {
          "internalType": "bool",
          "name": "success",
          "type": "bool"
        }
      ],
      "stateMutability": "nonpayable",
      "type": "function"
    },
    {
      "inputs": [
        {
          "internalType": "address",
          "name": "_requester",
          "type": "address"
        }
      ],
      "name": "approveTokens",
      "outputs": [
        {
          "internalType": "bool",
          "name": "success",
          "type": "bool"
        }
      ],
      "stateMutability": "nonpayable",
      "type": "function"
    },
    {
      "inputs": [
        {
          "internalType": "address",
          "name": "",
          "type": "address"
        }
      ],
      "name": "balanceOf",
      "outputs": [
        {
          "internalType": "uint256",
          "name": "",
          "type": "uint256"
        }
      ],
      "stateMutability": "view",
      "type": "function"
    },
    {
      "inputs": [],
      "name": "bankNum",
      "outputs": [
        {
          "internalType": "uint256",
          "name": "",
          "type": "uint256"
        }
      ],
      "stateMutability": "view",
      "type": "function"
    },
    {
      "inputs": [
        {
          "internalType": "uint256",
          "name": "",
          "type": "uint256"
        }
      ],
      "name": "banks",
      "outputs": [
        {
          "internalType": "address",
          "name": "",
          "type": "address"
        }
      ],
      "stateMutability": "view",
      "type": "function"
    },
    {
      "inputs": [
        {
          "internalType": "uint256",
          "name": "_quantity",
          "type": "uint256"
        }
      ],
      "name": "burnTokens",
      "outputs": [
        {
          "internalType": "bool",
          "name": "success",
          "type": "bool"
        }
      ],
      "stateMutability": "nonpayable",
      "type": "function"
    },
    {
      "inputs": [],
      "name": "burner",
      "outputs": [
        {
          "internalType": "address",
          "name": "",
          "type": "address"
        }
      ],
      "stateMutability": "view",
      "type": "function"
    },
    {
      "inputs": [],
      "name": "centralBank",
      "outputs": [
        {
          "internalType": "uint256",
          "name": "",
          "type": "uint256"
        }
      ],
      "stateMutability": "view",
      "type": "function"
    },
    {
      "inputs": [
        {
          "internalType": "uint256",
          "name": "",
          "type": "uint256"
        }
      ],
      "name": "centralBankList",
      "outputs": [
        {
          "internalType": "address",
          "name": "smart_contract_address",
          "type": "address"
        },
        {
          "internalType": "address",
          "name": "bank_user_address",
          "type": "address"
        },
        {
          "internalType": "uint256",
          "name": "token_supply",
          "type": "uint256"
        },
        {
          "internalType": "string",
          "name": "token_name",
          "type": "string"
        },
        {
          "internalType": "string",
          "name": "token_symbol",
          "type": "string"
        }
      ],
      "stateMutability": "view",
      "type": "function"
    },
    {
      "inputs": [
        {
          "internalType": "string",
          "name": "_name",
          "type": "string"
        },
        {
          "internalType": "string",
          "name": "_symbol",
          "type": "string"
        },
        {
          "internalType": "uint256",
          "name": "_initialSupply",
          "type": "uint256"
        },
        {
          "components": [
            {
              "internalType": "address",
              "name": "smart_contract_address",
              "type": "address"
            },
            {
              "internalType": "address",
              "name": "bank_user_address",
              "type": "address"
            },
            {
              "internalType": "uint256",
              "name": "token_supply",
              "type": "uint256"
            },
            {
              "internalType": "string",
              "name": "token_name",
              "type": "string"
            },
            {
              "internalType": "string",
              "name": "token_symbol",
              "type": "string"
            }
          ],
          "internalType": "struct CBDCCoin.CentralBankDetails",
          "name": "bankDetails",
          "type": "tuple"
        }
      ],
      "name": "createToken",
      "outputs": [
        {
          "internalType": "bool",
          "name": "success",
          "type": "bool"
        }
      ],
      "stateMutability": "nonpayable",
      "type": "function"
    },
    {
      "inputs": [],
      "name": "creator",
      "outputs": [
        {
          "internalType": "address",
          "name": "",
          "type": "address"
        }
      ],
      "stateMutability": "view",
      "type": "function"
    },
    {
      "inputs": [],
      "name": "depositCount",
      "outputs": [
        {
          "internalType": "uint256",
          "name": "",
          "type": "uint256"
        }
      ],
      "stateMutability": "view",
      "type": "function"
    },
    {
      "inputs": [
        {
          "internalType": "uint256",
          "name": "",
          "type": "uint256"
        }
      ],
      "name": "deposits",
      "outputs": [
        {
          "internalType": "uint256",
          "name": "id",
          "type": "uint256"
        },
        {
          "internalType": "address payable",
          "name": "depositor",
          "type": "address"
        },
        {
          "internalType": "address payable",
          "name": "provider",
          "type": "address"
        },
        {
          "internalType": "uint256",
          "name": "rate",
          "type": "uint256"
        },
        {
          "internalType": "uint256",
          "name": "timeperiod",
          "type": "uint256"
        },
        {
          "internalType": "uint256",
          "name": "principal",
          "type": "uint256"
        },
        {
          "internalType": "uint256",
          "name": "maxDepositAmt",
          "type": "uint256"
        },
        {
          "internalType": "uint256",
          "name": "endtime",
          "type": "uint256"
        },
        {
          "internalType": "uint256",
          "name": "starttime",
          "type": "uint256"
        },
        {
          "internalType": "uint256",
          "name": "interest",
          "type": "uint256"
        },
        {
          "internalType": "uint256",
          "name": "amt",
          "type": "uint256"
        },
        {
          "internalType": "bool",
          "name": "isAvailable",
          "type": "bool"
        },
        {
          "internalType": "bool",
          "name": "notRedeemed",
          "type": "bool"
        }
      ],
      "stateMutability": "view",
      "type": "function"
    },
    {
      "inputs": [
        {
          "internalType": "address",
          "name": "bank_address",
          "type": "address"
        }
      ],
      "name": "getAllBanks",
      "outputs": [
        {
          "components": [
            {
              "internalType": "uint256",
              "name": "bank_id",
              "type": "uint256"
            },
            {
              "internalType": "string",
              "name": "name",
              "type": "string"
            },
            {
              "internalType": "string",
              "name": "extension",
              "type": "string"
            },
            {
              "internalType": "string",
              "name": "bank_address",
              "type": "string"
            }
          ],
          "internalType": "struct CBDCCoin.BankDetails[]",
          "name": "bankList",
          "type": "tuple[]"
        }
      ],
      "stateMutability": "view",
      "type": "function"
    },
    {
      "inputs": [],
      "name": "getAllCentralBankData",
      "outputs": [
        {
          "components": [
            {
              "internalType": "address",
              "name": "smart_contract_address",
              "type": "address"
            },
            {
              "internalType": "address",
              "name": "bank_user_address",
              "type": "address"
            },
            {
              "internalType": "uint256",
              "name": "token_supply",
              "type": "uint256"
            },
            {
              "internalType": "string",
              "name": "token_name",
              "type": "string"
            },
            {
              "internalType": "string",
              "name": "token_symbol",
              "type": "string"
            }
          ],
          "internalType": "struct CBDCCoin.CentralBankDetails[]",
          "name": "allCentralBanks",
          "type": "tuple[]"
        }
      ],
      "stateMutability": "view",
      "type": "function"
    },
    {
      "inputs": [
        {
          "internalType": "address",
          "name": "bank_address",
          "type": "address"
        }
      ],
      "name": "getAllToken",
      "outputs": [
        {
          "components": [
            {
              "internalType": "uint256",
              "name": "token_id",
              "type": "uint256"
            },
            {
              "internalType": "string",
              "name": "name",
              "type": "string"
            },
            {
              "internalType": "string",
              "name": "symbol",
              "type": "string"
            },
            {
              "internalType": "uint256",
              "name": "supply",
              "type": "uint256"
            }
          ],
          "internalType": "struct CBDCCoin.Tokens",
          "name": "token",
          "type": "tuple"
        }
      ],
      "stateMutability": "view",
      "type": "function"
    },
    {
      "inputs": [
        {
          "internalType": "address",
          "name": "bankAddress",
          "type": "address"
        }
      ],
      "name": "getAllUserFromBankAddress",
      "outputs": [
        {
          "components": [
            {
              "internalType": "address",
              "name": "userAddress",
              "type": "address"
            },
            {
              "internalType": "address",
              "name": "creatorAddress",
              "type": "address"
            },
            {
              "internalType": "string",
              "name": "name",
              "type": "string"
            },
            {
              "internalType": "string",
              "name": "iddata",
              "type": "string"
            },
            {
              "internalType": "uint256",
              "name": "idnum",
              "type": "uint256"
            }
          ],
          "internalType": "struct CBDCCoin.AccountInfo[]",
          "name": "info",
          "type": "tuple[]"
        }
      ],
      "stateMutability": "view",
      "type": "function"
    },
    {
      "inputs": [
        {
          "internalType": "address",
          "name": "_address",
          "type": "address"
        }
      ],
      "name": "getBalanceOf",
      "outputs": [
        {
          "internalType": "uint256",
          "name": "_price",
          "type": "uint256"
        }
      ],
      "stateMutability": "view",
      "type": "function"
    },
    {
      "inputs": [
        {
          "internalType": "address",
          "name": "_bankAddr",
          "type": "address"
        }
      ],
      "name": "invalidateBankAddress",
      "outputs": [
        {
          "internalType": "bool",
          "name": "success",
          "type": "bool"
        }
      ],
      "stateMutability": "nonpayable",
      "type": "function"
    },
    {
      "inputs": [
        {
          "internalType": "address",
          "name": "_addr",
          "type": "address"
        }
      ],
      "name": "invalidateUserAddress",
      "outputs": [
        {
          "internalType": "bool",
          "name": "success",
          "type": "bool"
        }
      ],
      "stateMutability": "nonpayable",
      "type": "function"
    },
    {
      "inputs": [
        {
          "internalType": "uint256",
          "name": "_id",
          "type": "uint256"
        },
        {
          "internalType": "uint256",
          "name": "_principal",
          "type": "uint256"
        }
      ],
      "name": "makeDeposit",
      "outputs": [
        {
          "internalType": "bool",
          "name": "success",
          "type": "bool"
        }
      ],
      "stateMutability": "payable",
      "type": "function"
    },
    {
      "inputs": [],
      "name": "name",
      "outputs": [
        {
          "internalType": "string",
          "name": "",
          "type": "string"
        }
      ],
      "stateMutability": "view",
      "type": "function"
    },
    {
      "inputs": [
        {
          "internalType": "uint256",
          "name": "_rate",
          "type": "uint256"
        },
        {
          "internalType": "uint256",
          "name": "_timeperiod",
          "type": "uint256"
        },
        {
          "internalType": "uint256",
          "name": "_maxDepositAmt",
          "type": "uint256"
        }
      ],
      "name": "offerDeposit",
      "outputs": [
        {
          "internalType": "bool",
          "name": "success",
          "type": "bool"
        }
      ],
      "stateMutability": "nonpayable",
      "type": "function"
    },
    {
      "inputs": [
        {
          "internalType": "uint256",
          "name": "_id",
          "type": "uint256"
        }
      ],
      "name": "receiveBack",
      "outputs": [
        {
          "internalType": "bool",
          "name": "success",
          "type": "bool"
        }
      ],
      "stateMutability": "payable",
      "type": "function"
    },
    {
      "inputs": [
        {
          "internalType": "address",
          "name": "_requester",
          "type": "address"
        },
        {
          "internalType": "uint256",
          "name": "_tokens",
          "type": "uint256"
        }
      ],
      "name": "requestTokens",
      "outputs": [
        {
          "internalType": "bool",
          "name": "success",
          "type": "bool"
        }
      ],
      "stateMutability": "nonpayable",
      "type": "function"
    },
    {
      "inputs": [
        {
          "internalType": "address",
          "name": "",
          "type": "address"
        }
      ],
      "name": "requestedTokens",
      "outputs": [
        {
          "internalType": "uint256",
          "name": "",
          "type": "uint256"
        }
      ],
      "stateMutability": "view",
      "type": "function"
    },
    {
      "inputs": [
        {
          "internalType": "address",
          "name": "_addr",
          "type": "address"
        }
      ],
      "name": "setValidAddress",
      "outputs": [
        {
          "internalType": "bool",
          "name": "success",
          "type": "bool"
        }
      ],
      "stateMutability": "nonpayable",
      "type": "function"
    },
    {
      "inputs": [],
      "name": "standard",
      "outputs": [
        {
          "internalType": "string",
          "name": "",
          "type": "string"
        }
      ],
      "stateMutability": "view",
      "type": "function"
    },
    {
      "inputs": [],
      "name": "symbol",
      "outputs": [
        {
          "internalType": "string",
          "name": "",
          "type": "string"
        }
      ],
      "stateMutability": "view",
      "type": "function"
    },
    {
      "inputs": [],
      "name": "totalSupply",
      "outputs": [
        {
          "internalType": "uint256",
          "name": "",
          "type": "uint256"
        }
      ],
      "stateMutability": "view",
      "type": "function"
    },
    {
      "inputs": [
        {
          "internalType": "address",
          "name": "_to",
          "type": "address"
        },
        {
          "internalType": "uint256",
          "name": "_value",
          "type": "uint256"
        }
      ],
      "name": "transfer",
      "outputs": [
        {
          "internalType": "bool",
          "name": "success",
          "type": "bool"
        }
      ],
      "stateMutability": "nonpayable",
      "type": "function"
    },
    {
      "inputs": [
        {
          "internalType": "address",
          "name": "_from",
          "type": "address"
        },
        {
          "internalType": "address",
          "name": "_to",
          "type": "address"
        },
        {
          "internalType": "uint256",
          "name": "_value",
          "type": "uint256"
        }
      ],
      "name": "transferFrom",
      "outputs": [
        {
          "internalType": "bool",
          "name": "success",
          "type": "bool"
        }
      ],
      "stateMutability": "nonpayable",
      "type": "function"
    },
    {
      "inputs": [],
      "name": "userAccountsNum",
      "outputs": [
        {
          "internalType": "uint256",
          "name": "",
          "type": "uint256"
        }
      ],
      "stateMutability": "view",
      "type": "function"
    },
    {
      "inputs": [
        {
          "internalType": "address",
          "name": "",
          "type": "address"
        }
      ],
      "name": "validAddresses",
      "outputs": [
        {
          "internalType": "bool",
          "name": "",
          "type": "bool"
        }
      ],
      "stateMutability": "view",
      "type": "function"
    },
    {
      "inputs": [
        {
          "internalType": "address",
          "name": "",
          "type": "address"
        }
      ],
      "name": "validBankAddresses",
      "outputs": [
        {
          "internalType": "bool",
          "name": "",
          "type": "bool"
        }
      ],
      "stateMutability": "view",
      "type": "function"
    }
  ],
  "bytecode": "0x60c0604052600860809081526721a12221a1b7b4b760c11b60a052600090620000299082620001c3565b506040805180820190915260048152634342444360e01b6020820152600190620000549082620001c3565b50604080518082019091526005815264045524332360dc1b6020820152600290620000809082620001c3565b5060006005556000600655600060075560006008556000600955348015620000a757600080fd5b5060048054336001600160a01b031991821681178355600380549092169091556000908152601060205260409020805460ff191660011790555462000117906001600160a01b03166001600160a01b03166000908152600f60205260409020805460ff1916600190811790915590565b506200028f565b634e487b7160e01b600052604160045260246000fd5b600181811c908216806200014957607f821691505b6020821081036200016a57634e487b7160e01b600052602260045260246000fd5b50919050565b601f821115620001be57600081815260208120601f850160051c81016020861015620001995750805b601f850160051c820191505b81811015620001ba57828155600101620001a5565b5050505b505050565b81516001600160401b03811115620001df57620001df6200011e565b620001f781620001f0845462000134565b8462000170565b602080601f8311600181146200022f5760008415620002165750858301515b600019600386901b1c1916600185901b178555620001ba565b600085815260208120601f198616915b8281101562000260578886015182559484019460019091019084016200023f565b50858210156200027f5787850151600019600388901b60f8161c191681555b5050505050600190811b01905550565b613a61806200029f6000396000f3fe6080604052600436106102665760003560e01c80637e24d1eb11610144578063b68f530d116100b6578063d90403801161007a578063d9040380146108a3578063dd62ed3e146108d3578063de8f641f1461090b578063df4dd2191461091e578063f3821da31461093e578063faf53a301461095e57600080fd5b8063b68f530d146107f3578063b8661a3c14610813578063b881ab5d14610833578063b91e408714610853578063c6ed89901461088357600080fd5b80639f62e8d7116101085780639f62e8d714610641578063a5ccd4041461066e578063a9059cbb1461068e578063a9f825b6146106ae578063af421564146106ce578063b02c43d0146106ee57600080fd5b80637e24d1eb146105aa578063819bb293146105c057806395d89b41146105e05780639a4a0fb2146105f55780639b96eece1461060b57600080fd5b806328262f80116101dd5780633f0f4076116101a15780633f0f4076146104e25780635a3b7e42146104f55780636d1b229d1461050a57806370a082311461052a57806373690862146105575780637d3d2e521461058857600080fd5b806328262f801461043c57806328a223481461046957806328fb77451461048957806329397d9e146104b65780632dfdf0b5146104cc57600080fd5b80630e2d07c81161022f5780630e2d07c81461034b57806318160ddd14610378578063222b4ac61461039c57806323b872dd146103cc57806325ef4100146103ec57806327810b6e1461041c57600080fd5b806285ae2b1461026b57806302d05d3f146102a8578063060e2ba1146102c857806306fdde03146102f9578063095ea7b31461031b575b600080fd5b34801561027757600080fd5b5061028b610286366004612f5b565b61097e565b6040516001600160a01b0390911681526020015b60405180910390f35b3480156102b457600080fd5b5060045461028b906001600160a01b031681565b3480156102d457600080fd5b506102e86102e3366004612f5b565b6109a8565b60405161029f959493929190612fba565b34801561030557600080fd5b5061030e610b0a565b60405161029f919061300b565b34801561032757600080fd5b5061033b610336366004613035565b610b98565b604051901515815260200161029f565b34801561035757600080fd5b5061036b61036636600461305f565b610c05565b60405161029f919061307a565b34801561038457600080fd5b5061038e60055481565b60405190815260200161029f565b3480156103a857600080fd5b506103bc6103b7366004613035565b610e3a565b60405161029f9493929190613126565b3480156103d857600080fd5b5061033b6103e7366004613170565b61101f565b3480156103f857600080fd5b5061040c61040736600461305f565b61115f565b60405161029f94939291906131ac565b34801561042857600080fd5b5060035461028b906001600160a01b031681565b34801561044857600080fd5b5061045c61045736600461305f565b611298565b60405161029f91906131e9565b34801561047557600080fd5b5061033b61048436600461305f565b611453565b34801561049557600080fd5b506104a96104a436600461305f565b611589565b60405161029f9190613290565b3480156104c257600080fd5b5061038e60065481565b3480156104d857600080fd5b5061038e60085481565b61033b6104f03660046132ea565b611716565b34801561050157600080fd5b5061030e611a59565b34801561051657600080fd5b5061033b610525366004612f5b565b611a66565b34801561053657600080fd5b5061038e61054536600461305f565b60126020526000908152604090205481565b34801561056357600080fd5b50610577610572366004612f5b565b611a9f565b60405161029f95949392919061330c565b34801561059457600080fd5b5061059d611beb565b60405161029f919061335d565b3480156105b657600080fd5b5061038e60075481565b3480156105cc57600080fd5b5061033b6105db3660046134f4565b611d9c565b3480156105ec57600080fd5b5061030e611ec9565b34801561060157600080fd5b5061038e60095481565b34801561061757600080fd5b5061038e61062636600461305f565b6001600160a01b031660009081526012602052604090205490565b34801561064d57600080fd5b5061038e61065c36600461305f565b60166020526000908152604090205481565b34801561067a57600080fd5b5061033b61068936600461305f565b611ed6565b34801561069a57600080fd5b5061033b6106a9366004613035565b611f74565b3480156106ba57600080fd5b506105776106c9366004613035565b6120e9565b3480156106da57600080fd5b5061033b6106e9366004613035565b61213e565b3480156106fa57600080fd5b50610781610709366004612f5b565b601160205260009081526040902080546001820154600283015460038401546004850154600586015460068701546007880154600889015460098a0154600a8b0154600b909b0154999a6001600160a01b03998a169a9890991698969795969495939492939192909160ff808216916101009004168d565b604080519d8e526001600160a01b039c8d1660208f01529a909b16998c019990995260608b019790975260808a019590955260a089019390935260c088019190915260e0870152610100860152610120850152610140840152151561016083015215156101808201526101a00161029f565b3480156107ff57600080fd5b5061033b61080e3660046135c6565b61226b565b34801561081f57600080fd5b5061033b61082e36600461305f565b6124b4565b34801561083f57600080fd5b5061057761084e36600461305f565b6124dc565b34801561085f57600080fd5b5061033b61086e36600461305f565b600f6020526000908152604090205460ff1681565b34801561088f57600080fd5b5061033b61089e366004612f5b565b612511565b3480156108af57600080fd5b5061033b6108be36600461305f565b60106020526000908152604090205460ff1681565b3480156108df57600080fd5b5061038e6108ee36600461364b565b601360209081526000928352604080842090915290825290205481565b61033b610919366004612f5b565b6125c0565b34801561092a57600080fd5b5061033b61093936600461305f565b6127b2565b34801561094a57600080fd5b5061033b61095936600461367e565b612861565b34801561096a57600080fd5b5061033b6109793660046136aa565b612bd4565b600a818154811061098e57600080fd5b6000918252602090912001546001600160a01b0316905081565b600b81815481106109b857600080fd5b600091825260209091206005909102018054600182015460028301546003840180546001600160a01b0394851696509290931693909290916109f9906137ba565b80601f0160208091040260200160405190810160405280929190818152602001828054610a25906137ba565b8015610a725780601f10610a4757610100808354040283529160200191610a72565b820191906000526020600020905b815481529060010190602001808311610a5557829003601f168201915b505050505090806004018054610a87906137ba565b80601f0160208091040260200160405190810160405280929190818152602001828054610ab3906137ba565b8015610b005780601f10610ad557610100808354040283529160200191610b00565b820191906000526020600020905b815481529060010190602001808311610ae357829003601f168201915b5050505050905085565b60008054610b17906137ba565b80601f0160208091040260200160405190810160405280929190818152602001828054610b43906137ba565b8015610b905780601f10610b6557610100808354040283529160200191610b90565b820191906000526020600020905b815481529060010190602001808311610b7357829003601f168201915b505050505081565b3360008181526013602090815260408083206001600160a01b038716808552925280832085905551919290917f8c5be1e5ebec7d5bd14f71427d1e84f3dd0314c0f7b2291e5b200ac8c7c3b92590610bf39086815260200190565b60405180910390a35060015b92915050565b6001600160a01b0381166000908152601560209081526040808320805482518185028101850190935280835260609492939192909184015b82821015610e2f578382906000526020600020906004020160405180608001604052908160008201548152602001600182018054610c7a906137ba565b80601f0160208091040260200160405190810160405280929190818152602001828054610ca6906137ba565b8015610cf35780601f10610cc857610100808354040283529160200191610cf3565b820191906000526020600020905b815481529060010190602001808311610cd657829003601f168201915b50505050508152602001600282018054610d0c906137ba565b80601f0160208091040260200160405190810160405280929190818152602001828054610d38906137ba565b8015610d855780601f10610d5a57610100808354040283529160200191610d85565b820191906000526020600020905b815481529060010190602001808311610d6857829003601f168201915b50505050508152602001600382018054610d9e906137ba565b80601f0160208091040260200160405190810160405280929190818152602001828054610dca906137ba565b8015610e175780601f10610dec57610100808354040283529160200191610e17565b820191906000526020600020905b815481529060010190602001808311610dfa57829003601f168201915b50505050508152505081526020019060010190610c3d565b505050509050919050565b60156020528160005260406000208181548110610e5657600080fd5b906000526020600020906004020160009150915050806000015490806001018054610e80906137ba565b80601f0160208091040260200160405190810160405280929190818152602001828054610eac906137ba565b8015610ef95780601f10610ece57610100808354040283529160200191610ef9565b820191906000526020600020905b815481529060010190602001808311610edc57829003601f168201915b505050505090806002018054610f0e906137ba565b80601f0160208091040260200160405190810160405280929190818152602001828054610f3a906137ba565b8015610f875780601f10610f5c57610100808354040283529160200191610f87565b820191906000526020600020905b815481529060010190602001808311610f6a57829003601f168201915b505050505090806003018054610f9c906137ba565b80601f0160208091040260200160405190810160405280929190818152602001828054610fc8906137ba565b80156110155780601f10610fea57610100808354040283529160200191611015565b820191906000526020600020905b815481529060010190602001808311610ff857829003601f168201915b5050505050905084565b6001600160a01b03831660009081526012602052604081205482111561104457600080fd5b6001600160a01b038416600090815260136020908152604080832033845290915290205482111561107457600080fd5b6001600160a01b0384166000908152601260205260408120805484929061109c90849061380a565b90915550506001600160a01b038316600090815260126020526040812080548492906110c990849061381d565b90915550506001600160a01b03841660009081526013602090815260408083203384529091528120805484929061110190849061380a565b92505081905550826001600160a01b0316846001600160a01b03167fddf252ad1be2c89b69c2b068fc378daa952ba7f163c4a11628f55a4df523b3ef8460405161114d91815260200190565b60405180910390a35060019392505050565b60146020526000908152604090208054600182018054919291611181906137ba565b80601f01602080910402602001604051908101604052809291908181526020018280546111ad906137ba565b80156111fa5780601f106111cf576101008083540402835291602001916111fa565b820191906000526020600020905b8154815290600101906020018083116111dd57829003601f168201915b50505050509080600201805461120f906137ba565b80601f016020809104026020016040519081016040528092919081815260200182805461123b906137ba565b80156112885780601f1061125d57610100808354040283529160200191611288565b820191906000526020600020905b81548152906001019060200180831161126b57829003601f168201915b5050505050908060030154905084565b6001600160a01b0381166000908152600e60209081526040808320805482518185028101850190935280835260609492939192909184015b82821015610e2f5760008481526020908190206040805160a0810182526005860290920180546001600160a01b0390811684526001820154169383019390935260028301805492939291840191611326906137ba565b80601f0160208091040260200160405190810160405280929190818152602001828054611352906137ba565b801561139f5780601f106113745761010080835404028352916020019161139f565b820191906000526020600020905b81548152906001019060200180831161138257829003601f168201915b505050505081526020016003820180546113b8906137ba565b80601f01602080910402602001604051908101604052809291908181526020018280546113e4906137ba565b80156114315780601f1061140657610100808354040283529160200191611431565b820191906000526020600020905b81548152906001019060200180831161141457829003601f168201915b50505050508152602001600482015481525050815260200190600101906112d0565b6001600160a01b038116600090815260166020526040812054806114c95760405162461bcd60e51b815260206004820152602260248201527f4e6f20746f6b656e732072657175657374656420627920746865206164647265604482015261737360f01b60648201526084015b60405180910390fd5b6004546001600160a01b03166000908152601260205260409020546114ee9082612d87565b6004546001600160a01b0390811660009081526012602052604080822093909355908516815220546115209082612dd0565b6001600160a01b038416600081815260126020908152604080832094909455601690528281205590517f21d739f160a7464fddaac4a1d1517d84e76b75618a053943b345c408c4160fe0906115789084815260200190565b60405180910390a250600192915050565b6115b46040518060800160405280600081526020016060815260200160608152602001600081525090565b6001600160a01b0382166000908152601460209081526040918290208251608081019093528054835260018101805491928401916115f1906137ba565b80601f016020809104026020016040519081016040528092919081815260200182805461161d906137ba565b801561166a5780601f1061163f5761010080835404028352916020019161166a565b820191906000526020600020905b81548152906001019060200180831161164d57829003601f168201915b50505050508152602001600282018054611683906137ba565b80601f01602080910402602001604051908101604052809291908181526020018280546116af906137ba565b80156116fc5780601f106116d1576101008083540402835291602001916116fc565b820191906000526020600020905b8154815290600101906020018083116116df57829003601f168201915b505050505081526020016003820154815250509050919050565b336000908152600f602052604081205460ff1615156001146117895760405162461bcd60e51b815260206004820152602660248201527f4465706f7369746f722061646472657373206973206e6f74207965742076616c6044820152651a59185d195960d21b60648201526084016114c0565b336000908152601260205260409020548211156118075760405162461bcd60e51b815260206004820152603660248201527f4465706f7369746f72206d75737420686176652073756666696369656e7420746044820152756f6b656e7320746f206d616b65206465706f7369747360501b60648201526084016114c0565b6000838152601160205260409020600601548211156118835760405162461bcd60e51b815260206004820152603260248201527f43616e6e6f74206d616b65206465706f73697420666f722076616c756520677260448201527119585d195c881d1a185b881bd999995c995960721b60648201526084016114c0565b6000838152601160205260409020600b015460ff1615156001146118fd5760405162461bcd60e51b815260206004820152602b60248201527f43616e6e6f74206d616b65206465706f73697420746f20616e20756e6176616960448201526a6c61626c6520737461746560a81b60648201526084016114c0565b60008381526011602052604090206001810180546001600160a01b03191633179055600581018390554260088201556004015461193b90603c613830565b600084815260116020526040902060080154611957919061381d565b60008481526011602090815260408083206007810194909455600b8401805461ffff1916610100179055600290930154338352601290915291812080546001600160a01b03909316928592906119ae90849061380a565b90915550506001600160a01b038116600090815260126020526040812080548592906119db90849061381d565b909155505060008481526011602052604081206003810154600490910154611a0d81611a078885612e2f565b90612e2f565b9250611a1a836064612eb1565b6000888152601160205260409020600901819055611a39908790612dd0565b6000888152601160205260409020600a0155506001935050505092915050565b60028054610b17906137ba565b600354600090611a7f906001600160a01b031683611f74565b508160056000828254611a92919061380a565b9091555060019392505050565b600c602052600090815260409020805460018201546002830180546001600160a01b03938416949290931692611ad4906137ba565b80601f0160208091040260200160405190810160405280929190818152602001828054611b00906137ba565b8015611b4d5780601f10611b2257610100808354040283529160200191611b4d565b820191906000526020600020905b815481529060010190602001808311611b3057829003601f168201915b505050505090806003018054611b62906137ba565b80601f0160208091040260200160405190810160405280929190818152602001828054611b8e906137ba565b8015611bdb5780601f10611bb057610100808354040283529160200191611bdb565b820191906000526020600020905b815481529060010190602001808311611bbe57829003601f168201915b5050505050908060040154905085565b6060600b805480602002602001604051908101604052809291908181526020016000905b82821015611d935760008481526020908190206040805160a0810182526005860290920180546001600160a01b03908116845260018201541693830193909352600283015490820152600382018054919291606084019190611c70906137ba565b80601f0160208091040260200160405190810160405280929190818152602001828054611c9c906137ba565b8015611ce95780601f10611cbe57610100808354040283529160200191611ce9565b820191906000526020600020905b815481529060010190602001808311611ccc57829003601f168201915b50505050508152602001600482018054611d02906137ba565b80601f0160208091040260200160405190810160405280929190818152602001828054611d2e906137ba565b8015611d7b5780601f10611d5057610100808354040283529160200191611d7b565b820191906000526020600020905b815481529060010190602001808311611d5e57829003601f168201915b50505050508152505081526020019060010190611c0f565b50505050905090565b6004546000906001600160a01b03163314611dc95760405162461bcd60e51b81526004016114c090613847565b600a805460018101825560009182527fc65a7bb8d6351c1cf70c95a316cc6a92839c986682d98bc35f958f4883f9d2a80180546001600160a01b0319166001600160a01b0386161790556007805491611e2183613895565b90915550506001600160a01b0383166000908152601060205260409020805460ff19166001179055611e52836124b4565b50336000908152601560209081526040822080546001818101835591845292829020855160049094020192835590840151849291820190611e9390826138fd565b5060408201516002820190611ea890826138fd565b5060608201516003820190611ebd90826138fd565b50600195945050505050565b60018054610b17906137ba565b6004546000906001600160a01b03163314611f4f5760405162461bcd60e51b815260206004820152603360248201527f4f6e6c79207468652063656e7472616c2062616e6b2063616e20696e76616c69604482015272646174652062616e6b2061646472657373657360681b60648201526084016114c0565b506001600160a01b03166000908152601060205260409020805460ff19169055600190565b33600090815260126020526040812054821115611fe25760405162461bcd60e51b815260206004820152602660248201527f53656e64657220646f65736e277420686176652073756666696369656e742062604482015265616c616e636560d01b60648201526084016114c0565b6001600160a01b0383166000908152600f602052604090205460ff16151560011461205b5760405162461bcd60e51b815260206004820152602360248201527f546f2061646472657373206973206e6f742076616c696461746564206164647260448201526265737360e81b60648201526084016114c0565b336000908152601260205260408120805484929061207a90849061380a565b90915550506001600160a01b038316600090815260126020526040812080548492906120a790849061381d565b90915550506040518281526001600160a01b0384169033907fddf252ad1be2c89b69c2b068fc378daa952ba7f163c4a11628f55a4df523b3ef90602001610bf3565b600e602052816000526040600020818154811061210557600080fd5b60009182526020909120600590910201805460018201546002830180546001600160a01b039384169650919092169350611ad4906137ba565b6001600160a01b0382166000908152600f602052604081205460ff1615156001146121b65760405162461bcd60e51b815260206004820152602260248201527f5265717565737465722061646472657373206973206e6f742076616c69646174604482015261195960f21b60648201526084016114c0565b6000821161221e5760405162461bcd60e51b815260206004820152602f60248201527f52657175657374656420746f6b656e207175616e74697479206d75737420626560448201526e02067726561746572207468616e203608c1b60648201526084016114c0565b6001600160a01b03831660008181526016602052604090819020849055517fc3fb6c98272d7a0d5dc26727b61c00ece2e5bf3dbdc0284659e28d441c1ce06c906115789085815260200190565b3360009081526010602052604081205460ff1615156001146122ea5760405162461bcd60e51b815260206004820152603260248201527f4f6e6c7920612076616c69642062616e6b20616464726573732063616e206372604482015271656174652075736572206163636f756e747360701b60648201526084016114c0565b600680549060006122fa83613895565b90915550506040805160a0810182526001600160a01b03808816825233602080840191825283850188815260608501889052600654608086018190526000908152600c909252949020835181549084166001600160a01b03199182161782559151600182018054919094169216919091179091559151909190600282019061238290826138fd565b506060820151600382019061239790826138fd565b506080918201516004909101556001600160a01b038086166000908152600e60209081526040808320815160a0810183528b86168152338185019081529281018a8152606082018a90526006549782019790975281546001818101845592865293909420845160059094020180549386166001600160a01b031994851617815591519082018054919095169216919091179092559151600282019061243c90826138fd565b506060820151600382019061245190826138fd565b50608082015181600401555050336001600160a01b0316856001600160a01b03167f95da2ee7bf5870679d6aec59b7360b2cd943ea903b9024a9a2162c07a42685af85856006546040516124a7939291906139bd565b60405180910390a3611ebd855b6001600160a01b03166000908152600f60205260409020805460ff1916600190811790915590565b600d602052600090815260409020805460018201546002830180546001600160a01b03938416949290931692611ad4906137ba565b6004546000906001600160a01b0316331461253e5760405162461bcd60e51b81526004016114c090613847565b8160056000828254612550919061381d565b90915550506004546001600160a01b03166000908152601260205260408120805484929061257f90849061381d565b9250508190555081600b60008154811061259b5761259b6139f3565b90600052602060002090600502016002016000828254611a92919061381d565b919050565b6000818152601160205260408120600701544210156126215760405162461bcd60e51b815260206004820181905260248201527f526564656d7074696f6e2074696d6520686173206e6f7420726561636865642e60448201526064016114c0565b6000828152601160205260409020600101546001600160a01b0316331461269c5760405162461bcd60e51b815260206004820152602960248201527f43616c6c206261636b206973206f6e6c7920616c6c6f7765642066726f6d206460448201526832b837b9b4ba37b91760b91b60648201526084016114c0565b6000828152601160205260409020600b015460ff61010090910416151560011461271a5760405162461bcd60e51b815260206004820152602960248201527f526564656d7074696f6e2073686f756c64206e6f742068617665206265656e2060448201526836b0b232903cb2ba1760b91b60648201526084016114c0565b6000828152601160209081526040808320600a8101546002909101543385526012909352908320805491936001600160a01b0390931692849261275e90849061381d565b90915550506001600160a01b0381166000908152601260205260408120805484929061278b90849061380a565b90915550505060009283525050601160205260409020600b01805461ff0019169055600190565b3360009081526010602052604081205460ff16151560011461283c5760405162461bcd60e51b815260206004820152603760248201527f4f6e6c7920612062616e6b206f722063656e7472616c2062616e6b2063616e2060448201527f696e76616c69646174652075736572206164647265737300000000000000000060648201526084016114c0565b506001600160a01b03166000908152600f60205260409020805460ff19169055600190565b336000908152600f602052604081205460ff1615156001146128d65760405162461bcd60e51b815260206004820152602860248201527f536572766963652070726f7669646572206d75737420626520612076616c6964604482015267206164647265737360c01b60648201526084016114c0565b336000908152601260205260409020548211156129435760405162461bcd60e51b815260206004820152602560248201527f50726f766964657220646f65736e27742068617665206d696e696d756d2062616044820152646c616e636560d81b60648201526084016114c0565b6008805490600061295383613895565b9190505550604051806101a00160405280600854815260200160006001600160a01b0316815260200160006001600160a01b031681526020016000815260200160008152602001600081526020016000815260200160008152602001600081526020016000815260200160008152602001600015158152602001600015158152506011600060085481526020019081526020016000206000820151816000015560208201518160010160006101000a8154816001600160a01b0302191690836001600160a01b0316021790555060408201518160020160006101000a8154816001600160a01b0302191690836001600160a01b03160217905550606082015181600301556080820151816004015560a0820151816005015560c0820151816006015560e082015181600701556101008201518160080155610120820151816009015561014082015181600a015561016082015181600b0160006101000a81548160ff02191690831515021790555061018082015181600b0160016101000a81548160ff021916908315150217905550905050600854601160006008548152602001908152602001600020600001819055503360116000600854815260200190815260200160002060020160006101000a8154816001600160a01b0302191690836001600160a01b031602179055508360116000600854815260200190815260200160002060030181905550826011600060085481526020019081526020016000206004018190555081601160006008548152602001908152602001600020600601819055506001601160006008548152602001908152602001600020600b0160006101000a81548160ff021916908315150217905550600190509392505050565b60008260056000828254612be8919061381d565b90915550506005543360008181526012602090815260408083209490945583516080810185524281528082018a81528186018a90526060820189905293835260149091529290208251815590516001820190612c4490826138fd565b5060408201516002820190612c5990826138fd565b506060919091015160039091015560098054906000612c7783613895565b9091555050600b8054600181018255600091909152825160059091027f0175b7a638427703f0dbe7bb9bbf987a2551717b34e79f33b5b1008d1fa01db9810180546001600160a01b039384166001600160a01b031991821617825560208601517f0175b7a638427703f0dbe7bb9bbf987a2551717b34e79f33b5b1008d1fa01dba840180549190951691161790925560408401517f0175b7a638427703f0dbe7bb9bbf987a2551717b34e79f33b5b1008d1fa01dbb82015560608401518492917f0175b7a638427703f0dbe7bb9bbf987a2551717b34e79f33b5b1008d1fa01dbc0190612d6490826138fd565b5060808201516004820190612d7990826138fd565b506001979650505050505050565b6000612dc983836040518060400160405280601e81526020017f536166654d6174683a207375627472616374696f6e206f766572666c6f770000815250612ef3565b9392505050565b600080612ddd838561381d565b905083811015612dc95760405162461bcd60e51b815260206004820152601b60248201527f536166654d6174683a206164646974696f6e206f766572666c6f77000000000060448201526064016114c0565b600082600003612e4157506000610bff565b6000612e4d8385613830565b905082612e5a8583613a09565b14612dc95760405162461bcd60e51b815260206004820152602160248201527f536166654d6174683a206d756c7469706c69636174696f6e206f766572666c6f6044820152607760f81b60648201526084016114c0565b6000612dc983836040518060400160405280601a81526020017f536166654d6174683a206469766973696f6e206279207a65726f000000000000815250612f2d565b60008184841115612f175760405162461bcd60e51b81526004016114c0919061300b565b506000612f24848661380a565b95945050505050565b60008183612f4e5760405162461bcd60e51b81526004016114c0919061300b565b506000612f248486613a09565b600060208284031215612f6d57600080fd5b5035919050565b6000815180845260005b81811015612f9a57602081850181015186830182015201612f7e565b506000602082860101526020601f19601f83011685010191505092915050565b6001600160a01b038681168252851660208201526040810184905260a060608201819052600090612fed90830185612f74565b8281036080840152612fff8185612f74565b98975050505050505050565b602081526000612dc96020830184612f74565b80356001600160a01b03811681146125bb57600080fd5b6000806040838503121561304857600080fd5b6130518361301e565b946020939093013593505050565b60006020828403121561307157600080fd5b612dc98261301e565b60006020808301818452808551808352604092508286019150828160051b87010184880160005b8381101561311857603f19898403018552815160808151855288820151818a8701526130cf82870182612f74565b91505087820151858203898701526130e78282612f74565b915050606080830151925085820381870152506131048183612f74565b9689019694505050908601906001016130a1565b509098975050505050505050565b84815260806020820152600061313f6080830186612f74565b82810360408401526131518186612f74565b905082810360608401526131658185612f74565b979650505050505050565b60008060006060848603121561318557600080fd5b61318e8461301e565b925061319c6020850161301e565b9150604084013590509250925092565b8481526080602082015260006131c56080830186612f74565b82810360408401526131d78186612f74565b91505082606083015295945050505050565b60006020808301818452808551808352604092508286019150828160051b87010184880160005b8381101561311857888303603f19018552815180516001600160a01b0390811685528882015116888501528681015160a08886018190529061325482870182612f74565b9150506060808301518683038288015261326e8382612f74565b6080948501519790940196909652505094870194925090860190600101613210565b602081528151602082015260006020830151608060408401526132b660a0840182612f74565b90506040840151601f198483030160608501526132d38282612f74565b915050606084015160808401528091505092915050565b600080604083850312156132fd57600080fd5b50508035926020909101359150565b6001600160a01b0386811682528516602082015260a06040820181905260009061333890830186612f74565b828103606084015261334a8186612f74565b9150508260808301529695505050505050565b60006020808301818452808551808352604092508286019150828160051b87010184880160005b8381101561311857888303603f19018552815180516001600160a01b039081168552888201511688850152868101518785015260608082015160a082870181905291906133d383880182612f74565b92505050608080830151925085820381870152506133f18183612f74565b968901969450505090860190600101613384565b634e487b7160e01b600052604160045260246000fd5b6040516080810167ffffffffffffffff8111828210171561343e5761343e613405565b60405290565b60405160a0810167ffffffffffffffff8111828210171561343e5761343e613405565b600082601f83011261347857600080fd5b813567ffffffffffffffff8082111561349357613493613405565b604051601f8301601f19908116603f011681019082821181831017156134bb576134bb613405565b816040528381528660208588010111156134d457600080fd5b836020870160208301376000602085830101528094505050505092915050565b6000806040838503121561350757600080fd5b6135108361301e565b9150602083013567ffffffffffffffff8082111561352d57600080fd5b908401906080828703121561354157600080fd5b61354961341b565b8235815260208301358281111561355f57600080fd5b61356b88828601613467565b60208301525060408301358281111561358357600080fd5b61358f88828601613467565b6040830152506060830135828111156135a757600080fd5b6135b388828601613467565b6060830152508093505050509250929050565b600080600080608085870312156135dc57600080fd5b6135e58561301e565b93506135f36020860161301e565b9250604085013567ffffffffffffffff8082111561361057600080fd5b61361c88838901613467565b9350606087013591508082111561363257600080fd5b5061363f87828801613467565b91505092959194509250565b6000806040838503121561365e57600080fd5b6136678361301e565b91506136756020840161301e565b90509250929050565b60008060006060848603121561369357600080fd5b505081359360208301359350604090920135919050565b600080600080608085870312156136c057600080fd5b843567ffffffffffffffff808211156136d857600080fd5b6136e488838901613467565b955060208701359150808211156136fa57600080fd5b61370688838901613467565b945060408701359350606087013591508082111561372357600080fd5b9086019060a0828903121561373757600080fd5b61373f613444565b6137488361301e565b81526137566020840161301e565b60208201526040830135604082015260608301358281111561377757600080fd5b6137838a828601613467565b60608301525060808301358281111561379b57600080fd5b6137a78a828601613467565b6080830152509598949750929550505050565b600181811c908216806137ce57607f821691505b6020821081036137ee57634e487b7160e01b600052602260045260246000fd5b50919050565b634e487b7160e01b600052601160045260246000fd5b81810381811115610bff57610bff6137f4565b80820180821115610bff57610bff6137f4565b8082028115828204841417610bff57610bff6137f4565b6020808252602e908201527f4f6e6c792063726561746f722f696e766f6b657220697320616c6c6f7765642060408201526d37b3103a3434b99030b1ba34b7b760911b606082015260800190565b6000600182016138a7576138a76137f4565b5060010190565b601f8211156138f857600081815260208120601f850160051c810160208610156138d55750805b601f850160051c820191505b818110156138f4578281556001016138e1565b5050505b505050565b815167ffffffffffffffff81111561391757613917613405565b61392b8161392584546137ba565b846138ae565b602080601f83116001811461396057600084156139485750858301515b600019600386901b1c1916600185901b1785556138f4565b600085815260208120601f198616915b8281101561398f57888601518255948401946001909101908401613970565b50858210156139ad5787850151600019600388901b60f8161c191681555b5050505050600190811b01905550565b6060815260006139d06060830186612f74565b82810360208401526139e28186612f74565b915050826040830152949350505050565b634e487b7160e01b600052603260045260246000fd5b600082613a2657634e487b7160e01b600052601260045260246000fd5b50049056fea2646970667358221220004d5cdcc15d8a1b136b031916f8bcf874e31523c6fc4154460e33fc641c3bbd64736f6c63430008140033",
  "linkReferences": {},
  "deployedLinkReferences": {}
}