{
  "_format": "hh-sol-artifact-1",
  "contractName": "CBDCCoin",
  "sourceName": "contracts/cbdccoin.sol",
  "abi": [
    {
      "inputs": [],
      "stateMutability": "nonpayable",
      "type": "constructor"
    },
    {
      "anonymous": false,
      "inputs": [
        {
          "indexed": true,
          "internalType": "address",
          "name": "_owner",
          "type": "address"
        },
        {
          "indexed": true,
          "internalType": "address",
          "name": "_spender",
          "type": "address"
        },
        {
          "indexed": false,
          "internalType": "uint256",
          "name": "_value",
          "type": "uint256"
        }
      ],
      "name": "Approval",
      "type": "event"
    },
    {
      "anonymous": false,
      "inputs": [
        {
          "indexed": true,
          "internalType": "address",
          "name": "_from",
          "type": "address"
        },
        {
          "indexed": true,
          "internalType": "address",
          "name": "_to",
          "type": "address"
        },
        {
          "indexed": false,
          "internalType": "uint256",
          "name": "_value",
          "type": "uint256"
        }
      ],
      "name": "Transfer",
      "type": "event"
    },
    {
      "anonymous": false,
      "inputs": [
        {
          "indexed": true,
          "internalType": "address",
          "name": "_userAddress",
          "type": "address"
        },
        {
          "indexed": true,
          "internalType": "address",
          "name": "_creatorAddress",
          "type": "address"
        },
        {
          "indexed": false,
          "internalType": "string",
          "name": "_name",
          "type": "string"
        },
        {
          "indexed": false,
          "internalType": "string",
          "name": "_iddata",
          "type": "string"
        },
        {
          "indexed": false,
          "internalType": "uint256",
          "name": "_idnum",
          "type": "uint256"
        }
      ],
      "name": "UserAccountCreated",
      "type": "event"
    },
    {
      "inputs": [
        {
          "internalType": "address",
          "name": "",
          "type": "address"
        }
      ],
      "name": "accountDetailsByAddr",
      "outputs": [
        {
          "internalType": "address",
          "name": "userAddress",
          "type": "address"
        },
        {
          "internalType": "address",
          "name": "creatorAddress",
          "type": "address"
        },
        {
          "internalType": "string",
          "name": "name",
          "type": "string"
        },
        {
          "internalType": "string",
          "name": "iddata",
          "type": "string"
        },
        {
          "internalType": "uint256",
          "name": "idnum",
          "type": "uint256"
        }
      ],
      "stateMutability": "view",
      "type": "function"
    },
    {
      "inputs": [
        {
          "internalType": "address",
          "name": "",
          "type": "address"
        },
        {
          "internalType": "uint256",
          "name": "",
          "type": "uint256"
        }
      ],
      "name": "accountDetailsByBankId",
      "outputs": [
        {
          "internalType": "address",
          "name": "userAddress",
          "type": "address"
        },
        {
          "internalType": "address",
          "name": "creatorAddress",
          "type": "address"
        },
        {
          "internalType": "string",
          "name": "name",
          "type": "string"
        },
        {
          "internalType": "string",
          "name": "iddata",
          "type": "string"
        },
        {
          "internalType": "uint256",
          "name": "idnum",
          "type": "uint256"
        }
      ],
      "stateMutability": "view",
      "type": "function"
    },
    {
      "inputs": [
        {
          "internalType": "uint256",
          "name": "",
          "type": "uint256"
        }
      ],
      "name": "accountDetailsById",
      "outputs": [
        {
          "internalType": "address",
          "name": "userAddress",
          "type": "address"
        },
        {
          "internalType": "address",
          "name": "creatorAddress",
          "type": "address"
        },
        {
          "internalType": "string",
          "name": "name",
          "type": "string"
        },
        {
          "internalType": "string",
          "name": "iddata",
          "type": "string"
        },
        {
          "internalType": "uint256",
          "name": "idnum",
          "type": "uint256"
        }
      ],
      "stateMutability": "view",
      "type": "function"
    },
    {
      "inputs": [
        {
          "internalType": "address",
          "name": "_bankAddr",
          "type": "address"
        },
        {
          "components": [
            {
              "internalType": "uint256",
              "name": "bank_id",
              "type": "uint256"
            },
            {
              "internalType": "string",
              "name": "name",
              "type": "string"
            },
            {
              "internalType": "string",
              "name": "extension",
              "type": "string"
            },
            {
              "internalType": "string",
              "name": "bank_address",
              "type": "string"
            }
          ],
          "internalType": "struct CBDCCoin.BankDetails",
          "name": "details",
          "type": "tuple"
        }
      ],
      "name": "addBank",
      "outputs": [
        {
          "internalType": "bool",
          "name": "success",
          "type": "bool"
        }
      ],
      "stateMutability": "nonpayable",
      "type": "function"
    },
    {
      "inputs": [
        {
          "internalType": "uint256",
          "name": "_quantity",
          "type": "uint256"
        }
      ],
      "name": "addTokens",
      "outputs": [
        {
          "internalType": "bool",
          "name": "success",
          "type": "bool"
        }
      ],
      "stateMutability": "nonpayable",
      "type": "function"
    },
    {
      "inputs": [
        {
          "internalType": "address",
          "name": "_userAddress",
          "type": "address"
        },
        {
          "internalType": "address",
          "name": "_bankAddress",
          "type": "address"
        },
        {
          "internalType": "string",
          "name": "_name",
          "type": "string"
        },
        {
          "internalType": "string",
          "name": "_iddata",
          "type": "string"
        }
      ],
      "name": "addUserAddressInfo",
      "outputs": [
        {
          "internalType": "bool",
          "name": "success",
          "type": "bool"
        }
      ],
      "stateMutability": "nonpayable",
      "type": "function"
    },
    {
      "inputs": [
        {
          "internalType": "address",
          "name": "",
          "type": "address"
        },
        {
          "internalType": "uint256",
          "name": "",
          "type": "uint256"
        }
      ],
      "name": "addressBankList",
      "outputs": [
        {
          "internalType": "uint256",
          "name": "bank_id",
          "type": "uint256"
        },
        {
          "internalType": "string",
          "name": "name",
          "type": "string"
        },
        {
          "internalType": "string",
          "name": "extension",
          "type": "string"
        },
        {
          "internalType": "string",
          "name": "bank_address",
          "type": "string"
        }
      ],
      "stateMutability": "view",
      "type": "function"
    },
    {
      "inputs": [
        {
          "internalType": "address",
          "name": "",
          "type": "address"
        }
      ],
      "name": "addressTokens",
      "outputs": [
        {
          "internalType": "uint256",
          "name": "token_id",
          "type": "uint256"
        },
        {
          "internalType": "string",
          "name": "name",
          "type": "string"
        },
        {
          "internalType": "string",
          "name": "symbol",
          "type": "string"
        },
        {
          "internalType": "uint256",
          "name": "supply",
          "type": "uint256"
        }
      ],
      "stateMutability": "view",
      "type": "function"
    },
    {
      "inputs": [
        {
          "internalType": "address",
          "name": "",
          "type": "address"
        },
        {
          "internalType": "address",
          "name": "",
          "type": "address"
        }
      ],
      "name": "allowance",
      "outputs": [
        {
          "internalType": "uint256",
          "name": "",
          "type": "uint256"
        }
      ],
      "stateMutability": "view",
      "type": "function"
    },
    {
      "inputs": [
        {
          "internalType": "address",
          "name": "_spender",
          "type": "address"
        },
        {
          "internalType": "uint256",
          "name": "_value",
          "type": "uint256"
        }
      ],
      "name": "approve",
      "outputs": [
        {
          "internalType": "bool",
          "name": "success",
          "type": "bool"
        }
      ],
      "stateMutability": "nonpayable",
      "type": "function"
    },
    {
      "inputs": [
        {
          "internalType": "address",
          "name": "",
          "type": "address"
        }
      ],
      "name": "balanceOf",
      "outputs": [
        {
          "internalType": "uint256",
          "name": "",
          "type": "uint256"
        }
      ],
      "stateMutability": "view",
      "type": "function"
    },
    {
      "inputs": [],
      "name": "bankNum",
      "outputs": [
        {
          "internalType": "uint256",
          "name": "",
          "type": "uint256"
        }
      ],
      "stateMutability": "view",
      "type": "function"
    },
    {
      "inputs": [
        {
          "internalType": "uint256",
          "name": "",
          "type": "uint256"
        }
      ],
      "name": "banks",
      "outputs": [
        {
          "internalType": "address",
          "name": "",
          "type": "address"
        }
      ],
      "stateMutability": "view",
      "type": "function"
    },
    {
      "inputs": [
        {
          "internalType": "uint256",
          "name": "_quantity",
          "type": "uint256"
        }
      ],
      "name": "burnTokens",
      "outputs": [
        {
          "internalType": "bool",
          "name": "success",
          "type": "bool"
        }
      ],
      "stateMutability": "nonpayable",
      "type": "function"
    },
    {
      "inputs": [],
      "name": "burner",
      "outputs": [
        {
          "internalType": "address",
          "name": "",
          "type": "address"
        }
      ],
      "stateMutability": "view",
      "type": "function"
    },
    {
      "inputs": [
        {
          "internalType": "string",
          "name": "_name",
          "type": "string"
        },
        {
          "internalType": "string",
          "name": "_symbol",
          "type": "string"
        },
        {
          "internalType": "uint256",
          "name": "_initialSupply",
          "type": "uint256"
        }
      ],
      "name": "createToken",
      "outputs": [
        {
          "internalType": "bool",
          "name": "success",
          "type": "bool"
        }
      ],
      "stateMutability": "nonpayable",
      "type": "function"
    },
    {
      "inputs": [],
      "name": "creator",
      "outputs": [
        {
          "internalType": "address",
          "name": "",
          "type": "address"
        }
      ],
      "stateMutability": "view",
      "type": "function"
    },
    {
      "inputs": [],
      "name": "depositCount",
      "outputs": [
        {
          "internalType": "uint256",
          "name": "",
          "type": "uint256"
        }
      ],
      "stateMutability": "view",
      "type": "function"
    },
    {
      "inputs": [
        {
          "internalType": "uint256",
          "name": "",
          "type": "uint256"
        }
      ],
      "name": "deposits",
      "outputs": [
        {
          "internalType": "uint256",
          "name": "id",
          "type": "uint256"
        },
        {
          "internalType": "address payable",
          "name": "depositor",
          "type": "address"
        },
        {
          "internalType": "address payable",
          "name": "provider",
          "type": "address"
        },
        {
          "internalType": "uint256",
          "name": "rate",
          "type": "uint256"
        },
        {
          "internalType": "uint256",
          "name": "timeperiod",
          "type": "uint256"
        },
        {
          "internalType": "uint256",
          "name": "principal",
          "type": "uint256"
        },
        {
          "internalType": "uint256",
          "name": "maxDepositAmt",
          "type": "uint256"
        },
        {
          "internalType": "uint256",
          "name": "endtime",
          "type": "uint256"
        },
        {
          "internalType": "uint256",
          "name": "starttime",
          "type": "uint256"
        },
        {
          "internalType": "uint256",
          "name": "interest",
          "type": "uint256"
        },
        {
          "internalType": "uint256",
          "name": "amt",
          "type": "uint256"
        },
        {
          "internalType": "bool",
          "name": "isAvailable",
          "type": "bool"
        },
        {
          "internalType": "bool",
          "name": "notRedeemed",
          "type": "bool"
        }
      ],
      "stateMutability": "view",
      "type": "function"
    },
    {
      "inputs": [],
      "name": "getAllBanks",
      "outputs": [
        {
          "components": [
            {
              "internalType": "uint256",
              "name": "bank_id",
              "type": "uint256"
            },
            {
              "internalType": "string",
              "name": "name",
              "type": "string"
            },
            {
              "internalType": "string",
              "name": "extension",
              "type": "string"
            },
            {
              "internalType": "string",
              "name": "bank_address",
              "type": "string"
            }
          ],
          "internalType": "struct CBDCCoin.BankDetails[]",
          "name": "bankList",
          "type": "tuple[]"
        }
      ],
      "stateMutability": "view",
      "type": "function"
    },
    {
      "inputs": [],
      "name": "getAllToken",
      "outputs": [
        {
          "components": [
            {
              "internalType": "uint256",
              "name": "token_id",
              "type": "uint256"
            },
            {
              "internalType": "string",
              "name": "name",
              "type": "string"
            },
            {
              "internalType": "string",
              "name": "symbol",
              "type": "string"
            },
            {
              "internalType": "uint256",
              "name": "supply",
              "type": "uint256"
            }
          ],
          "internalType": "struct CBDCCoin.Tokens",
          "name": "token",
          "type": "tuple"
        }
      ],
      "stateMutability": "view",
      "type": "function"
    },
    {
      "inputs": [
        {
          "internalType": "address",
          "name": "bankAddress",
          "type": "address"
        }
      ],
      "name": "getAllUserFromBankAddress",
      "outputs": [
        {
          "components": [
            {
              "internalType": "address",
              "name": "userAddress",
              "type": "address"
            },
            {
              "internalType": "address",
              "name": "creatorAddress",
              "type": "address"
            },
            {
              "internalType": "string",
              "name": "name",
              "type": "string"
            },
            {
              "internalType": "string",
              "name": "iddata",
              "type": "string"
            },
            {
              "internalType": "uint256",
              "name": "idnum",
              "type": "uint256"
            }
          ],
          "internalType": "struct CBDCCoin.AccountInfo[]",
          "name": "info",
          "type": "tuple[]"
        }
      ],
      "stateMutability": "view",
      "type": "function"
    },
    {
      "inputs": [
        {
          "internalType": "address",
          "name": "_bankAddr",
          "type": "address"
        }
      ],
      "name": "invalidateBankAddress",
      "outputs": [
        {
          "internalType": "bool",
          "name": "success",
          "type": "bool"
        }
      ],
      "stateMutability": "nonpayable",
      "type": "function"
    },
    {
      "inputs": [
        {
          "internalType": "address",
          "name": "_addr",
          "type": "address"
        }
      ],
      "name": "invalidateUserAddress",
      "outputs": [
        {
          "internalType": "bool",
          "name": "success",
          "type": "bool"
        }
      ],
      "stateMutability": "nonpayable",
      "type": "function"
    },
    {
      "inputs": [
        {
          "internalType": "uint256",
          "name": "_id",
          "type": "uint256"
        },
        {
          "internalType": "uint256",
          "name": "_principal",
          "type": "uint256"
        }
      ],
      "name": "makeDeposit",
      "outputs": [
        {
          "internalType": "bool",
          "name": "success",
          "type": "bool"
        }
      ],
      "stateMutability": "payable",
      "type": "function"
    },
    {
      "inputs": [],
      "name": "name",
      "outputs": [
        {
          "internalType": "string",
          "name": "",
          "type": "string"
        }
      ],
      "stateMutability": "view",
      "type": "function"
    },
    {
      "inputs": [
        {
          "internalType": "uint256",
          "name": "_rate",
          "type": "uint256"
        },
        {
          "internalType": "uint256",
          "name": "_timeperiod",
          "type": "uint256"
        },
        {
          "internalType": "uint256",
          "name": "_maxDepositAmt",
          "type": "uint256"
        }
      ],
      "name": "offerDeposit",
      "outputs": [
        {
          "internalType": "bool",
          "name": "success",
          "type": "bool"
        }
      ],
      "stateMutability": "nonpayable",
      "type": "function"
    },
    {
      "inputs": [
        {
          "internalType": "uint256",
          "name": "_id",
          "type": "uint256"
        }
      ],
      "name": "receiveBack",
      "outputs": [
        {
          "internalType": "bool",
          "name": "success",
          "type": "bool"
        }
      ],
      "stateMutability": "payable",
      "type": "function"
    },
    {
      "inputs": [
        {
          "internalType": "address",
          "name": "_addr",
          "type": "address"
        }
      ],
      "name": "setValidAddress",
      "outputs": [
        {
          "internalType": "bool",
          "name": "success",
          "type": "bool"
        }
      ],
      "stateMutability": "nonpayable",
      "type": "function"
    },
    {
      "inputs": [],
      "name": "standard",
      "outputs": [
        {
          "internalType": "string",
          "name": "",
          "type": "string"
        }
      ],
      "stateMutability": "view",
      "type": "function"
    },
    {
      "inputs": [],
      "name": "symbol",
      "outputs": [
        {
          "internalType": "string",
          "name": "",
          "type": "string"
        }
      ],
      "stateMutability": "view",
      "type": "function"
    },
    {
      "inputs": [],
      "name": "totalSupply",
      "outputs": [
        {
          "internalType": "uint256",
          "name": "",
          "type": "uint256"
        }
      ],
      "stateMutability": "view",
      "type": "function"
    },
    {
      "inputs": [
        {
          "internalType": "address",
          "name": "_to",
          "type": "address"
        },
        {
          "internalType": "uint256",
          "name": "_value",
          "type": "uint256"
        }
      ],
      "name": "transfer",
      "outputs": [
        {
          "internalType": "bool",
          "name": "success",
          "type": "bool"
        }
      ],
      "stateMutability": "nonpayable",
      "type": "function"
    },
    {
      "inputs": [
        {
          "internalType": "address",
          "name": "_from",
          "type": "address"
        },
        {
          "internalType": "address",
          "name": "_to",
          "type": "address"
        },
        {
          "internalType": "uint256",
          "name": "_value",
          "type": "uint256"
        }
      ],
      "name": "transferFrom",
      "outputs": [
        {
          "internalType": "bool",
          "name": "success",
          "type": "bool"
        }
      ],
      "stateMutability": "nonpayable",
      "type": "function"
    },
    {
      "inputs": [],
      "name": "userAccountsNum",
      "outputs": [
        {
          "internalType": "uint256",
          "name": "",
          "type": "uint256"
        }
      ],
      "stateMutability": "view",
      "type": "function"
    },
    {
      "inputs": [
        {
          "internalType": "address",
          "name": "",
          "type": "address"
        }
      ],
      "name": "validAddresses",
      "outputs": [
        {
          "internalType": "bool",
          "name": "",
          "type": "bool"
        }
      ],
      "stateMutability": "view",
      "type": "function"
    },
    {
      "inputs": [
        {
          "internalType": "address",
          "name": "",
          "type": "address"
        }
      ],
      "name": "validBankAddresses",
      "outputs": [
        {
          "internalType": "bool",
          "name": "",
          "type": "bool"
        }
      ],
      "stateMutability": "view",
      "type": "function"
    }
  ],
  "bytecode": "0x60c0604052600860809081526721a12221a1b7b4b760c11b60a052600090620000299082620001be565b506040805180820190915260048152634342444360e01b6020820152600190620000549082620001be565b50604080518082019091526005815264045524332360dc1b6020820152600290620000809082620001be565b506000600555600060065560006007556000600855348015620000a257600080fd5b5060048054336001600160a01b031991821681178355600380549092169091556000908152600e60205260409020805460ff191660011790555462000112906001600160a01b03166001600160a01b03166000908152600d60205260409020805460ff1916600190811790915590565b506200028a565b634e487b7160e01b600052604160045260246000fd5b600181811c908216806200014457607f821691505b6020821081036200016557634e487b7160e01b600052602260045260246000fd5b50919050565b601f821115620001b957600081815260208120601f850160051c81016020861015620001945750805b601f850160051c820191505b81811015620001b557828155600101620001a0565b5050505b505050565b81516001600160401b03811115620001da57620001da62000119565b620001f281620001eb84546200012f565b846200016b565b602080601f8311600181146200022a5760008415620002115750858301515b600019600386901b1c1916600185901b178555620001b5565b600085815260208120601f198616915b828110156200025b578886015182559484019460019091019084016200023a565b50858210156200027a5787850151600019600388901b60f8161c191681555b5050505050600190811b01905550565b613007806200029a6000396000f3fe6080604052600436106102195760003560e01c80637e24d1eb11610123578063b68f530d116100ab578063d90403801161006f578063d904038014610754578063dd62ed3e14610784578063de8f641f146107bc578063df4dd219146107cf578063f3821da3146107ef57600080fd5b8063b68f530d146106a4578063b8661a3c146106c4578063b881ab5d146106e4578063b91e408714610704578063c6ed89901461073457600080fd5b806395d89b41116100f257806395d89b411461052a578063a5ccd4041461053f578063a9059cbb1461055f578063a9f825b61461057f578063b02c43d01461059f57600080fd5b80637e24d1eb146104b0578063819bb293146104c657806385e3c1d4146104e6578063951c8a071461050857600080fd5b806328262f80116101a65780635a3b7e42116101755780635a3b7e42146103fd5780635b060530146104125780636d1b229d1461043257806370a0823114610452578063736908621461047f57600080fd5b806328262f801461039157806329397d9e146103be5780632dfdf0b5146103d45780633f0f4076146103ea57600080fd5b806318160ddd116101ed57806318160ddd146102cd578063222b4ac6146102f157806323b872dd1461032157806325ef41001461034157806327810b6e1461037157600080fd5b806285ae2b1461021e57806302d05d3f1461025b57806306fdde031461027b578063095ea7b31461029d575b600080fd5b34801561022a57600080fd5b5061023e6102393660046126d6565b61080f565b6040516001600160a01b0390911681526020015b60405180910390f35b34801561026757600080fd5b5060045461023e906001600160a01b031681565b34801561028757600080fd5b50610290610839565b6040516102529190612735565b3480156102a957600080fd5b506102bd6102b836600461275f565b6108c7565b6040519015158152602001610252565b3480156102d957600080fd5b506102e360055481565b604051908152602001610252565b3480156102fd57600080fd5b5061031161030c36600461275f565b610934565b6040516102529493929190612789565b34801561032d57600080fd5b506102bd61033c3660046127d3565b610b19565b34801561034d57600080fd5b5061036161035c36600461280f565b610c59565b604051610252949392919061282a565b34801561037d57600080fd5b5060035461023e906001600160a01b031681565b34801561039d57600080fd5b506103b16103ac36600461280f565b610d92565b6040516102529190612867565b3480156103ca57600080fd5b506102e360065481565b3480156103e057600080fd5b506102e360085481565b6102bd6103f836600461291c565b610f58565b34801561040957600080fd5b506102906112a0565b34801561041e57600080fd5b506102bd61042d366004612a0a565b6112ad565b34801561043e57600080fd5b506102bd61044d3660046126d6565b611375565b34801561045e57600080fd5b506102e361046d36600461280f565b60106020526000908152604090205481565b34801561048b57600080fd5b5061049f61049a3660046126d6565b6113ae565b604051610252959493929190612a77565b3480156104bc57600080fd5b506102e360075481565b3480156104d257600080fd5b506102bd6104e1366004612ac8565b6114fa565b3480156104f257600080fd5b506104fb611627565b6040516102529190612b9a565b34801561051457600080fd5b5061051d6117a9565b6040516102529190612bf4565b34801561053657600080fd5b506102906119d3565b34801561054b57600080fd5b506102bd61055a36600461280f565b6119e0565b34801561056b57600080fd5b506102bd61057a36600461275f565b611a7e565b34801561058b57600080fd5b5061049f61059a36600461275f565b611bf3565b3480156105ab57600080fd5b506106326105ba3660046126d6565b600f60205260009081526040902080546001820154600283015460038401546004850154600586015460068701546007880154600889015460098a0154600a8b0154600b909b0154999a6001600160a01b03998a169a9890991698969795969495939492939192909160ff808216916101009004168d565b604080519d8e526001600160a01b039c8d1660208f01529a909b16998c019990995260608b019790975260808a019590955260a089019390935260c088019190915260e0870152610100860152610120850152610140840152151561016083015215156101808201526101a001610252565b3480156106b057600080fd5b506102bd6106bf366004612c92565b611c48565b3480156106d057600080fd5b506102bd6106df36600461280f565b611e91565b3480156106f057600080fd5b5061049f6106ff36600461280f565b611eb9565b34801561071057600080fd5b506102bd61071f36600461280f565b600d6020526000908152604090205460ff1681565b34801561074057600080fd5b506102bd61074f3660046126d6565b611eee565b34801561076057600080fd5b506102bd61076f36600461280f565b600e6020526000908152604090205460ff1681565b34801561079057600080fd5b506102e361079f366004612d17565b601160209081526000928352604080842090915290825290205481565b6102bd6107ca3660046126d6565b611f61565b3480156107db57600080fd5b506102bd6107ea36600461280f565b612153565b3480156107fb57600080fd5b506102bd61080a366004612d4a565b612202565b6009818154811061081f57600080fd5b6000918252602090912001546001600160a01b0316905081565b6000805461084690612d76565b80601f016020809104026020016040519081016040528092919081815260200182805461087290612d76565b80156108bf5780601f10610894576101008083540402835291602001916108bf565b820191906000526020600020905b8154815290600101906020018083116108a257829003601f168201915b505050505081565b3360008181526011602090815260408083206001600160a01b038716808552925280832085905551919290917f8c5be1e5ebec7d5bd14f71427d1e84f3dd0314c0f7b2291e5b200ac8c7c3b925906109229086815260200190565b60405180910390a35060015b92915050565b6013602052816000526040600020818154811061095057600080fd5b90600052602060002090600402016000915091505080600001549080600101805461097a90612d76565b80601f01602080910402602001604051908101604052809291908181526020018280546109a690612d76565b80156109f35780601f106109c8576101008083540402835291602001916109f3565b820191906000526020600020905b8154815290600101906020018083116109d657829003601f168201915b505050505090806002018054610a0890612d76565b80601f0160208091040260200160405190810160405280929190818152602001828054610a3490612d76565b8015610a815780601f10610a5657610100808354040283529160200191610a81565b820191906000526020600020905b815481529060010190602001808311610a6457829003601f168201915b505050505090806003018054610a9690612d76565b80601f0160208091040260200160405190810160405280929190818152602001828054610ac290612d76565b8015610b0f5780601f10610ae457610100808354040283529160200191610b0f565b820191906000526020600020905b815481529060010190602001808311610af257829003601f168201915b5050505050905084565b6001600160a01b038316600090815260106020526040812054821115610b3e57600080fd5b6001600160a01b0384166000908152601160209081526040808320338452909152902054821115610b6e57600080fd5b6001600160a01b03841660009081526010602052604081208054849290610b96908490612dc6565b90915550506001600160a01b03831660009081526010602052604081208054849290610bc3908490612dd9565b90915550506001600160a01b038416600090815260116020908152604080832033845290915281208054849290610bfb908490612dc6565b92505081905550826001600160a01b0316846001600160a01b03167fddf252ad1be2c89b69c2b068fc378daa952ba7f163c4a11628f55a4df523b3ef84604051610c4791815260200190565b60405180910390a35060019392505050565b60126020526000908152604090208054600182018054919291610c7b90612d76565b80601f0160208091040260200160405190810160405280929190818152602001828054610ca790612d76565b8015610cf45780601f10610cc957610100808354040283529160200191610cf4565b820191906000526020600020905b815481529060010190602001808311610cd757829003601f168201915b505050505090806002018054610d0990612d76565b80601f0160208091040260200160405190810160405280929190818152602001828054610d3590612d76565b8015610d825780601f10610d5757610100808354040283529160200191610d82565b820191906000526020600020905b815481529060010190602001808311610d6557829003601f168201915b5050505050908060030154905084565b6001600160a01b0381166000908152600c60209081526040808320805482518185028101850190935280835260609492939192909184015b82821015610f4d5760008481526020908190206040805160a0810182526005860290920180546001600160a01b0390811684526001820154169383019390935260028301805492939291840191610e2090612d76565b80601f0160208091040260200160405190810160405280929190818152602001828054610e4c90612d76565b8015610e995780601f10610e6e57610100808354040283529160200191610e99565b820191906000526020600020905b815481529060010190602001808311610e7c57829003601f168201915b50505050508152602001600382018054610eb290612d76565b80601f0160208091040260200160405190810160405280929190818152602001828054610ede90612d76565b8015610f2b5780601f10610f0057610100808354040283529160200191610f2b565b820191906000526020600020905b815481529060010190602001808311610f0e57829003601f168201915b5050505050815260200160048201548152505081526020019060010190610dca565b505050509050919050565b336000908152600d602052604081205460ff161515600114610fd05760405162461bcd60e51b815260206004820152602660248201527f4465706f7369746f722061646472657373206973206e6f74207965742076616c6044820152651a59185d195960d21b60648201526084015b60405180910390fd5b3360009081526010602052604090205482111561104e5760405162461bcd60e51b815260206004820152603660248201527f4465706f7369746f72206d75737420686176652073756666696369656e7420746044820152756f6b656e7320746f206d616b65206465706f7369747360501b6064820152608401610fc7565b6000838152600f60205260409020600601548211156110ca5760405162461bcd60e51b815260206004820152603260248201527f43616e6e6f74206d616b65206465706f73697420666f722076616c756520677260448201527119585d195c881d1a185b881bd999995c995960721b6064820152608401610fc7565b6000838152600f60205260409020600b015460ff1615156001146111445760405162461bcd60e51b815260206004820152602b60248201527f43616e6e6f74206d616b65206465706f73697420746f20616e20756e6176616960448201526a6c61626c6520737461746560a81b6064820152608401610fc7565b6000838152600f602052604090206001810180546001600160a01b03191633179055600581018390554260088201556004015461118290603c612dec565b6000848152600f602052604090206008015461119e9190612dd9565b6000848152600f602090815260408083206007810194909455600b8401805461ffff1916610100179055600290930154338352601090915291812080546001600160a01b03909316928592906111f5908490612dc6565b90915550506001600160a01b03811660009081526010602052604081208054859290611222908490612dd9565b90915550506000848152600f6020526040812060038101546004909101546112548161124e8885612575565b90612575565b92506112618360646125fe565b6000888152600f60205260409020600901819055611280908790612640565b6000888152600f60205260409020600a0155506001935050505092915050565b6002805461084690612d76565b6004546000906001600160a01b031633146112da5760405162461bcd60e51b8152600401610fc790612e03565b81600560008282546112ec9190612dd9565b909155505060055433600081815260106020908152604080832094909455835160808101855242815280820189815281860189905260608201889052938352601290915292902082518155905160018201906113489082612ea0565b506040820151600282019061135d9082612ea0565b50606091909101516003909101555060019392505050565b60035460009061138e906001600160a01b031683611a7e565b5081600560008282546113a19190612dc6565b9091555060019392505050565b600a602052600090815260409020805460018201546002830180546001600160a01b039384169492909316926113e390612d76565b80601f016020809104026020016040519081016040528092919081815260200182805461140f90612d76565b801561145c5780601f106114315761010080835404028352916020019161145c565b820191906000526020600020905b81548152906001019060200180831161143f57829003601f168201915b50505050509080600301805461147190612d76565b80601f016020809104026020016040519081016040528092919081815260200182805461149d90612d76565b80156114ea5780601f106114bf576101008083540402835291602001916114ea565b820191906000526020600020905b8154815290600101906020018083116114cd57829003601f168201915b5050505050908060040154905085565b6004546000906001600160a01b031633146115275760405162461bcd60e51b8152600401610fc790612e03565b6009805460018101825560009182527f6e1540171b6c0c960b71a7020d9f60077f6af931a8bbf590da0223dacf75c7af0180546001600160a01b0319166001600160a01b038616179055600780549161157f83612f60565b90915550506001600160a01b0383166000908152600e60205260409020805460ff191660011790556115b083611e91565b503360009081526013602090815260408220805460018181018355918452928290208551600490940201928355908401518492918201906115f19082612ea0565b50604082015160028201906116069082612ea0565b506060820151600382019061161b9082612ea0565b50600195945050505050565b6116526040518060800160405280600081526020016060815260200160608152602001600081525090565b3360009081526012602090815260409182902082516080810190935280548352600181018054919284019161168690612d76565b80601f01602080910402602001604051908101604052809291908181526020018280546116b290612d76565b80156116ff5780601f106116d4576101008083540402835291602001916116ff565b820191906000526020600020905b8154815290600101906020018083116116e257829003601f168201915b5050505050815260200160028201805461171890612d76565b80601f016020809104026020016040519081016040528092919081815260200182805461174490612d76565b80156117915780601f1061176657610100808354040283529160200191611791565b820191906000526020600020905b81548152906001019060200180831161177457829003601f168201915b50505050508152602001600382015481525050905090565b336000908152601360209081526040808320805482518185028101850190935280835260609492939192909184015b828210156119ca57838290600052602060002090600402016040518060800160405290816000820154815260200160018201805461181590612d76565b80601f016020809104026020016040519081016040528092919081815260200182805461184190612d76565b801561188e5780601f106118635761010080835404028352916020019161188e565b820191906000526020600020905b81548152906001019060200180831161187157829003601f168201915b505050505081526020016002820180546118a790612d76565b80601f01602080910402602001604051908101604052809291908181526020018280546118d390612d76565b80156119205780601f106118f557610100808354040283529160200191611920565b820191906000526020600020905b81548152906001019060200180831161190357829003601f168201915b5050505050815260200160038201805461193990612d76565b80601f016020809104026020016040519081016040528092919081815260200182805461196590612d76565b80156119b25780601f10611987576101008083540402835291602001916119b2565b820191906000526020600020905b81548152906001019060200180831161199557829003601f168201915b505050505081525050815260200190600101906117d8565b50505050905090565b6001805461084690612d76565b6004546000906001600160a01b03163314611a595760405162461bcd60e51b815260206004820152603360248201527f4f6e6c79207468652063656e7472616c2062616e6b2063616e20696e76616c69604482015272646174652062616e6b2061646472657373657360681b6064820152608401610fc7565b506001600160a01b03166000908152600e60205260409020805460ff19169055600190565b33600090815260106020526040812054821115611aec5760405162461bcd60e51b815260206004820152602660248201527f53656e64657220646f65736e277420686176652073756666696369656e742062604482015265616c616e636560d01b6064820152608401610fc7565b6001600160a01b0383166000908152600d602052604090205460ff161515600114611b655760405162461bcd60e51b815260206004820152602360248201527f546f2061646472657373206973206e6f742076616c696461746564206164647260448201526265737360e81b6064820152608401610fc7565b3360009081526010602052604081208054849290611b84908490612dc6565b90915550506001600160a01b03831660009081526010602052604081208054849290611bb1908490612dd9565b90915550506040518281526001600160a01b0384169033907fddf252ad1be2c89b69c2b068fc378daa952ba7f163c4a11628f55a4df523b3ef90602001610922565b600c6020528160005260406000208181548110611c0f57600080fd5b60009182526020909120600590910201805460018201546002830180546001600160a01b0393841696509190921693506113e390612d76565b336000908152600e602052604081205460ff161515600114611cc75760405162461bcd60e51b815260206004820152603260248201527f4f6e6c7920612076616c69642062616e6b20616464726573732063616e206372604482015271656174652075736572206163636f756e747360701b6064820152608401610fc7565b60068054906000611cd783612f60565b90915550506040805160a0810182526001600160a01b03808816825233602080840191825283850188815260608501889052600654608086018190526000908152600a909252949020835181549084166001600160a01b031991821617825591516001820180549190941692169190911790915591519091906002820190611d5f9082612ea0565b5060608201516003820190611d749082612ea0565b506080918201516004909101556001600160a01b038086166000908152600c60209081526040808320815160a0810183528b86168152338185019081529281018a8152606082018a90526006549782019790975281546001818101845592865293909420845160059094020180549386166001600160a01b0319948516178155915190820180549190951692169190911790925591516002820190611e199082612ea0565b5060608201516003820190611e2e9082612ea0565b50608082015181600401555050336001600160a01b0316856001600160a01b03167f95da2ee7bf5870679d6aec59b7360b2cd943ea903b9024a9a2162c07a42685af8585600654604051611e8493929190612f79565b60405180910390a361161b855b6001600160a01b03166000908152600d60205260409020805460ff1916600190811790915590565b600b602052600090815260409020805460018201546002830180546001600160a01b039384169492909316926113e390612d76565b6004546000906001600160a01b03163314611f1b5760405162461bcd60e51b8152600401610fc790612e03565b8160056000828254611f2d9190612dd9565b90915550506004546001600160a01b0316600090815260106020526040812080548492906113a1908490612dd9565b919050565b6000818152600f6020526040812060070154421015611fc25760405162461bcd60e51b815260206004820181905260248201527f526564656d7074696f6e2074696d6520686173206e6f7420726561636865642e6044820152606401610fc7565b6000828152600f60205260409020600101546001600160a01b0316331461203d5760405162461bcd60e51b815260206004820152602960248201527f43616c6c206261636b206973206f6e6c7920616c6c6f7765642066726f6d206460448201526832b837b9b4ba37b91760b91b6064820152608401610fc7565b6000828152600f60205260409020600b015460ff6101009091041615156001146120bb5760405162461bcd60e51b815260206004820152602960248201527f526564656d7074696f6e2073686f756c64206e6f742068617665206265656e2060448201526836b0b232903cb2ba1760b91b6064820152608401610fc7565b6000828152600f60209081526040808320600a8101546002909101543385526010909352908320805491936001600160a01b039093169284926120ff908490612dd9565b90915550506001600160a01b0381166000908152601060205260408120805484929061212c908490612dc6565b90915550505060009283525050600f60205260409020600b01805461ff0019169055600190565b336000908152600e602052604081205460ff1615156001146121dd5760405162461bcd60e51b815260206004820152603760248201527f4f6e6c7920612062616e6b206f722063656e7472616c2062616e6b2063616e2060448201527f696e76616c6964617465207573657220616464726573730000000000000000006064820152608401610fc7565b506001600160a01b03166000908152600d60205260409020805460ff19169055600190565b336000908152600d602052604081205460ff1615156001146122775760405162461bcd60e51b815260206004820152602860248201527f536572766963652070726f7669646572206d75737420626520612076616c6964604482015267206164647265737360c01b6064820152608401610fc7565b336000908152601060205260409020548211156122e45760405162461bcd60e51b815260206004820152602560248201527f50726f766964657220646f65736e27742068617665206d696e696d756d2062616044820152646c616e636560d81b6064820152608401610fc7565b600880549060006122f483612f60565b9190505550604051806101a00160405280600854815260200160006001600160a01b0316815260200160006001600160a01b03168152602001600081526020016000815260200160008152602001600081526020016000815260200160008152602001600081526020016000815260200160001515815260200160001515815250600f600060085481526020019081526020016000206000820151816000015560208201518160010160006101000a8154816001600160a01b0302191690836001600160a01b0316021790555060408201518160020160006101000a8154816001600160a01b0302191690836001600160a01b03160217905550606082015181600301556080820151816004015560a0820151816005015560c0820151816006015560e082015181600701556101008201518160080155610120820151816009015561014082015181600a015561016082015181600b0160006101000a81548160ff02191690831515021790555061018082015181600b0160016101000a81548160ff021916908315150217905550905050600854600f600060085481526020019081526020016000206000018190555033600f6000600854815260200190815260200160002060020160006101000a8154816001600160a01b0302191690836001600160a01b0316021790555083600f600060085481526020019081526020016000206003018190555082600f600060085481526020019081526020016000206004018190555081600f60006008548152602001908152602001600020600601819055506001600f60006008548152602001908152602001600020600b0160006101000a81548160ff021916908315150217905550600190509392505050565b6000826000036125875750600061092e565b60006125938385612dec565b9050826125a08583612faf565b146125f75760405162461bcd60e51b815260206004820152602160248201527f536166654d6174683a206d756c7469706c69636174696f6e206f766572666c6f6044820152607760f81b6064820152608401610fc7565b9392505050565b60006125f783836040518060400160405280601a81526020017f536166654d6174683a206469766973696f6e206279207a65726f00000000000081525061269f565b60008061264d8385612dd9565b9050838110156125f75760405162461bcd60e51b815260206004820152601b60248201527f536166654d6174683a206164646974696f6e206f766572666c6f7700000000006044820152606401610fc7565b600081836126c05760405162461bcd60e51b8152600401610fc79190612735565b5060006126cd8486612faf565b95945050505050565b6000602082840312156126e857600080fd5b5035919050565b6000815180845260005b81811015612715576020818501810151868301820152016126f9565b506000602082860101526020601f19601f83011685010191505092915050565b6020815260006125f760208301846126ef565b80356001600160a01b0381168114611f5c57600080fd5b6000806040838503121561277257600080fd5b61277b83612748565b946020939093013593505050565b8481526080602082015260006127a260808301866126ef565b82810360408401526127b481866126ef565b905082810360608401526127c881856126ef565b979650505050505050565b6000806000606084860312156127e857600080fd5b6127f184612748565b92506127ff60208501612748565b9150604084013590509250925092565b60006020828403121561282157600080fd5b6125f782612748565b84815260806020820152600061284360808301866126ef565b828103604084015261285581866126ef565b91505082606083015295945050505050565b60006020808301818452808551808352604092508286019150828160051b87010184880160005b8381101561290e57888303603f19018552815180516001600160a01b0390811685528882015116888501528681015160a0888601819052906128d2828701826126ef565b915050606080830151868303828801526128ec83826126ef565b608094850151979094019690965250509487019492509086019060010161288e565b509098975050505050505050565b6000806040838503121561292f57600080fd5b50508035926020909101359150565b634e487b7160e01b600052604160045260246000fd5b6040516080810167ffffffffffffffff811182821017156129775761297761293e565b60405290565b600082601f83011261298e57600080fd5b813567ffffffffffffffff808211156129a9576129a961293e565b604051601f8301601f19908116603f011681019082821181831017156129d1576129d161293e565b816040528381528660208588010111156129ea57600080fd5b836020870160208301376000602085830101528094505050505092915050565b600080600060608486031215612a1f57600080fd5b833567ffffffffffffffff80821115612a3757600080fd5b612a438783880161297d565b94506020860135915080821115612a5957600080fd5b50612a668682870161297d565b925050604084013590509250925092565b6001600160a01b0386811682528516602082015260a060408201819052600090612aa3908301866126ef565b8281036060840152612ab581866126ef565b9150508260808301529695505050505050565b60008060408385031215612adb57600080fd5b612ae483612748565b9150602083013567ffffffffffffffff80821115612b0157600080fd5b9084019060808287031215612b1557600080fd5b612b1d612954565b82358152602083013582811115612b3357600080fd5b612b3f8882860161297d565b602083015250604083013582811115612b5757600080fd5b612b638882860161297d565b604083015250606083013582811115612b7b57600080fd5b612b878882860161297d565b6060830152508093505050509250929050565b60208152815160208201526000602083015160806040840152612bc060a08401826126ef565b90506040840151601f19848303016060850152612bdd82826126ef565b915050606084015160808401528091505092915050565b60006020808301818452808551808352604092508286019150828160051b87010184880160005b8381101561290e57603f19898403018552815160808151855288820151818a870152612c49828701826126ef565b9150508782015185820389870152612c6182826126ef565b91505060608083015192508582038187015250612c7e81836126ef565b968901969450505090860190600101612c1b565b60008060008060808587031215612ca857600080fd5b612cb185612748565b9350612cbf60208601612748565b9250604085013567ffffffffffffffff80821115612cdc57600080fd5b612ce88883890161297d565b93506060870135915080821115612cfe57600080fd5b50612d0b8782880161297d565b91505092959194509250565b60008060408385031215612d2a57600080fd5b612d3383612748565b9150612d4160208401612748565b90509250929050565b600080600060608486031215612d5f57600080fd5b505081359360208301359350604090920135919050565b600181811c90821680612d8a57607f821691505b602082108103612daa57634e487b7160e01b600052602260045260246000fd5b50919050565b634e487b7160e01b600052601160045260246000fd5b8181038181111561092e5761092e612db0565b8082018082111561092e5761092e612db0565b808202811582820484141761092e5761092e612db0565b6020808252602e908201527f4f6e6c792063726561746f722f696e766f6b657220697320616c6c6f7765642060408201526d37b3103a3434b99030b1ba34b7b760911b606082015260800190565b601f821115612e9b57600081815260208120601f850160051c81016020861015612e785750805b601f850160051c820191505b81811015612e9757828155600101612e84565b5050505b505050565b815167ffffffffffffffff811115612eba57612eba61293e565b612ece81612ec88454612d76565b84612e51565b602080601f831160018114612f035760008415612eeb5750858301515b600019600386901b1c1916600185901b178555612e97565b600085815260208120601f198616915b82811015612f3257888601518255948401946001909101908401612f13565b5085821015612f505787850151600019600388901b60f8161c191681555b5050505050600190811b01905550565b600060018201612f7257612f72612db0565b5060010190565b606081526000612f8c60608301866126ef565b8281036020840152612f9e81866126ef565b915050826040830152949350505050565b600082612fcc57634e487b7160e01b600052601260045260246000fd5b50049056fea26469706673582212208476363d2d0d0eb00fed9f31cac3a0e721fde1db80b8067eb9a5fa33e89f4fed64736f6c63430008140033",
  "linkReferences": {},
  "deployedLinkReferences": {}
}