{
  "_format": "hh-sol-artifact-1",
  "contractName": "CBDCCoin",
  "sourceName": "contracts/cbdccoin.sol",
  "abi": [
    {
      "inputs": [],
      "stateMutability": "nonpayable",
      "type": "constructor"
    },
    {
      "anonymous": false,
      "inputs": [
        {
          "indexed": true,
          "internalType": "address",
          "name": "_owner",
          "type": "address"
        },
        {
          "indexed": true,
          "internalType": "address",
          "name": "_spender",
          "type": "address"
        },
        {
          "indexed": false,
          "internalType": "uint256",
          "name": "_value",
          "type": "uint256"
        }
      ],
      "name": "Approval",
      "type": "event"
    },
    {
      "anonymous": false,
      "inputs": [
        {
          "indexed": true,
          "internalType": "address",
          "name": "_from",
          "type": "address"
        },
        {
          "indexed": true,
          "internalType": "address",
          "name": "_to",
          "type": "address"
        },
        {
          "indexed": false,
          "internalType": "uint256",
          "name": "_value",
          "type": "uint256"
        }
      ],
      "name": "Transfer",
      "type": "event"
    },
    {
      "anonymous": false,
      "inputs": [
        {
          "indexed": true,
          "internalType": "address",
          "name": "_userAddress",
          "type": "address"
        },
        {
          "indexed": true,
          "internalType": "address",
          "name": "_creatorAddress",
          "type": "address"
        },
        {
          "indexed": false,
          "internalType": "string",
          "name": "_name",
          "type": "string"
        },
        {
          "indexed": false,
          "internalType": "string",
          "name": "_iddata",
          "type": "string"
        },
        {
          "indexed": false,
          "internalType": "uint256",
          "name": "_idnum",
          "type": "uint256"
        }
      ],
      "name": "UserAccountCreated",
      "type": "event"
    },
    {
      "inputs": [
        {
          "internalType": "address",
          "name": "",
          "type": "address"
        }
      ],
      "name": "accountDetailsByAddr",
      "outputs": [
        {
          "internalType": "address",
          "name": "userAddress",
          "type": "address"
        },
        {
          "internalType": "address",
          "name": "creatorAddress",
          "type": "address"
        },
        {
          "internalType": "string",
          "name": "name",
          "type": "string"
        },
        {
          "internalType": "string",
          "name": "iddata",
          "type": "string"
        },
        {
          "internalType": "uint256",
          "name": "idnum",
          "type": "uint256"
        }
      ],
      "stateMutability": "view",
      "type": "function"
    },
    {
      "inputs": [
        {
          "internalType": "address",
          "name": "",
          "type": "address"
        },
        {
          "internalType": "uint256",
          "name": "",
          "type": "uint256"
        }
      ],
      "name": "accountDetailsByBankId",
      "outputs": [
        {
          "internalType": "address",
          "name": "userAddress",
          "type": "address"
        },
        {
          "internalType": "address",
          "name": "creatorAddress",
          "type": "address"
        },
        {
          "internalType": "string",
          "name": "name",
          "type": "string"
        },
        {
          "internalType": "string",
          "name": "iddata",
          "type": "string"
        },
        {
          "internalType": "uint256",
          "name": "idnum",
          "type": "uint256"
        }
      ],
      "stateMutability": "view",
      "type": "function"
    },
    {
      "inputs": [
        {
          "internalType": "uint256",
          "name": "",
          "type": "uint256"
        }
      ],
      "name": "accountDetailsById",
      "outputs": [
        {
          "internalType": "address",
          "name": "userAddress",
          "type": "address"
        },
        {
          "internalType": "address",
          "name": "creatorAddress",
          "type": "address"
        },
        {
          "internalType": "string",
          "name": "name",
          "type": "string"
        },
        {
          "internalType": "string",
          "name": "iddata",
          "type": "string"
        },
        {
          "internalType": "uint256",
          "name": "idnum",
          "type": "uint256"
        }
      ],
      "stateMutability": "view",
      "type": "function"
    },
    {
      "inputs": [
        {
          "internalType": "address",
          "name": "_bankAddr",
          "type": "address"
        },
        {
          "components": [
            {
              "internalType": "uint256",
              "name": "bank_id",
              "type": "uint256"
            },
            {
              "internalType": "string",
              "name": "name",
              "type": "string"
            },
            {
              "internalType": "string",
              "name": "extension",
              "type": "string"
            },
            {
              "internalType": "string",
              "name": "bank_address",
              "type": "string"
            }
          ],
          "internalType": "struct CBDCCoin.BankDetails",
          "name": "details",
          "type": "tuple"
        }
      ],
      "name": "addBank",
      "outputs": [
        {
          "internalType": "bool",
          "name": "success",
          "type": "bool"
        }
      ],
      "stateMutability": "nonpayable",
      "type": "function"
    },
    {
      "inputs": [
        {
          "internalType": "uint256",
          "name": "_quantity",
          "type": "uint256"
        }
      ],
      "name": "addTokens",
      "outputs": [
        {
          "internalType": "bool",
          "name": "success",
          "type": "bool"
        }
      ],
      "stateMutability": "nonpayable",
      "type": "function"
    },
    {
      "inputs": [
        {
          "internalType": "address",
          "name": "_userAddress",
          "type": "address"
        },
        {
          "internalType": "address",
          "name": "_bankAddress",
          "type": "address"
        },
        {
          "internalType": "string",
          "name": "_name",
          "type": "string"
        },
        {
          "internalType": "string",
          "name": "_iddata",
          "type": "string"
        }
      ],
      "name": "addUserAddressInfo",
      "outputs": [
        {
          "internalType": "bool",
          "name": "success",
          "type": "bool"
        }
      ],
      "stateMutability": "nonpayable",
      "type": "function"
    },
    {
      "inputs": [
        {
          "internalType": "address",
          "name": "",
          "type": "address"
        },
        {
          "internalType": "uint256",
          "name": "",
          "type": "uint256"
        }
      ],
      "name": "addressBankList",
      "outputs": [
        {
          "internalType": "uint256",
          "name": "bank_id",
          "type": "uint256"
        },
        {
          "internalType": "string",
          "name": "name",
          "type": "string"
        },
        {
          "internalType": "string",
          "name": "extension",
          "type": "string"
        },
        {
          "internalType": "string",
          "name": "bank_address",
          "type": "string"
        }
      ],
      "stateMutability": "view",
      "type": "function"
    },
    {
      "inputs": [
        {
          "internalType": "address",
          "name": "",
          "type": "address"
        }
      ],
      "name": "addressTokens",
      "outputs": [
        {
          "internalType": "uint256",
          "name": "token_id",
          "type": "uint256"
        },
        {
          "internalType": "string",
          "name": "name",
          "type": "string"
        },
        {
          "internalType": "string",
          "name": "symbol",
          "type": "string"
        },
        {
          "internalType": "uint256",
          "name": "supply",
          "type": "uint256"
        }
      ],
      "stateMutability": "view",
      "type": "function"
    },
    {
      "inputs": [
        {
          "internalType": "address",
          "name": "",
          "type": "address"
        },
        {
          "internalType": "address",
          "name": "",
          "type": "address"
        }
      ],
      "name": "allowance",
      "outputs": [
        {
          "internalType": "uint256",
          "name": "",
          "type": "uint256"
        }
      ],
      "stateMutability": "view",
      "type": "function"
    },
    {
      "inputs": [
        {
          "internalType": "address",
          "name": "_spender",
          "type": "address"
        },
        {
          "internalType": "uint256",
          "name": "_value",
          "type": "uint256"
        }
      ],
      "name": "approve",
      "outputs": [
        {
          "internalType": "bool",
          "name": "success",
          "type": "bool"
        }
      ],
      "stateMutability": "nonpayable",
      "type": "function"
    },
    {
      "inputs": [
        {
          "internalType": "address",
          "name": "",
          "type": "address"
        }
      ],
      "name": "balanceOf",
      "outputs": [
        {
          "internalType": "uint256",
          "name": "",
          "type": "uint256"
        }
      ],
      "stateMutability": "view",
      "type": "function"
    },
    {
      "inputs": [],
      "name": "bankNum",
      "outputs": [
        {
          "internalType": "uint256",
          "name": "",
          "type": "uint256"
        }
      ],
      "stateMutability": "view",
      "type": "function"
    },
    {
      "inputs": [
        {
          "internalType": "uint256",
          "name": "",
          "type": "uint256"
        }
      ],
      "name": "banks",
      "outputs": [
        {
          "internalType": "address",
          "name": "",
          "type": "address"
        }
      ],
      "stateMutability": "view",
      "type": "function"
    },
    {
      "inputs": [
        {
          "internalType": "uint256",
          "name": "_quantity",
          "type": "uint256"
        }
      ],
      "name": "burnTokens",
      "outputs": [
        {
          "internalType": "bool",
          "name": "success",
          "type": "bool"
        }
      ],
      "stateMutability": "nonpayable",
      "type": "function"
    },
    {
      "inputs": [],
      "name": "burner",
      "outputs": [
        {
          "internalType": "address",
          "name": "",
          "type": "address"
        }
      ],
      "stateMutability": "view",
      "type": "function"
    },
    {
      "inputs": [],
      "name": "centralBank",
      "outputs": [
        {
          "internalType": "uint256",
          "name": "",
          "type": "uint256"
        }
      ],
      "stateMutability": "view",
      "type": "function"
    },
    {
      "inputs": [
        {
          "internalType": "uint256",
          "name": "",
          "type": "uint256"
        }
      ],
      "name": "centralBankList",
      "outputs": [
        {
          "internalType": "address",
          "name": "smart_contract_address",
          "type": "address"
        },
        {
          "internalType": "address",
          "name": "bank_user_address",
          "type": "address"
        },
        {
          "internalType": "uint256",
          "name": "token_supply",
          "type": "uint256"
        },
        {
          "internalType": "string",
          "name": "token_name",
          "type": "string"
        },
        {
          "internalType": "string",
          "name": "token_symbol",
          "type": "string"
        }
      ],
      "stateMutability": "view",
      "type": "function"
    },
    {
      "inputs": [
        {
          "internalType": "string",
          "name": "_name",
          "type": "string"
        },
        {
          "internalType": "string",
          "name": "_symbol",
          "type": "string"
        },
        {
          "internalType": "uint256",
          "name": "_initialSupply",
          "type": "uint256"
        },
        {
          "components": [
            {
              "internalType": "address",
              "name": "smart_contract_address",
              "type": "address"
            },
            {
              "internalType": "address",
              "name": "bank_user_address",
              "type": "address"
            },
            {
              "internalType": "uint256",
              "name": "token_supply",
              "type": "uint256"
            },
            {
              "internalType": "string",
              "name": "token_name",
              "type": "string"
            },
            {
              "internalType": "string",
              "name": "token_symbol",
              "type": "string"
            }
          ],
          "internalType": "struct CBDCCoin.CentralBankDetails",
          "name": "bankDetails",
          "type": "tuple"
        }
      ],
      "name": "createToken",
      "outputs": [
        {
          "internalType": "bool",
          "name": "success",
          "type": "bool"
        }
      ],
      "stateMutability": "nonpayable",
      "type": "function"
    },
    {
      "inputs": [],
      "name": "creator",
      "outputs": [
        {
          "internalType": "address",
          "name": "",
          "type": "address"
        }
      ],
      "stateMutability": "view",
      "type": "function"
    },
    {
      "inputs": [],
      "name": "depositCount",
      "outputs": [
        {
          "internalType": "uint256",
          "name": "",
          "type": "uint256"
        }
      ],
      "stateMutability": "view",
      "type": "function"
    },
    {
      "inputs": [
        {
          "internalType": "uint256",
          "name": "",
          "type": "uint256"
        }
      ],
      "name": "deposits",
      "outputs": [
        {
          "internalType": "uint256",
          "name": "id",
          "type": "uint256"
        },
        {
          "internalType": "address payable",
          "name": "depositor",
          "type": "address"
        },
        {
          "internalType": "address payable",
          "name": "provider",
          "type": "address"
        },
        {
          "internalType": "uint256",
          "name": "rate",
          "type": "uint256"
        },
        {
          "internalType": "uint256",
          "name": "timeperiod",
          "type": "uint256"
        },
        {
          "internalType": "uint256",
          "name": "principal",
          "type": "uint256"
        },
        {
          "internalType": "uint256",
          "name": "maxDepositAmt",
          "type": "uint256"
        },
        {
          "internalType": "uint256",
          "name": "endtime",
          "type": "uint256"
        },
        {
          "internalType": "uint256",
          "name": "starttime",
          "type": "uint256"
        },
        {
          "internalType": "uint256",
          "name": "interest",
          "type": "uint256"
        },
        {
          "internalType": "uint256",
          "name": "amt",
          "type": "uint256"
        },
        {
          "internalType": "bool",
          "name": "isAvailable",
          "type": "bool"
        },
        {
          "internalType": "bool",
          "name": "notRedeemed",
          "type": "bool"
        }
      ],
      "stateMutability": "view",
      "type": "function"
    },
    {
      "inputs": [
        {
          "internalType": "address",
          "name": "bank_address",
          "type": "address"
        }
      ],
      "name": "getAllBanks",
      "outputs": [
        {
          "components": [
            {
              "internalType": "uint256",
              "name": "bank_id",
              "type": "uint256"
            },
            {
              "internalType": "string",
              "name": "name",
              "type": "string"
            },
            {
              "internalType": "string",
              "name": "extension",
              "type": "string"
            },
            {
              "internalType": "string",
              "name": "bank_address",
              "type": "string"
            }
          ],
          "internalType": "struct CBDCCoin.BankDetails[]",
          "name": "bankList",
          "type": "tuple[]"
        }
      ],
      "stateMutability": "view",
      "type": "function"
    },
    {
      "inputs": [],
      "name": "getAllCentralBankData",
      "outputs": [
        {
          "components": [
            {
              "internalType": "address",
              "name": "smart_contract_address",
              "type": "address"
            },
            {
              "internalType": "address",
              "name": "bank_user_address",
              "type": "address"
            },
            {
              "internalType": "uint256",
              "name": "token_supply",
              "type": "uint256"
            },
            {
              "internalType": "string",
              "name": "token_name",
              "type": "string"
            },
            {
              "internalType": "string",
              "name": "token_symbol",
              "type": "string"
            }
          ],
          "internalType": "struct CBDCCoin.CentralBankDetails[]",
          "name": "allCentralBanks",
          "type": "tuple[]"
        }
      ],
      "stateMutability": "view",
      "type": "function"
    },
    {
      "inputs": [
        {
          "internalType": "address",
          "name": "bank_address",
          "type": "address"
        }
      ],
      "name": "getAllToken",
      "outputs": [
        {
          "components": [
            {
              "internalType": "uint256",
              "name": "token_id",
              "type": "uint256"
            },
            {
              "internalType": "string",
              "name": "name",
              "type": "string"
            },
            {
              "internalType": "string",
              "name": "symbol",
              "type": "string"
            },
            {
              "internalType": "uint256",
              "name": "supply",
              "type": "uint256"
            }
          ],
          "internalType": "struct CBDCCoin.Tokens",
          "name": "token",
          "type": "tuple"
        }
      ],
      "stateMutability": "view",
      "type": "function"
    },
    {
      "inputs": [
        {
          "internalType": "address",
          "name": "bankAddress",
          "type": "address"
        }
      ],
      "name": "getAllUserFromBankAddress",
      "outputs": [
        {
          "components": [
            {
              "internalType": "address",
              "name": "userAddress",
              "type": "address"
            },
            {
              "internalType": "address",
              "name": "creatorAddress",
              "type": "address"
            },
            {
              "internalType": "string",
              "name": "name",
              "type": "string"
            },
            {
              "internalType": "string",
              "name": "iddata",
              "type": "string"
            },
            {
              "internalType": "uint256",
              "name": "idnum",
              "type": "uint256"
            }
          ],
          "internalType": "struct CBDCCoin.AccountInfo[]",
          "name": "info",
          "type": "tuple[]"
        }
      ],
      "stateMutability": "view",
      "type": "function"
    },
    {
      "inputs": [
        {
          "internalType": "address",
          "name": "_address",
          "type": "address"
        }
      ],
      "name": "getBalanceOf",
      "outputs": [
        {
          "internalType": "uint256",
          "name": "_price",
          "type": "uint256"
        }
      ],
      "stateMutability": "view",
      "type": "function"
    },
    {
      "inputs": [
        {
          "internalType": "address",
          "name": "_bankAddr",
          "type": "address"
        }
      ],
      "name": "invalidateBankAddress",
      "outputs": [
        {
          "internalType": "bool",
          "name": "success",
          "type": "bool"
        }
      ],
      "stateMutability": "nonpayable",
      "type": "function"
    },
    {
      "inputs": [
        {
          "internalType": "address",
          "name": "_addr",
          "type": "address"
        }
      ],
      "name": "invalidateUserAddress",
      "outputs": [
        {
          "internalType": "bool",
          "name": "success",
          "type": "bool"
        }
      ],
      "stateMutability": "nonpayable",
      "type": "function"
    },
    {
      "inputs": [
        {
          "internalType": "uint256",
          "name": "_id",
          "type": "uint256"
        },
        {
          "internalType": "uint256",
          "name": "_principal",
          "type": "uint256"
        }
      ],
      "name": "makeDeposit",
      "outputs": [
        {
          "internalType": "bool",
          "name": "success",
          "type": "bool"
        }
      ],
      "stateMutability": "payable",
      "type": "function"
    },
    {
      "inputs": [],
      "name": "name",
      "outputs": [
        {
          "internalType": "string",
          "name": "",
          "type": "string"
        }
      ],
      "stateMutability": "view",
      "type": "function"
    },
    {
      "inputs": [
        {
          "internalType": "uint256",
          "name": "_rate",
          "type": "uint256"
        },
        {
          "internalType": "uint256",
          "name": "_timeperiod",
          "type": "uint256"
        },
        {
          "internalType": "uint256",
          "name": "_maxDepositAmt",
          "type": "uint256"
        }
      ],
      "name": "offerDeposit",
      "outputs": [
        {
          "internalType": "bool",
          "name": "success",
          "type": "bool"
        }
      ],
      "stateMutability": "nonpayable",
      "type": "function"
    },
    {
      "inputs": [
        {
          "internalType": "uint256",
          "name": "_id",
          "type": "uint256"
        }
      ],
      "name": "receiveBack",
      "outputs": [
        {
          "internalType": "bool",
          "name": "success",
          "type": "bool"
        }
      ],
      "stateMutability": "payable",
      "type": "function"
    },
    {
      "inputs": [
        {
          "internalType": "address",
          "name": "_addr",
          "type": "address"
        }
      ],
      "name": "setValidAddress",
      "outputs": [
        {
          "internalType": "bool",
          "name": "success",
          "type": "bool"
        }
      ],
      "stateMutability": "nonpayable",
      "type": "function"
    },
    {
      "inputs": [],
      "name": "standard",
      "outputs": [
        {
          "internalType": "string",
          "name": "",
          "type": "string"
        }
      ],
      "stateMutability": "view",
      "type": "function"
    },
    {
      "inputs": [],
      "name": "symbol",
      "outputs": [
        {
          "internalType": "string",
          "name": "",
          "type": "string"
        }
      ],
      "stateMutability": "view",
      "type": "function"
    },
    {
      "inputs": [],
      "name": "totalSupply",
      "outputs": [
        {
          "internalType": "uint256",
          "name": "",
          "type": "uint256"
        }
      ],
      "stateMutability": "view",
      "type": "function"
    },
    {
      "inputs": [
        {
          "internalType": "address",
          "name": "_to",
          "type": "address"
        },
        {
          "internalType": "uint256",
          "name": "_value",
          "type": "uint256"
        }
      ],
      "name": "transfer",
      "outputs": [
        {
          "internalType": "bool",
          "name": "success",
          "type": "bool"
        }
      ],
      "stateMutability": "nonpayable",
      "type": "function"
    },
    {
      "inputs": [
        {
          "internalType": "address",
          "name": "_from",
          "type": "address"
        },
        {
          "internalType": "address",
          "name": "_to",
          "type": "address"
        },
        {
          "internalType": "uint256",
          "name": "_value",
          "type": "uint256"
        }
      ],
      "name": "transferFrom",
      "outputs": [
        {
          "internalType": "bool",
          "name": "success",
          "type": "bool"
        }
      ],
      "stateMutability": "nonpayable",
      "type": "function"
    },
    {
      "inputs": [],
      "name": "userAccountsNum",
      "outputs": [
        {
          "internalType": "uint256",
          "name": "",
          "type": "uint256"
        }
      ],
      "stateMutability": "view",
      "type": "function"
    },
    {
      "inputs": [
        {
          "internalType": "address",
          "name": "",
          "type": "address"
        }
      ],
      "name": "validAddresses",
      "outputs": [
        {
          "internalType": "bool",
          "name": "",
          "type": "bool"
        }
      ],
      "stateMutability": "view",
      "type": "function"
    },
    {
      "inputs": [
        {
          "internalType": "address",
          "name": "",
          "type": "address"
        }
      ],
      "name": "validBankAddresses",
      "outputs": [
        {
          "internalType": "bool",
          "name": "",
          "type": "bool"
        }
      ],
      "stateMutability": "view",
      "type": "function"
    }
  ],
  "bytecode": "0x60c0604052600860809081526721a12221a1b7b4b760c11b60a052600090620000299082620001c3565b506040805180820190915260048152634342444360e01b6020820152600190620000549082620001c3565b50604080518082019091526005815264045524332360dc1b6020820152600290620000809082620001c3565b5060006005556000600655600060075560006008556000600955348015620000a757600080fd5b5060048054336001600160a01b031991821681178355600380549092169091556000908152601060205260409020805460ff191660011790555462000117906001600160a01b03166001600160a01b03166000908152600f60205260409020805460ff1916600190811790915590565b506200028f565b634e487b7160e01b600052604160045260246000fd5b600181811c908216806200014957607f821691505b6020821081036200016a57634e487b7160e01b600052602260045260246000fd5b50919050565b601f821115620001be57600081815260208120601f850160051c81016020861015620001995750805b601f850160051c820191505b81811015620001ba57828155600101620001a5565b5050505b505050565b81516001600160401b03811115620001df57620001df6200011e565b620001f781620001f0845462000134565b8462000170565b602080601f8311600181146200022f5760008415620002165750858301515b600019600386901b1c1916600185901b178555620001ba565b600085815260208120601f198616915b8281101562000260578886015182559484019460019091019084016200023f565b50858210156200027f5787850151600019600388901b60f8161c191681555b5050505050600190811b01905550565b61372d806200029f6000396000f3fe6080604052600436106102455760003560e01c80637d3d2e5211610139578063b68f530d116100b6578063d90403801161007a578063d904038014610815578063dd62ed3e14610845578063de8f641f1461087d578063df4dd21914610890578063f3821da3146108b0578063faf53a30146108d057600080fd5b8063b68f530d14610765578063b8661a3c14610785578063b881ab5d146107a5578063b91e4087146107c5578063c6ed8990146107f557600080fd5b80639b96eece116100fd5780639b96eece146105ca578063a5ccd40414610600578063a9059cbb14610620578063a9f825b614610640578063b02c43d01461066057600080fd5b80637d3d2e52146105475780637e24d1eb14610569578063819bb2931461057f57806395d89b411461059f5780639a4a0fb2146105b457600080fd5b806327810b6e116101c75780633f0f40761161018b5780633f0f4076146104a15780635a3b7e42146104b45780636d1b229d146104c957806370a08231146104e9578063736908621461051657600080fd5b806327810b6e146103fb57806328262f801461041b57806328fb77451461044857806329397d9e146104755780632dfdf0b51461048b57600080fd5b80630e2d07c81161020e5780630e2d07c81461032a57806318160ddd14610357578063222b4ac61461037b57806323b872dd146103ab57806325ef4100146103cb57600080fd5b806285ae2b1461024a57806302d05d3f14610287578063060e2ba1146102a757806306fdde03146102d8578063095ea7b3146102fa575b600080fd5b34801561025657600080fd5b5061026a610265366004612c27565b6108f0565b6040516001600160a01b0390911681526020015b60405180910390f35b34801561029357600080fd5b5060045461026a906001600160a01b031681565b3480156102b357600080fd5b506102c76102c2366004612c27565b61091a565b60405161027e959493929190612c86565b3480156102e457600080fd5b506102ed610a7c565b60405161027e9190612cd7565b34801561030657600080fd5b5061031a610315366004612d01565b610b0a565b604051901515815260200161027e565b34801561033657600080fd5b5061034a610345366004612d2b565b610b77565b60405161027e9190612d46565b34801561036357600080fd5b5061036d60055481565b60405190815260200161027e565b34801561038757600080fd5b5061039b610396366004612d01565b610dac565b60405161027e9493929190612df2565b3480156103b757600080fd5b5061031a6103c6366004612e3c565b610f91565b3480156103d757600080fd5b506103eb6103e6366004612d2b565b6110d1565b60405161027e9493929190612e78565b34801561040757600080fd5b5060035461026a906001600160a01b031681565b34801561042757600080fd5b5061043b610436366004612d2b565b61120a565b60405161027e9190612eb5565b34801561045457600080fd5b50610468610463366004612d2b565b6113c5565b60405161027e9190612f5c565b34801561048157600080fd5b5061036d60065481565b34801561049757600080fd5b5061036d60085481565b61031a6104af366004612fb6565b611552565b3480156104c057600080fd5b506102ed61189a565b3480156104d557600080fd5b5061031a6104e4366004612c27565b6118a7565b3480156104f557600080fd5b5061036d610504366004612d2b565b60126020526000908152604090205481565b34801561052257600080fd5b50610536610531366004612c27565b6118e0565b60405161027e959493929190612fd8565b34801561055357600080fd5b5061055c611a2c565b60405161027e9190613029565b34801561057557600080fd5b5061036d60075481565b34801561058b57600080fd5b5061031a61059a3660046131c0565b611bdd565b3480156105ab57600080fd5b506102ed611d0a565b3480156105c057600080fd5b5061036d60095481565b3480156105d657600080fd5b5061036d6105e5366004612d2b565b6001600160a01b031660009081526012602052604090205490565b34801561060c57600080fd5b5061031a61061b366004612d2b565b611d17565b34801561062c57600080fd5b5061031a61063b366004612d01565b611db5565b34801561064c57600080fd5b5061053661065b366004612d01565b611f2a565b34801561066c57600080fd5b506106f361067b366004612c27565b601160205260009081526040902080546001820154600283015460038401546004850154600586015460068701546007880154600889015460098a0154600a8b0154600b909b0154999a6001600160a01b03998a169a9890991698969795969495939492939192909160ff808216916101009004168d565b604080519d8e526001600160a01b039c8d1660208f01529a909b16998c019990995260608b019790975260808a019590955260a089019390935260c088019190915260e0870152610100860152610120850152610140840152151561016083015215156101808201526101a00161027e565b34801561077157600080fd5b5061031a610780366004613292565b611f7f565b34801561079157600080fd5b5061031a6107a0366004612d2b565b6121c8565b3480156107b157600080fd5b506105366107c0366004612d2b565b6121f0565b3480156107d157600080fd5b5061031a6107e0366004612d2b565b600f6020526000908152604090205460ff1681565b34801561080157600080fd5b5061031a610810366004612c27565b612225565b34801561082157600080fd5b5061031a610830366004612d2b565b60106020526000908152604090205460ff1681565b34801561085157600080fd5b5061036d610860366004613317565b601360209081526000928352604080842090915290825290205481565b61031a61088b366004612c27565b6122d4565b34801561089c57600080fd5b5061031a6108ab366004612d2b565b6124c6565b3480156108bc57600080fd5b5061031a6108cb36600461334a565b612575565b3480156108dc57600080fd5b5061031a6108eb366004613376565b6128e8565b600a818154811061090057600080fd5b6000918252602090912001546001600160a01b0316905081565b600b818154811061092a57600080fd5b600091825260209091206005909102018054600182015460028301546003840180546001600160a01b03948516965092909316939092909161096b90613486565b80601f016020809104026020016040519081016040528092919081815260200182805461099790613486565b80156109e45780601f106109b9576101008083540402835291602001916109e4565b820191906000526020600020905b8154815290600101906020018083116109c757829003601f168201915b5050505050908060040180546109f990613486565b80601f0160208091040260200160405190810160405280929190818152602001828054610a2590613486565b8015610a725780601f10610a4757610100808354040283529160200191610a72565b820191906000526020600020905b815481529060010190602001808311610a5557829003601f168201915b5050505050905085565b60008054610a8990613486565b80601f0160208091040260200160405190810160405280929190818152602001828054610ab590613486565b8015610b025780601f10610ad757610100808354040283529160200191610b02565b820191906000526020600020905b815481529060010190602001808311610ae557829003601f168201915b505050505081565b3360008181526013602090815260408083206001600160a01b038716808552925280832085905551919290917f8c5be1e5ebec7d5bd14f71427d1e84f3dd0314c0f7b2291e5b200ac8c7c3b92590610b659086815260200190565b60405180910390a35060015b92915050565b6001600160a01b0381166000908152601560209081526040808320805482518185028101850190935280835260609492939192909184015b82821015610da1578382906000526020600020906004020160405180608001604052908160008201548152602001600182018054610bec90613486565b80601f0160208091040260200160405190810160405280929190818152602001828054610c1890613486565b8015610c655780601f10610c3a57610100808354040283529160200191610c65565b820191906000526020600020905b815481529060010190602001808311610c4857829003601f168201915b50505050508152602001600282018054610c7e90613486565b80601f0160208091040260200160405190810160405280929190818152602001828054610caa90613486565b8015610cf75780601f10610ccc57610100808354040283529160200191610cf7565b820191906000526020600020905b815481529060010190602001808311610cda57829003601f168201915b50505050508152602001600382018054610d1090613486565b80601f0160208091040260200160405190810160405280929190818152602001828054610d3c90613486565b8015610d895780601f10610d5e57610100808354040283529160200191610d89565b820191906000526020600020905b815481529060010190602001808311610d6c57829003601f168201915b50505050508152505081526020019060010190610baf565b505050509050919050565b60156020528160005260406000208181548110610dc857600080fd5b906000526020600020906004020160009150915050806000015490806001018054610df290613486565b80601f0160208091040260200160405190810160405280929190818152602001828054610e1e90613486565b8015610e6b5780601f10610e4057610100808354040283529160200191610e6b565b820191906000526020600020905b815481529060010190602001808311610e4e57829003601f168201915b505050505090806002018054610e8090613486565b80601f0160208091040260200160405190810160405280929190818152602001828054610eac90613486565b8015610ef95780601f10610ece57610100808354040283529160200191610ef9565b820191906000526020600020905b815481529060010190602001808311610edc57829003601f168201915b505050505090806003018054610f0e90613486565b80601f0160208091040260200160405190810160405280929190818152602001828054610f3a90613486565b8015610f875780601f10610f5c57610100808354040283529160200191610f87565b820191906000526020600020905b815481529060010190602001808311610f6a57829003601f168201915b5050505050905084565b6001600160a01b038316600090815260126020526040812054821115610fb657600080fd5b6001600160a01b0384166000908152601360209081526040808320338452909152902054821115610fe657600080fd5b6001600160a01b0384166000908152601260205260408120805484929061100e9084906134d6565b90915550506001600160a01b0383166000908152601260205260408120805484929061103b9084906134e9565b90915550506001600160a01b0384166000908152601360209081526040808320338452909152812080548492906110739084906134d6565b92505081905550826001600160a01b0316846001600160a01b03167fddf252ad1be2c89b69c2b068fc378daa952ba7f163c4a11628f55a4df523b3ef846040516110bf91815260200190565b60405180910390a35060019392505050565b601460205260009081526040902080546001820180549192916110f390613486565b80601f016020809104026020016040519081016040528092919081815260200182805461111f90613486565b801561116c5780601f106111415761010080835404028352916020019161116c565b820191906000526020600020905b81548152906001019060200180831161114f57829003601f168201915b50505050509080600201805461118190613486565b80601f01602080910402602001604051908101604052809291908181526020018280546111ad90613486565b80156111fa5780601f106111cf576101008083540402835291602001916111fa565b820191906000526020600020905b8154815290600101906020018083116111dd57829003601f168201915b5050505050908060030154905084565b6001600160a01b0381166000908152600e60209081526040808320805482518185028101850190935280835260609492939192909184015b82821015610da15760008481526020908190206040805160a0810182526005860290920180546001600160a01b039081168452600182015416938301939093526002830180549293929184019161129890613486565b80601f01602080910402602001604051908101604052809291908181526020018280546112c490613486565b80156113115780601f106112e657610100808354040283529160200191611311565b820191906000526020600020905b8154815290600101906020018083116112f457829003601f168201915b5050505050815260200160038201805461132a90613486565b80601f016020809104026020016040519081016040528092919081815260200182805461135690613486565b80156113a35780601f10611378576101008083540402835291602001916113a3565b820191906000526020600020905b81548152906001019060200180831161138657829003601f168201915b5050505050815260200160048201548152505081526020019060010190611242565b6113f06040518060800160405280600081526020016060815260200160608152602001600081525090565b6001600160a01b03821660009081526014602090815260409182902082516080810190935280548352600181018054919284019161142d90613486565b80601f016020809104026020016040519081016040528092919081815260200182805461145990613486565b80156114a65780601f1061147b576101008083540402835291602001916114a6565b820191906000526020600020905b81548152906001019060200180831161148957829003601f168201915b505050505081526020016002820180546114bf90613486565b80601f01602080910402602001604051908101604052809291908181526020018280546114eb90613486565b80156115385780601f1061150d57610100808354040283529160200191611538565b820191906000526020600020905b81548152906001019060200180831161151b57829003601f168201915b505050505081526020016003820154815250509050919050565b336000908152600f602052604081205460ff1615156001146115ca5760405162461bcd60e51b815260206004820152602660248201527f4465706f7369746f722061646472657373206973206e6f74207965742076616c6044820152651a59185d195960d21b60648201526084015b60405180910390fd5b336000908152601260205260409020548211156116485760405162461bcd60e51b815260206004820152603660248201527f4465706f7369746f72206d75737420686176652073756666696369656e7420746044820152756f6b656e7320746f206d616b65206465706f7369747360501b60648201526084016115c1565b6000838152601160205260409020600601548211156116c45760405162461bcd60e51b815260206004820152603260248201527f43616e6e6f74206d616b65206465706f73697420666f722076616c756520677260448201527119585d195c881d1a185b881bd999995c995960721b60648201526084016115c1565b6000838152601160205260409020600b015460ff16151560011461173e5760405162461bcd60e51b815260206004820152602b60248201527f43616e6e6f74206d616b65206465706f73697420746f20616e20756e6176616960448201526a6c61626c6520737461746560a81b60648201526084016115c1565b60008381526011602052604090206001810180546001600160a01b03191633179055600581018390554260088201556004015461177c90603c6134fc565b60008481526011602052604090206008015461179891906134e9565b60008481526011602090815260408083206007810194909455600b8401805461ffff1916610100179055600290930154338352601290915291812080546001600160a01b03909316928592906117ef9084906134d6565b90915550506001600160a01b0381166000908152601260205260408120805485929061181c9084906134e9565b90915550506000848152601160205260408120600381015460049091015461184e816118488885612ac6565b90612ac6565b925061185b836064612b4f565b600088815260116020526040902060090181905561187a908790612b91565b6000888152601160205260409020600a0155506001935050505092915050565b60028054610a8990613486565b6003546000906118c0906001600160a01b031683611db5565b5081600560008282546118d391906134d6565b9091555060019392505050565b600c602052600090815260409020805460018201546002830180546001600160a01b0393841694929093169261191590613486565b80601f016020809104026020016040519081016040528092919081815260200182805461194190613486565b801561198e5780601f106119635761010080835404028352916020019161198e565b820191906000526020600020905b81548152906001019060200180831161197157829003601f168201915b5050505050908060030180546119a390613486565b80601f01602080910402602001604051908101604052809291908181526020018280546119cf90613486565b8015611a1c5780601f106119f157610100808354040283529160200191611a1c565b820191906000526020600020905b8154815290600101906020018083116119ff57829003601f168201915b5050505050908060040154905085565b6060600b805480602002602001604051908101604052809291908181526020016000905b82821015611bd45760008481526020908190206040805160a0810182526005860290920180546001600160a01b03908116845260018201541693830193909352600283015490820152600382018054919291606084019190611ab190613486565b80601f0160208091040260200160405190810160405280929190818152602001828054611add90613486565b8015611b2a5780601f10611aff57610100808354040283529160200191611b2a565b820191906000526020600020905b815481529060010190602001808311611b0d57829003601f168201915b50505050508152602001600482018054611b4390613486565b80601f0160208091040260200160405190810160405280929190818152602001828054611b6f90613486565b8015611bbc5780601f10611b9157610100808354040283529160200191611bbc565b820191906000526020600020905b815481529060010190602001808311611b9f57829003601f168201915b50505050508152505081526020019060010190611a50565b50505050905090565b6004546000906001600160a01b03163314611c0a5760405162461bcd60e51b81526004016115c190613513565b600a805460018101825560009182527fc65a7bb8d6351c1cf70c95a316cc6a92839c986682d98bc35f958f4883f9d2a80180546001600160a01b0319166001600160a01b0386161790556007805491611c6283613561565b90915550506001600160a01b0383166000908152601060205260409020805460ff19166001179055611c93836121c8565b50336000908152601560209081526040822080546001818101835591845292829020855160049094020192835590840151849291820190611cd490826135c9565b5060408201516002820190611ce990826135c9565b5060608201516003820190611cfe90826135c9565b50600195945050505050565b60018054610a8990613486565b6004546000906001600160a01b03163314611d905760405162461bcd60e51b815260206004820152603360248201527f4f6e6c79207468652063656e7472616c2062616e6b2063616e20696e76616c69604482015272646174652062616e6b2061646472657373657360681b60648201526084016115c1565b506001600160a01b03166000908152601060205260409020805460ff19169055600190565b33600090815260126020526040812054821115611e235760405162461bcd60e51b815260206004820152602660248201527f53656e64657220646f65736e277420686176652073756666696369656e742062604482015265616c616e636560d01b60648201526084016115c1565b6001600160a01b0383166000908152600f602052604090205460ff161515600114611e9c5760405162461bcd60e51b815260206004820152602360248201527f546f2061646472657373206973206e6f742076616c696461746564206164647260448201526265737360e81b60648201526084016115c1565b3360009081526012602052604081208054849290611ebb9084906134d6565b90915550506001600160a01b03831660009081526012602052604081208054849290611ee89084906134e9565b90915550506040518281526001600160a01b0384169033907fddf252ad1be2c89b69c2b068fc378daa952ba7f163c4a11628f55a4df523b3ef90602001610b65565b600e6020528160005260406000208181548110611f4657600080fd5b60009182526020909120600590910201805460018201546002830180546001600160a01b03938416965091909216935061191590613486565b3360009081526010602052604081205460ff161515600114611ffe5760405162461bcd60e51b815260206004820152603260248201527f4f6e6c7920612076616c69642062616e6b20616464726573732063616e206372604482015271656174652075736572206163636f756e747360701b60648201526084016115c1565b6006805490600061200e83613561565b90915550506040805160a0810182526001600160a01b03808816825233602080840191825283850188815260608501889052600654608086018190526000908152600c909252949020835181549084166001600160a01b03199182161782559151600182018054919094169216919091179091559151909190600282019061209690826135c9565b50606082015160038201906120ab90826135c9565b506080918201516004909101556001600160a01b038086166000908152600e60209081526040808320815160a0810183528b86168152338185019081529281018a8152606082018a90526006549782019790975281546001818101845592865293909420845160059094020180549386166001600160a01b031994851617815591519082018054919095169216919091179092559151600282019061215090826135c9565b506060820151600382019061216590826135c9565b50608082015181600401555050336001600160a01b0316856001600160a01b03167f95da2ee7bf5870679d6aec59b7360b2cd943ea903b9024a9a2162c07a42685af85856006546040516121bb93929190613689565b60405180910390a3611cfe855b6001600160a01b03166000908152600f60205260409020805460ff1916600190811790915590565b600d602052600090815260409020805460018201546002830180546001600160a01b0393841694929093169261191590613486565b6004546000906001600160a01b031633146122525760405162461bcd60e51b81526004016115c190613513565b816005600082825461226491906134e9565b90915550506004546001600160a01b0316600090815260126020526040812080548492906122939084906134e9565b9250508190555081600b6000815481106122af576122af6136bf565b906000526020600020906005020160020160008282546118d391906134e9565b919050565b6000818152601160205260408120600701544210156123355760405162461bcd60e51b815260206004820181905260248201527f526564656d7074696f6e2074696d6520686173206e6f7420726561636865642e60448201526064016115c1565b6000828152601160205260409020600101546001600160a01b031633146123b05760405162461bcd60e51b815260206004820152602960248201527f43616c6c206261636b206973206f6e6c7920616c6c6f7765642066726f6d206460448201526832b837b9b4ba37b91760b91b60648201526084016115c1565b6000828152601160205260409020600b015460ff61010090910416151560011461242e5760405162461bcd60e51b815260206004820152602960248201527f526564656d7074696f6e2073686f756c64206e6f742068617665206265656e2060448201526836b0b232903cb2ba1760b91b60648201526084016115c1565b6000828152601160209081526040808320600a8101546002909101543385526012909352908320805491936001600160a01b039093169284926124729084906134e9565b90915550506001600160a01b0381166000908152601260205260408120805484929061249f9084906134d6565b90915550505060009283525050601160205260409020600b01805461ff0019169055600190565b3360009081526010602052604081205460ff1615156001146125505760405162461bcd60e51b815260206004820152603760248201527f4f6e6c7920612062616e6b206f722063656e7472616c2062616e6b2063616e2060448201527f696e76616c69646174652075736572206164647265737300000000000000000060648201526084016115c1565b506001600160a01b03166000908152600f60205260409020805460ff19169055600190565b336000908152600f602052604081205460ff1615156001146125ea5760405162461bcd60e51b815260206004820152602860248201527f536572766963652070726f7669646572206d75737420626520612076616c6964604482015267206164647265737360c01b60648201526084016115c1565b336000908152601260205260409020548211156126575760405162461bcd60e51b815260206004820152602560248201527f50726f766964657220646f65736e27742068617665206d696e696d756d2062616044820152646c616e636560d81b60648201526084016115c1565b6008805490600061266783613561565b9190505550604051806101a00160405280600854815260200160006001600160a01b0316815260200160006001600160a01b031681526020016000815260200160008152602001600081526020016000815260200160008152602001600081526020016000815260200160008152602001600015158152602001600015158152506011600060085481526020019081526020016000206000820151816000015560208201518160010160006101000a8154816001600160a01b0302191690836001600160a01b0316021790555060408201518160020160006101000a8154816001600160a01b0302191690836001600160a01b03160217905550606082015181600301556080820151816004015560a0820151816005015560c0820151816006015560e082015181600701556101008201518160080155610120820151816009015561014082015181600a015561016082015181600b0160006101000a81548160ff02191690831515021790555061018082015181600b0160016101000a81548160ff021916908315150217905550905050600854601160006008548152602001908152602001600020600001819055503360116000600854815260200190815260200160002060020160006101000a8154816001600160a01b0302191690836001600160a01b031602179055508360116000600854815260200190815260200160002060030181905550826011600060085481526020019081526020016000206004018190555081601160006008548152602001908152602001600020600601819055506001601160006008548152602001908152602001600020600b0160006101000a81548160ff021916908315150217905550600190509392505050565b6004546000906001600160a01b031633146129155760405162461bcd60e51b81526004016115c190613513565b826005600082825461292791906134e9565b90915550506005543360008181526012602090815260408083209490945583516080810185524281528082018a81528186018a9052606082018990529383526014909152929020825181559051600182019061298390826135c9565b506040820151600282019061299890826135c9565b5060609190910151600390910155600980549060006129b683613561565b9091555050600b8054600181018255600091909152825160059091027f0175b7a638427703f0dbe7bb9bbf987a2551717b34e79f33b5b1008d1fa01db9810180546001600160a01b039384166001600160a01b031991821617825560208601517f0175b7a638427703f0dbe7bb9bbf987a2551717b34e79f33b5b1008d1fa01dba840180549190951691161790925560408401517f0175b7a638427703f0dbe7bb9bbf987a2551717b34e79f33b5b1008d1fa01dbb82015560608401518492917f0175b7a638427703f0dbe7bb9bbf987a2551717b34e79f33b5b1008d1fa01dbc0190612aa390826135c9565b5060808201516004820190612ab890826135c9565b506001979650505050505050565b600082600003612ad857506000610b71565b6000612ae483856134fc565b905082612af185836136d5565b14612b485760405162461bcd60e51b815260206004820152602160248201527f536166654d6174683a206d756c7469706c69636174696f6e206f766572666c6f6044820152607760f81b60648201526084016115c1565b9392505050565b6000612b4883836040518060400160405280601a81526020017f536166654d6174683a206469766973696f6e206279207a65726f000000000000815250612bf0565b600080612b9e83856134e9565b905083811015612b485760405162461bcd60e51b815260206004820152601b60248201527f536166654d6174683a206164646974696f6e206f766572666c6f77000000000060448201526064016115c1565b60008183612c115760405162461bcd60e51b81526004016115c19190612cd7565b506000612c1e84866136d5565b95945050505050565b600060208284031215612c3957600080fd5b5035919050565b6000815180845260005b81811015612c6657602081850181015186830182015201612c4a565b506000602082860101526020601f19601f83011685010191505092915050565b6001600160a01b038681168252851660208201526040810184905260a060608201819052600090612cb990830185612c40565b8281036080840152612ccb8185612c40565b98975050505050505050565b602081526000612b486020830184612c40565b80356001600160a01b03811681146122cf57600080fd5b60008060408385031215612d1457600080fd5b612d1d83612cea565b946020939093013593505050565b600060208284031215612d3d57600080fd5b612b4882612cea565b60006020808301818452808551808352604092508286019150828160051b87010184880160005b83811015612de457603f19898403018552815160808151855288820151818a870152612d9b82870182612c40565b9150508782015185820389870152612db38282612c40565b91505060608083015192508582038187015250612dd08183612c40565b968901969450505090860190600101612d6d565b509098975050505050505050565b848152608060208201526000612e0b6080830186612c40565b8281036040840152612e1d8186612c40565b90508281036060840152612e318185612c40565b979650505050505050565b600080600060608486031215612e5157600080fd5b612e5a84612cea565b9250612e6860208501612cea565b9150604084013590509250925092565b848152608060208201526000612e916080830186612c40565b8281036040840152612ea38186612c40565b91505082606083015295945050505050565b60006020808301818452808551808352604092508286019150828160051b87010184880160005b83811015612de457888303603f19018552815180516001600160a01b0390811685528882015116888501528681015160a088860181905290612f2082870182612c40565b91505060608083015186830382880152612f3a8382612c40565b6080948501519790940196909652505094870194925090860190600101612edc565b60208152815160208201526000602083015160806040840152612f8260a0840182612c40565b90506040840151601f19848303016060850152612f9f8282612c40565b915050606084015160808401528091505092915050565b60008060408385031215612fc957600080fd5b50508035926020909101359150565b6001600160a01b0386811682528516602082015260a06040820181905260009061300490830186612c40565b82810360608401526130168186612c40565b9150508260808301529695505050505050565b60006020808301818452808551808352604092508286019150828160051b87010184880160005b83811015612de457888303603f19018552815180516001600160a01b039081168552888201511688850152868101518785015260608082015160a0828701819052919061309f83880182612c40565b92505050608080830151925085820381870152506130bd8183612c40565b968901969450505090860190600101613050565b634e487b7160e01b600052604160045260246000fd5b6040516080810167ffffffffffffffff8111828210171561310a5761310a6130d1565b60405290565b60405160a0810167ffffffffffffffff8111828210171561310a5761310a6130d1565b600082601f83011261314457600080fd5b813567ffffffffffffffff8082111561315f5761315f6130d1565b604051601f8301601f19908116603f01168101908282118183101715613187576131876130d1565b816040528381528660208588010111156131a057600080fd5b836020870160208301376000602085830101528094505050505092915050565b600080604083850312156131d357600080fd5b6131dc83612cea565b9150602083013567ffffffffffffffff808211156131f957600080fd5b908401906080828703121561320d57600080fd5b6132156130e7565b8235815260208301358281111561322b57600080fd5b61323788828601613133565b60208301525060408301358281111561324f57600080fd5b61325b88828601613133565b60408301525060608301358281111561327357600080fd5b61327f88828601613133565b6060830152508093505050509250929050565b600080600080608085870312156132a857600080fd5b6132b185612cea565b93506132bf60208601612cea565b9250604085013567ffffffffffffffff808211156132dc57600080fd5b6132e888838901613133565b935060608701359150808211156132fe57600080fd5b5061330b87828801613133565b91505092959194509250565b6000806040838503121561332a57600080fd5b61333383612cea565b915061334160208401612cea565b90509250929050565b60008060006060848603121561335f57600080fd5b505081359360208301359350604090920135919050565b6000806000806080858703121561338c57600080fd5b843567ffffffffffffffff808211156133a457600080fd5b6133b088838901613133565b955060208701359150808211156133c657600080fd5b6133d288838901613133565b94506040870135935060608701359150808211156133ef57600080fd5b9086019060a0828903121561340357600080fd5b61340b613110565b61341483612cea565b815261342260208401612cea565b60208201526040830135604082015260608301358281111561344357600080fd5b61344f8a828601613133565b60608301525060808301358281111561346757600080fd5b6134738a828601613133565b6080830152509598949750929550505050565b600181811c9082168061349a57607f821691505b6020821081036134ba57634e487b7160e01b600052602260045260246000fd5b50919050565b634e487b7160e01b600052601160045260246000fd5b81810381811115610b7157610b716134c0565b80820180821115610b7157610b716134c0565b8082028115828204841417610b7157610b716134c0565b6020808252602e908201527f4f6e6c792063726561746f722f696e766f6b657220697320616c6c6f7765642060408201526d37b3103a3434b99030b1ba34b7b760911b606082015260800190565b600060018201613573576135736134c0565b5060010190565b601f8211156135c457600081815260208120601f850160051c810160208610156135a15750805b601f850160051c820191505b818110156135c0578281556001016135ad565b5050505b505050565b815167ffffffffffffffff8111156135e3576135e36130d1565b6135f7816135f18454613486565b8461357a565b602080601f83116001811461362c57600084156136145750858301515b600019600386901b1c1916600185901b1785556135c0565b600085815260208120601f198616915b8281101561365b5788860151825594840194600190910190840161363c565b50858210156136795787850151600019600388901b60f8161c191681555b5050505050600190811b01905550565b60608152600061369c6060830186612c40565b82810360208401526136ae8186612c40565b915050826040830152949350505050565b634e487b7160e01b600052603260045260246000fd5b6000826136f257634e487b7160e01b600052601260045260246000fd5b50049056fea2646970667358221220e6ea56ed75df1b8b6cdff75b7459b9b6651db53ce31c2a64577ac7d92bf1eeb164736f6c63430008140033",
  "linkReferences": {},
  "deployedLinkReferences": {}
}